:100000000C94DF000C94DF060C94B8060C940701E6
:100010000C9407010C9407010C9407010C94070140
:100020000C9407010C9407010C9407010C94070130
:100030000C9407010C9407010C9407010C94070120
:100040000C946E060C9407010C943C060C94160656
:100050000C9407010C9407010C9407010C94070100
:100060000C9407010C94070100407A10F35A00A089
:10007000724E18090010A5D4E80000E87648170071
:1000800000E40B54020000CA9A3B000000E1F505B1
:10009000000080969800000040420F000000A086FB
:1000A00001000000102700000000E803000000002D
:1000B0006400000000000A000000000001000000D1
:1000C00000002C76D888DC674F0823DFC1DFAE59EB
:1000D000E1B1B796E5E3E453C63AE651997696E87E
:1000E000E6C28426EB898C9B62ED407C6FFCEFBC02
:1000F0009C9F40F2BAA56FA5F490055A2AF75C932D
:100100006B6CF9676DC11BFCE0E40D47FEF520E662
:10011000B500D0ED902E0300943577050080841E45
:10012000080000204E0A000000C80C333333330FA0
:10013000986E12831141EF8D2114893BE65516CF3D
:10014000FEE6DB18D1844B381BF77C1D901DA4BB49
:10015000E424203284725E228100C9F124ECA1E5FE
:100160003D2700000000240027002A0000000000B6
:10017000250028002B000000000023002600290095
:10018000040404040404040402020202020203033D
:100190000303030301020408102040800102040845
:1001A00010200102040810200000000800020100D5
:1001B00000030407000000000000000006071124EF
:1001C0001FBECFEFD8E0DEBFCDBF23E0AAE5B2E08F
:1001D00001C01D92A731B207E1F712E0A0E0B1E043
:1001E000E2E0F6E202C005900D92AA35B107D9F718
:1001F00010E0CFEDD0E004C02197FE010E94E41092
:10020000CE3DD107C9F70E9439070C94FF120C9418
:1002100000000895AF92BF92CF92DF92EF92FF92CB
:100220000F931F93CF93DF936C017B018B01040F1E
:10023000151FEB015E01AE18BF08C017D10759F0BA
:100240006991D601ED91FC910190F081E02DC601FC
:100250000995892B79F7C501DF91CF911F910F91F6
:10026000FF90EF90DF90CF90BF90AF900895FC018A
:10027000538D448D252F30E0842F90E0821B930B0B
:10028000541710F0CF96089501970895FC01918DB1
:10029000828D981761F0A28DAE0FBF2FB11D5D96B4
:1002A0008C91928D9F5F9F73928F90E008958FEF56
:1002B0009FEF08952FB7F89480917002909171028A
:1002C000A0917202B09173022FBF80937C02909331
:1002D0007D02A0937E02B0937F0284E792E00E94A9
:1002E000460197FF26C02FB7F89480917002909135
:1002F0007102A0917202B09173022FBF40917C02F3
:1003000050917D0260917E0270917F02841B950B5B
:10031000A60BB70B409178025091790260917A0256
:1003200070917B0284179507A607B707B0F28FEF8D
:100330009FEF0895FC01918D828D981731F0828D89
:10034000E80FF11D858D90E008958FEF9FEF0895E0
:10035000FC01918D228D892F90E0805C9F4F821B44
:1003600091098F739927089584E792E00E94A8016C
:1003700021E0892B09F420E0822F089580E090E0AD
:10038000892B29F00E94B40181110C94000008957A
:10039000FC01A48DA80FB92FB11DA35ABF4F2C91FA
:1003A000848D90E001968F739927848FA689B789F1
:1003B0002C93A089B1898C91837080648C93938DE8
:1003C000848D981306C00288F389E02D80818F7D8B
:1003D00080830895EF92FF920F931F93CF93DF9343
:1003E000EC0181E0888F9B8D8C8D98131AC0E88971
:1003F000F989808185FF15C09FB7F894EE89FF8940
:100400006083E889F98980818370806480839FBFDD
:1004100081E090E0DF91CF911F910F91FF90EF90DD
:100420000895F62E0B8D10E00F5F1F4F0F731127ED
:10043000E02E8C8D8E110CC00FB607FCFACFE88928
:10044000F989808185FFF5CFCE010E94C801F1CFE7
:10045000EB8DEC0FFD2FF11DE35AFF4FF0829FB79C
:10046000F8940B8FEA89FB8980818062CFCFCF938C
:10047000DF93EC01888D8823B9F0AA89BB89E889CC
:10048000F9898C9185FD03C0808186FD0DC00FB672
:1004900007FCF7CF8C9185FFF2CF808185FFEDCFF0
:1004A000CE010E94C801E9CFDF91CF91089583303A
:1004B00081F028F4813099F08230A9F008958730D6
:1004C000A9F08830C9F08430B1F4809180008F7D2C
:1004D00003C0809180008F7780938000089584B559
:1004E0008F7784BD089584B58F7DFBCF8091B00058
:1004F0008F778093B00008958091B0008F7DF9CF01
:10050000CF93DF93282F30E0F901E855FE4F849117
:10051000F901EC56FE4FD491F901E058FE4FC49119
:10052000CC23A1F081110E945702EC2FF0E0EE0FD6
:10053000FF1FEA58FE4FA591B491EC91ED2381E0A5
:1005400090E009F480E0DF91CF91089580E090E0A1
:10055000FACF1F93CF93DF93282F30E0F901E855AE
:10056000FE4F8491F901EC56FE4FD491F901E05809
:10057000FE4FC491CC23A9F0162F81110E9457027F
:10058000EC2FF0E0EE0FFF1FE459FE4FA591B49160
:100590008FB7F894EC91111108C0D095DE23DC934D
:1005A0008FBFDF91CF911F910895DE2BF8CFCF93AE
:1005B000DF9390E0FC01EC56FE4F249180589E4F53
:1005C000FC0184918823D1F090E0880F991FFC01F1
:1005D000EE59FE4FA591B491FC01E459FE4FC5912F
:1005E000D491623071F49FB7F8943C91822F80953A
:1005F00083238C93E8812E2B28839FBFDF91CF919B
:1006000008958FB7F894EC912E2B2C938FBFF6CFD3
:100610001F93CF93DF93182FEB0161E00E94D70265
:10062000209739F460E0812FDF91CF911F910C94D6
:10063000A902CF3FD10511F461E0F5CFE12FF0E041
:10064000E855FE4FE491E33031F140F4E130B1F090
:10065000E230E1F0C038D1057CF7E4CFE73029F192
:10066000E83059F1E430B1F78091800080628093E6
:100670008000D0938B00C0938A0004C084B580684A
:1006800084BDC7BDDF91CF911F91089584B580626D
:1006900084BDC8BDF7CF80918000806880938000C2
:1006A000D0938900C0938800EDCF8091B00080681E
:1006B0008093B000C093B300E5CF8091B00080621A
:1006C0008093B000C093B400DDCF3FB7F894809121
:1006D0005B0290915C02A0915D02B0915E0226B532
:1006E000A89B05C02F3F19F00196A11DB11D3FBF6A
:1006F000BA2FA92F982F8827BC01CD01620F711D39
:10070000811D911D42E0660F771F881F991F4A9532
:10071000D1F70895089560E089E00E94A90260E0A1
:100720008AE00C94A90242E050E06EE171E084E7B7
:1007300092E00C940A01CF93DF93FC014481558130
:100740006081718184E792E00E940A01EC010E94BD
:1007500093038C0F9D1FDF91CF910895CF93DF936B
:10076000FC0101900020E9F73197AF01481B590BBC
:10077000BC0184E792E00E940A01EC010E9493030D
:100780008C0F9D1FDF91CF910895CF93DF93EB01E5
:100790008130910581F08330910599F0892BA9F47E
:1007A00070E060E08AE00E940803BE0189E0DF910A
:1007B000CF910C9408038AE00E94080370E060E087
:1007C000F5CFDF91CF910C948B0381E291E0DF9123
:1007D000CF910C94AE0380910001811106C085E396
:1007E00091E00E94AE030C948B03109200010895D7
:1007F000CF93DF93DC0114962D913C911597232B19
:1008000079F0FB01CD91DC9160817181CE010E9474
:10081000E512009729F08C1B9D0BDF91CF91089575
:100820008FEF9FEFFACFCF93DF93EC01888199810F
:10083000009711F00E948611198218821D821C8275
:100840001B821A82DF91CF910895FC0180819181F2
:10085000009711F00C94861108950F931F93CF9376
:10086000DF938C01EB01FC01808191810097E1F025
:100870006881798161157105A9F0428153812C81CC
:100880003D814217530770F00E94DE128C819D81DA
:10089000F801958384831D821C82DF91CF911F9183
:1008A0000F9108950E94861188819981F8019183A2
:1008B00080838A819B81938382838C819D819583B0
:1008C0008483198218821B821A82E5CF0F931F93AB
:1008D000CF93DF93EC0188819981009759F02A81A9
:1008E0003B812617370730F081E0DF91CF911F91D0
:1008F0000F9108958B016F5F7F4F0E940F12009739
:1009000059F0998388831B830A832C813D81232B93
:1009100059F7FC011082E8CF80E0E7CFEF92FF9219
:100920000F931F93CF93DF936115710541F480E01E
:10093000DF91CF911F910F91FF90EF900895411596
:100940005105B1F07B01EC010C811D81040F151FD5
:10095000B8010E946604882351F3288139818C8173
:100960009D81B701820F931F0E94DE121D830C83AD
:1009700081E0DECFCF93DF93EC01FB0101900020FB
:10098000E9F73197AF01461B570B0E948E04811186
:1009900003C0CE010E941304CE01DF91CF910895D0
:1009A000CF93DF93EC01FB0144815581608171811C
:1009B0000E948E04811103C0CE010E941304CE0157
:1009C000DF91CF910895EF92FF920F931F93CF93F2
:1009D000DF93EC017B018A01BA010E946604811158
:1009E0000BC0CE010E941304CE01DF91CF911F9165
:1009F0000F91FF90EF9008951D830C83B7018881BC
:100A000099810E94DE12F0CFFB0101900020E9F7EE
:100A10003197AF01461B570B0C94E3040F931F93C0
:100A2000CF93DF93CDB7DEB762970FB6F894DEBFF2
:100A30000FBECDBF8C01CB01F80111821082138251
:100A40001282158214824AE0BE016F5F7F4F0E94BE
:100A5000E70BBE016F5F7F4FC8010E9404056296DD
:100A60000FB6F894DEBF0FBECDBFDF91CF911F91BF
:100A70000F910895FC011182108213821282158257
:100A80001482FB0101900020E9F73197AF01461B6A
:100A9000570B0C94E304CF93DF93CDB7DEB72C97BD
:100AA0000FB6F894DEBF0FBECDBF809163028111F7
:100AB00006C08091680290916902892B71F580913E
:100AC000680290916902029744F560916802709102
:100AD0006902CE0107960E940E0567E471E0CE011F
:100AE00001960E943A05BE01695F7F4FCE010196D3
:100AF0000E94D0040E949B03CE0101960E9425040F
:100B0000CE0107960E9425048091680290916902A7
:100B1000019690936902809368022C960FB6F89420
:100B2000DEBF0FBECDBFDF91CF910895CF92DF9290
:100B3000EF92FF920F931F93CF93DF93CDB7DEB762
:100B40002C970FB6F894DEBF0FBECDBFFC012481F9
:100B50003581232BD1F18A017B01C080D18067E5EB
:100B600071E0C6010E94D512892BF1F560916E02E9
:100B700070916F026F3F710544F56E0D7F1D70938C
:100B80006F0260936E02C8010E94C50360916E02FD
:100B900070916F02CE0107960E940E0569E571E023
:100BA000CE0101960E943A05BE01695F7F4FCE01DA
:100BB00001960E94D0040E949B03CE0101960E94E0
:100BC0002504CE0107960E9425042C960FB6F894B2
:100BD000DEBF0FBECDBFDF91CF911F910F91FF9070
:100BE000EF90DF90CF90089566E671E0C6010E9415
:100BF000D512892B51F760916E0270916F02161613
:100C000017061CF76E197F0970936F0260936E02CE
:100C1000C8010E94C50360916E0270916F02CE01FF
:100C200007960E940E0568E671E0BACF1F920F92F8
:100C30000FB60F9211242F933F934F935F936F93AF
:100C40007F938F939F93AF93BF93EF93FF9384E72B
:100C500092E00E94C801FF91EF91BF91AF919F91E7
:100C60008F917F916F915F914F913F912F910F9055
:100C70000FBE0F901F9018951F920F920FB60F92F4
:100C800011242F938F939F93EF93FF93E09184020E
:100C9000F09185028081E0918A02F0918B0282FDC1
:100CA0001BC0908180918D028F5F8F7320918E0287
:100CB000821741F0E0918D02F0E0EC58FD4F958FE6
:100CC00080938D02FF91EF919F918F912F910F90C3
:100CD0000FBE0F901F9018958081F4CF1F920F9236
:100CE0000FB60F9211242F933F938F939F93AF933F
:100CF000BF938091700290917102A0917202B091A5
:100D0000730230915A0223E0230F2D3758F50196D4
:100D1000A11DB11D20935A0280937002909371021D
:100D2000A0937202B093730280915B0290915C0277
:100D3000A0915D02B0915E020196A11DB11D80934C
:100D40005B0290935C02A0935D02B0935E02BF9140
:100D5000AF919F918F913F912F910F900FBE0F9068
:100D60001F90189526E8230F0296A11DB11DD2CF22
:100D70001F920F920FB60F9211242F933F934F9310
:100D80005F936F937F938F939F93AF93BF93EF93F3
:100D9000FF93E0910301F09104010995FF91EF9118
:100DA000BF91AF919F918F917F916F915F914F9183
:100DB0003F912F910F900FBE0F901F9018951F928B
:100DC0000F920FB60F9211242F933F934F935F937F
:100DD0006F937F938F939F93AF93BF93EF93FF9303
:100DE000E0910101F09102010995FF91EF91BF910E
:100DF000AF919F918F917F916F915F914F913F91B3
:100E00002F910F900FBE0F901F901895E4E7F2E01E
:100E10001382128288EE93E0A0E0B0E08483958391
:100E2000A683B78380E191E09183808385EC90E095
:100E30009587848784EC90E09787868780EC90E0A4
:100E4000918B808B81EC90E0938B828B82EC90E095
:100E5000958B848B86EC90E0978B868B118E128E0F
:100E6000138E148E8CEA9DE09093120380931103ED
:100E70000895CF93DF93CDB7DEB7E5970FB6F8941B
:100E8000DEBF0FBECDBF789484B5826084BD84B5CB
:100E9000816084BD85B5826085BD85B5816085BD75
:100EA00080916E00816080936E001092810080912D
:100EB00081008260809381008091810081608093B5
:100EC0008100809180008160809380008091B100DA
:100ED00084608093B1008091B00081608093B00005
:100EE00080917A00846080937A0080917A00826099
:100EF00080937A0080917A00816080937A0080915B
:100F00007A00806880937A001092C100E091840298
:100F1000F091850282E08083E0918002F09181026D
:100F20001082E0918202F09183028FEC8083109214
:100F30008C02E0918802F091890286E08083E09142
:100F40008602F0918702808180618083E091860231
:100F5000F0918702808188608083E0918602F09121
:100F60008702808180688083E0918602F091870209
:100F700080818F7D808361E089E00E94D70261E0FB
:100F80008AE00E94D70262E087E00E94D70262E016
:100F900085E00E94D70262E084E00E94D70262E00E
:100FA00083E00E94D70262E082E00E94D70260E004
:100FB00089E00E94A90260E08AE00E94A902609193
:100FC000110370911203072E000C880B990B0E94DD
:100FD000730E20E030E049E153E40E94D20E20E09D
:100FE00030E04FE753E40E9437106B017C0120E0B2
:100FF00030E0A9010E94DF1020E030E040E05FE334
:1010000087FD95C0C701B6010E94CB0F0E94A910B1
:1010100070936B0260936A02CE0101960E940E05E6
:101020006091110370911203CE0182960E940E0509
:1010300065E771E0CE0188960E943A05BE016E5DBB
:101040007F4FCE0188960E94D00460E871E00E9434
:10105000BA0464E871E00E94BA04BE016F5F7F4F7A
:101060000E94D0040E949B03CE0188960E94250412
:10107000CE0182960E942504CE0101960E9425048D
:101080008BEE93E0909304018093030180916900BB
:10109000837F846080936900E99A8BE495E0909364
:1010A000020180930101809169008C7F82608093AE
:1010B0006900E89A90E0692E90E0792E55245394C7
:1010C000E0906E02F0906F02A0906C02B0906D0202
:1010D00060E271E0CE018E960E943A0560E271E016
:1010E000CE0188960E943A0560E271E0CE018296B8
:1010F0000E943A0584E792E00E94A801181619069A
:101100007CF560E271E0CE0101960E943A050E94F2
:101110005A0197FD11C08CAB1DAA41E050E0BE0101
:101120006C5C7F4FCE0101960E948E04F0CFC70108
:10113000B6010E94CA0F6ACFBE016F5F7F4FCE011A
:1011400082960E942D04CE0101960E9425044EA194
:101150005FA16AA17BA1CE0188960E948E04CACFAE
:10116000CE0182960E942504BE01685D7F4FCE01AC
:101170008E960E942D04CE0188960E94250462E975
:1011800071E0CE0101960E943A05BE016F5F7F4F6C
:10119000CE018E960E94F8038C01CE0101960E942A
:1011A00025040F3F1F4F39F00E948B0384E991E023
:1011B0000E94AE03B5C066EA71E0CE0101960E94BE
:1011C0003A05BE016F5F7F4FCE018E960E94F803F5
:1011D0008C01CE0101960E9425040F3F100739F0C3
:1011E000B701C5010E94C50388EA91E0E1CF66EB33
:1011F00071E0CE0101960E943A05BE016F5F7F4FFC
:10120000CE018E960E94F8036C01CE0101960E94D9
:101210002504CD20C09409F448C168EB71E0CE01EB
:1012200082960E943A0519A618A61BA61AA61DA604
:101230001CA66EA57FA56115710531F04AA95BA9B1
:10124000CE0188960E94E304CCA4DDA4C114D1048D
:1012500061F0E8A4F9A46AA17BA1C7010E94E5128C
:10126000009719F08C010E191F090F5F1F4FC01650
:10127000D10628F09C2D8D2D6801092F182F60E2D2
:1012800071E0CE0101960E943A05ECA4FDA4CE14B3
:10129000DF04E0F40E151F0508F47801E8A5F9A5B0
:1012A000EE0DFF1D1081108268A579A56C0D7D1DC6
:1012B000CE0101966115710509F4ACC00E940405C8
:1012C00088A599A5E80EF91EF7011083C980DA8078
:1012D000C114D10439F00D811E817601011511056B
:1012E00009F09CC089819A81C12CD12C760100978C
:1012F00019F00E94C00B6B01CE0101960E942504DB
:10130000CE0188960E942504CE0182960E94250473
:10131000A114B10409F4B8C0AA94AB2809F4BEC062
:10132000CE018E960E9425040E9465034B015C014C
:1013300088E2C82ED12CE12CF12C0E94650368199B
:1013400079098A099B09683E734081059105A8F3D4
:10135000E1E0CE1AD108E108F108F8EE8F0EF3E0D3
:101360009F1EA11CB11CC114D104E104F10429F792
:1013700084E00E948002892B09F0E5C060916E0232
:1013800070916F0280916C0290916D02892B09F02F
:10139000CFC081E090E090936D0280936C020E9438
:1013A000C5038EEE91E00E94AE03E0906A02F090D9
:1013B0006B028091680290916902019709F0EAC07E
:1013C00080910501882309F4E5C02FB7F894609156
:1013D00070027091710280917202909173022FBF1E
:1013E0000E94710E6093640270936502809366029E
:1013F0009093670250926302109205016114710488
:1014000009F45ECE0E94B401882309F459CE0E94EB
:10141000000056CE0E94130453CF74014701FFEF22
:101420008F1A9F0AF7018081082E000C990B0E94E9
:10143000580E892B91F7015011090C0D1D1DF80153
:101440008081082E000C990B0E94580E892B31F0D8
:101450000E151F0518F001501109F1CF0F5F1F4F36
:10146000A8014E195F095E834D83CE14DF0420F47A
:10147000B701C6010E94CC12E981FA818D819E815B
:10148000E80FF91F10822ECF70E060E08AE00E9422
:101490000803B60189E00E94080342CFB6018AE042
:1014A0000E94080370E060E0F5CF6AEB71E0CE01C6
:1014B00001960E943A05BE016F5F7F4FCE018E9666
:1014C0000E94F8038C01CE0101960E9425040F3F73
:1014D0001F4F61F081E090E090936D0280936C0269
:1014E000B7010E94C5038CEB91E062CE62ED71E022
:1014F000CE0101960E943A05BE016F5F7F4FCE017B
:101500008E960E94F8038C01CE0101960E9425045C
:101510000F3F1F4F09F404CF10926D0210926C021E
:10152000B70190E080E00E94C50384ED91E040CED9
:1015300010926D0210926C0290E080E00E94C50350
:1015400083E192E030CF87E00E94800200916C023C
:1015500010916D0267E571E0892B61F085E00E94D2
:101560008002892B09F021CF00916C0210916D024D
:1015700066E671E0CE0101960E943A05A80163E398
:1015800070E0CE0101960E949605CE0101960E9460
:1015900025040BCF8091680290916902029709F0AF
:1015A0002DCF2FB7F89460917002709171028091E5
:1015B0007202909173022FBF0E94710E20916402FB
:1015C0003091650240916602509167020E94CA0FF5
:1015D0004B015C0120E030E0A9010E94DF101816E9
:1015E00024F0B7FAB094B7F8B09480925F0290926A
:1015F0006002A0926102B09262021BA21AA21DA216
:101600001CA21FA21EA28E010F5F1F4F22E044E00A
:10161000C501B4010E94A20B009709F484C0BC016B
:10162000CE0182960E94040564E372E0CE01019629
:101630000E943A05BE016E5D7F4FCE0101960E9469
:10164000D0040E949B03CE0101960E942504CE0186
:1016500082960E94250410926902109268021092EC
:1016600063025092050120E030E040E051E46091D7
:101670005F027091600280916102909162020E940B
:10168000D20E9B01AC0160E070E68AE697E40E940E
:1016900037104B015C0120E030E0A9010E94DF100F
:1016A00020E030E040E05FE387FD42C0C501B401C7
:1016B0000E94CB0F0E94A91077FDA0CE6E157F056A
:1016C000E4F5CE0101960E940E05B701CE01829687
:1016D0000E940E0560E472E0CE0188960E943A05F1
:1016E000BE016E5D7F4FCE0188960E94D00460E8F7
:1016F00071E00E94BA046DE472E00E94BA04BE0177
:101700006F5F7F4F0E94D0040E949B03CE0188969A
:101710000E942504CE0182960E942504CE010196E6
:101720000E9425046BCECE0182960E9413047CCFCA
:10173000C501B4010E94CA0FBDCFE616F7060CF032
:101740005DCEBFCFEF920F931F93CF93DF93E8014E
:1017500034E047FD34E1042E000C550B57FF03C065
:10176000519541955109E32E022F242FAE010E947D
:10177000210CCE01DF91CF911F910F91EF90089531
:101780001F93FC0199278827BC01E894119110321E
:10179000E9F3193010F01E30C8F31B3251F01D323E
:1017A00049F4689406C00E94F20B610F711D811DFF
:1017B000911D119110531A30B0F33EF4909580951D
:1017C000709561957F4F8F4F9F4F1F910895BB2755
:1017D0004A3031F4992322F4BDE2909581959F4FD0
:1017E0000C94080C592F482F372F262F660F771F80
:1017F000881F991F660F771F881F991F620F731F1D
:10180000841F951F660F771F881F991F0895BB2798
:10181000FB015527AA27880F991FAA1FA41710F0AC
:10182000A41B83955051B9F7A05DAA3308F0A95DB8
:10183000A193009779F7B111B1931192CB010C9458
:10184000610EA9E0B0E0E7E2FCE00C94990F6A01B8
:10185000F22EB02E102FFBE3AF2EA01608F41BE3E0
:101860001F5F012F27E0AE014F5F5F4F0E94800D89
:10187000BC018981982F9970913009F43FC09BE297
:10188000E1FC04C09E2D9170E0FC3AC05E2D5071C9
:10189000E82FE87083FF46C084E0911101C083E027
:1018A000EF2DE81B8F1508F0E0E0D6018E2F20E227
:1018B000552351F1992329F0D6019C93C601019635
:1018C0006C0196012D5F3F4FE2FE24C08EE4D601ED
:1018D0008C9391E411969C93119712968C93D90155
:1018E0008E2F90E281111BC0E20FF32FF11D1082A9
:1018F0008EEF9FEF2996ECE00C94B50F9DE2C6CFDA
:1019000090E2C4CF2D9381508111FCCFCE0ED11C1B
:10191000E0E0D0CF8EE6D6018C9391E6DBCF9D93AD
:101920008150E0CF482F447082FF3DC084E0911188
:1019300001C083E08F1510F4EF2DE81BD6018E2F28
:1019400020E2552309F1992329F0D6019C93C60181
:1019500001966C0196012D5F3F4FE2FE1BC089E4AA
:10196000D6018C938EE411968C93119786E412968F
:101970008C93D9018E2F90E2882309F4B5CF9D93E3
:101980008150FACF2D9381508111FCCFCE0ED11C06
:10199000E0E0D9CF89E6D6018C938EE611968C9340
:1019A000119786E6E4CF9B0177FF02C030E020E08C
:1019B000A1E0B0E0911102C0B0E0A0E0F9013196E1
:1019C000AE0FBF1F8B2C912CBB2009F461C05401BA
:1019D000EFEFAE1ABE0AAA0DBB1DFA161B0619F0D0
:1019E00014F04F2D4A1B511188C0E3FC59C07601F9
:1019F000A42FB0E2A1114FC0C40ED11C992309F449
:101A00005BC040E0D6011196F60190836D0155232D
:101A100009F448C0012F060F9A81582F507184FF96
:101A200003C0913309F4015010160CF047C009307F
:101A300008F008E0EEE2FE2E5B01A01AB108850175
:101A40009194819491082F3F320729F4D601FC929A
:101A5000F60131966F016217730794F102171307AD
:101A60007CF5DB01A21BB30BAA24A394B12CAC0E12
:101A7000BD1EAA0DBB1D11968C9121503109D601B6
:101A8000119628153905F4F0F60180836D01DBCF3E
:101A9000B12CA12CA0CFF701B1937F01A150AACF07
:101AA0009111B0CFD601942F50E302C05D939150B5
:101AB0009111FCCFC40ED11C40E0ACCF01E0BACFF5
:101AC00080E3DBCF6217730731F4963388F49533E4
:101AD00011F4552369F0F6018083FD01842F90E213
:101AE000811108C0A40FB11D1C9290E080E002CFCC
:101AF00081E3F1CF91938150F3CF911183CF8ACFBE
:101B0000283008F027E03327DA01990F311D87FDCF
:101B1000916000966105710539F432602E5F3D9346
:101B200030E32A95E1F708959F3F30F08038710542
:101B3000610509F03C5F3C5F3D93913008F080689F
:101B4000911DDF93CF931F930F93FF92EF92192F65
:101B5000987F9695E92F96959695E90FFF27EE5376
:101B6000FF4F99273327EE24FF24A701E7010590B3
:101B70000894079428F4360FE71EF81E491F511DDC
:101B8000660F771F881F991F0694A1F70590079489
:101B900028F4E70EF81E491F561FC11D770F881F36
:101BA000991F661F0694A1F70590079428F4F80E74
:101BB000491F561FC71FD11D880F991F661F771F0A
:101BC0000694A1F70590079420F4490F561FC71FEC
:101BD000D81F990F661F771F881F0694A9F7849155
:101BE0001095177041F0D695C79557954795F7947E
:101BF000E7941A95C1F7E8E6F0E06894159015911E
:101C000035916591959105907FE27395E118F10A00
:101C1000430B560BC90BD009C0F7E10CF11E431F53
:101C2000561FC91FD01D7EF4703311F48A95E6CF7C
:101C3000E894015030F0080F0AF40027021708F466
:101C4000202F2395022F7A3328F079E37D932A956C
:101C5000E9F710C07D932A9589F6069497956795C4
:101C6000379517951794E118F10A430B560BC90BDA
:101C7000D00998F023957E9173957A3308F070E33C
:101C80007C932013B8F77E9170617D9330F083953B
:101C900071E37D9370E32A95E1F71124EF90FF90B3
:101CA0000F911F91CF91DF91992787FD909508950E
:101CB00091110C943F0F803219F089508550C8F76C
:101CC0000895DC01FC01672F71917723E1F73297CA
:101CD00004C07C916D9370836291AE17BF07C8F307
:101CE0000895E89409C097FB3EF49095809570950F
:101CF00061957F4F8F4F9F4F9923A9F0F92F96E958
:101D0000BB279395F695879577956795B795F111CC
:101D1000F8CFFAF4BB0F11F460FF1BC06F5F7F4F69
:101D20008F4F9F4F16C0882311F096E911C077237B
:101D300021F09EE8872F762F05C0662371F096E884
:101D4000862F70E060E02AF09A95660F771F881F53
:101D5000DAF7880F9695879597F90895990F0008F7
:101D6000550FAA0BE0E8FEEF16161706E807F9076D
:101D7000C0F012161306E407F50798F0621B730B08
:101D8000840B950B39F40A2661F0232B242B252B89
:101D900021F408950A2609F4A140A6958FEF811D2C
:101DA000811D08950E94E50E0C94590F0E944B0F5F
:101DB00038F00E94520F20F0952311F00C94420F3E
:101DC0000C94480F11240C948D0F0E946A0F70F32D
:101DD000959FC1F3950F50E0551F629FF001729FD0
:101DE000BB27F00DB11D639FAA27F00DB11DAA1FDF
:101DF000649F6627B00DA11D661F829F2227B00D2C
:101E0000A11D621F739FB00DA11D621F839FA00DB6
:101E1000611D221F749F3327A00D611D231F849F06
:101E2000600D211D822F762F6A2F11249F5750405D
:101E30009AF0F1F088234AF0EE0FFF1FBB1F661FD8
:101E4000771F881F91505040A9F79E3F510580F0A1
:101E50000C94420F0C948D0F5F3FE4F3983ED4F343
:101E6000869577956795B795F795E7959F5FC1F745
:101E7000FE2B880F911D9695879597F908959927C0
:101E80008827089597F99F6780E870E060E00895DB
:101E90009FEF80EC089500240A9416161706180682
:101EA0000906089500240A9412161306140605065E
:101EB0000895092E0394000C11F4882352F0BB0FEF
:101EC00040F4BF2B11F460FF04C06F5F7F4F8F4F52
:101ED0009F4F089557FD9058440F551F59F05F3F8D
:101EE00071F04795880F97FB991F61F09F3F79F03C
:101EF00087950895121613061406551FF2CF4695BE
:101F0000F1DF08C0161617061806991FF1CF86953F
:101F10007105610508940895E894BB276627772723
:101F2000CB0197F908952F923F924F925F926F9253
:101F30007F928F929F92AF92BF92CF92DF92EF9259
:101F4000FF920F931F93CF93DF93CDB7DEB7CA1BDA
:101F5000DB0B0FB6F894DEBF0FBECDBF09942A8805
:101F6000398848885F846E847D848C849B84AA84AD
:101F7000B984C884DF80EE80FD800C811B81AA813A
:101F8000B981CE0FD11D0FB6F894DEBF0FBECDBF05
:101F9000ED0108955058BB27AA270E94E20F0C9428
:101FA000590F0E944B0F38F00E94520F20F039F465
:101FB0009F3F19F426F40C94480F0EF4E095E7FBCC
:101FC0000C94420FE92F0E946A0F58F3BA17620768
:101FD00073078407950720F079F4A6F50C948C0F0D
:101FE0000EF4E0950B2EBA2FA02D0B01B901900134
:101FF0000C01CA01A0011124FF27591B99F0593F78
:1020000050F4503E68F11A16F040A22F232F342FBF
:102010004427585FF3CF469537952795A795F0400D
:102020005395C9F77EF41F16BA0B620B730B840B22
:10203000BAF09150A1F0FF0FBB1F661F771F881FDA
:10204000C2F70EC0BA0F621F731F841F48F4879532
:1020500077956795B795F7959E3F08F0B0CF939524
:10206000880F08F09927EE0F9795879508950E949D
:102070004B100C94590F0E94520F58F00E944B0FB6
:1020800040F029F45F3F29F00C94420F51110C9459
:102090008D0F0C94480F0E946A0F68F39923B1F3D7
:1020A000552391F3951B550BBB27AA27621773077E
:1020B000840738F09F5F5F4F220F331F441FAA1F12
:1020C000A9F335D00E2E3AF0E0E832D091505040CE
:1020D000E695001CCAF72BD0FE2F29D0660F771F7C
:1020E000881FBB1F261737074807AB07B0E809F062
:1020F000BB0B802DBF01FF2793585F4F3AF09E3FE7
:10210000510578F00C94420F0C948D0F5F3FE4F36F
:10211000983ED4F3869577956795B795F7959F5F29
:10212000C9F7880F911D9695879597F90895E1E075
:10213000660F771F881FBB1F621773078407BA07D4
:1021400020F0621B730B840BBA0BEE1F88F7E0952F
:1021500008950E94B0106894B1110C948D0F0895E9
:102160000E94720F88F09F5798F0B92F9927B751A6
:10217000B0F0E1F0660F771F881F991F1AF0BA952B
:10218000C9F714C0B13091F00E948C0FB1E00895EE
:102190000C948C0F672F782F8827B85F39F0B93FE0
:1021A000CCF3869577956795B395D9F73EF49095DE
:1021B0008095709561957F4F8F4F9F4F08950E9436
:1021C000AE0E08F48FEF0895EE0FFF1F0590F49107
:1021D000E02D09940F931F93CF93DF9382309105E5
:1021E00010F482E090E0E0911503F091160330E0E6
:1021F00020E0B0E0A0E0309799F42115310509F412
:102200004AC0281B390B24303105D8F58A819B81BF
:102210006115710589F1FB0193838283FE0111C071
:10222000408151810281138148175907E0F0481716
:10223000590799F4109761F012960C931297139620
:102240001C933296CF01DF91CF911F910F9108958A
:102250000093150310931603F4CF2115310551F0A7
:102260004217530738F0A901DB019A01BD01DF01D4
:10227000F801C1CFEF01F9CF9093160380931503B6
:10228000CDCFFE01E20FF31F8193919322503109CC
:1022900039832883D7CF2091130330911403232B44
:1022A00041F42091080130910901309314032093E7
:1022B000130320910601309107012115310541F4E6
:1022C0002DB73EB740910A0150910B01241B350BED
:1022D000E0911303F0911403E217F307A0F42E1B0F
:1022E0003F0B2817390778F0AC014E5F5F4F24177A
:1022F000350748F04E0F5F1F5093140340931303AC
:10230000819391939FCFF0E0E0E09CCFCF93DF9358
:102310000097E9F0FC01329713821282A091150315
:10232000B0911603ED0130E020E01097A1F4208178
:102330003181820F931F20911303309114032817CA
:10234000390709F061C0F0931403E0931303DF91A0
:10235000CF910895EA01CE17DF07E8F54A815B8146
:102360009E0141155105B1F7E901FB83EA834991CB
:102370005991C40FD51FEC17FD0761F4808191813D
:102380000296840F951FE901998388838281938146
:102390009B838A83F0E0E0E012968D919C911397E5
:1023A0000097B9F52D913C911197CD010296820FBE
:1023B000931F20911303309114032817390739F61E
:1023C000309751F51092160310921503B093140331
:1023D000A0931303BCCFD383C28340815181840F68
:1023E000951FC817D90761F44E5F5F4F88819981A7
:1023F000480F591F518340838A819B819383828335
:102400002115310509F0B0CFF0931603E0931503C1
:102410009ECFFD01DC01C0CF13821282D7CFB0E086
:10242000A0E0E5E1F2E10C94950F8C01009751F4E6
:10243000CB010E94EA108C01C801CDB7DEB7E0E104
:102440000C94B10FFC01E60FF71F9C0122503109DB
:10245000E217F30708F49DC0D901CD91DC911197E3
:10246000C617D70798F0C530D10530F3CE010497D1
:102470008617970708F3C61BD70B2297C193D193F2
:102480006D937C93CF010E948611D6CF5B01AC1A6D
:10249000BD0A4C018C0E9D1EA0911503B091160330
:1024A000512C412CF12CE12C109731F58091130324
:1024B000909114038815990509F05CC046165706DB
:1024C00008F058C08091060190910701009741F4EF
:1024D0008DB79EB740910A0150910B01841B950B5B
:1024E000E817F90708F055C0F0931403E0931303BD
:1024F000F90171836083A0CF8D919C911197129601
:102500006C90129713967C901397A815B90559F5FE
:102510006C0142E0C40ED11CCA14DB0420F1AC01F2
:102520004A195B09DA011296159780F0628273826C
:1025300051834083D9016D937C93E114F10471F0D0
:10254000D7011396FC93EE93129776CF22968C0FB9
:102550009D1FF90191838083F301EFCFF093160360
:10256000E093150369CF4816590608F42C017D0144
:10257000D3019ACFCB010E94EA107C01009749F069
:10258000AE01B8010E94CC12C8010E9486118701D9
:1025900053CF10E000E050CFFB01DC0102C00190FE
:1025A0000D9241505040D8F70895FB01DC018D9108
:1025B000019080190110D9F3990B0895FB01DC01FA
:1025C00001900D920020E1F70895FB0151915523F0
:1025D000A9F0BF01DC014D9145174111E1F759F414
:1025E000CD010190002049F04D9140154111C9F3F2
:1025F000FB014111EFCF81E090E001970895F8943D
:02260000FFCF0A
:10260200018A038A03010000170380000000000012
:10261200EA010A0137013702A80146019A010D0AAF
:10262200006F70C3A7C3A36F20696E65736973746B
:10263200656E746500506172616E646F206D6F76B5
:10264200696D656E746F0070756C7365204C616E98
:10265200C3A761646F3A002B002B56656C6F6369E8
:102662006461203D20002D002D56656C6F63696406
:1026720061203D200052504D206D6F746F7220001A
:10268200207C200052504D5F546172676574203D7A
:10269200200073003E3E2873292073746F70206DF2
:1026A20061742E2E2E0072003E3E28722920727511
:1026B2006E206D61740076002C0068003E3E286832
:1026C200292073656E7469646F20686F7261726924
:1026D2006F0061003E3E2861292073656E74696453
:1026E2006F20616E7469686F726172696F006D6FDD
:1026F200746F7220676972616E646F206E6F2073EF
:10270200656E7469646F20616E7469686F7261725C
:10271200696F004D6F746F7220676972616E646FCA
:10272200206E6F2073656E7469646F20686F7261CA
:1027320072696F00726F7461746554696D653A00F5
:10274200524D505F5461726765743A2000524D5089
:0A2752005F417475616C3A200000CD
:00000001FF
