:100000000C9462000C9457070C9430070C948A00EF
:100010000C948A000C948A000C948A000C948A0038
:100020000C948A000C948A000C948A000C948A0028
:100030000C948A000C948A000C948A000C948A0018
:100040000C94E6060C948A000C94B4060C948E066C
:100050000C948A000C948A000C948A000C948A00F8
:100060000C948A000C948A000000000024002700F1
:100070002A0000000000250028002B0000000000DE
:1000800023002600290004040404040404040202DA
:100090000202020203030303030301020408102007
:1000A0004080010204081020010204081020000012
:1000B0000008000201000003040700000000000027
:1000C00000007E0711241FBECFEFD8E0DEBFCDBFFA
:1000D00022E0A4E1B2E001C01D92A13DB207E1F728
:1000E00012E0A0E0B1E0EAE9FFE102C005900D9264
:1000F000A431B107D9F710E0C2E6D0E004C02197DF
:10010000FE010E94B00DC136D107C9F70E94B107A8
:100110000C94CB0F0C9400000895AF92BF92CF9235
:10012000DF92EF92FF920F931F93CF93DF936C01B7
:100130007B018B01040F151FEB015E01AE18BF0898
:10014000C017D10759F06991D601ED91FC9101904A
:10015000F081E02DC6010995892B79F7C501DF9162
:10016000CF911F910F91FF90EF90DF90CF90BF90B4
:10017000AF900895FC01538D448D252F30E0842FDE
:1001800090E0821B930B541710F0CF9608950197BF
:100190000895FC01918D828D981761F0A28DAE0FAC
:1001A000BF2FB11D5D968C91928D9F5F9F73928F33
:1001B00090E008958FEF9FEF08952FB7F894809106
:1001C0002A0290912B02A0912C02B0912D022FBFF8
:1001D0008093360290933702A0933802B09339028D
:1001E0008EE292E00E94C90097FF26C02FB7F894D4
:1001F00080912A0290912B02A0912C02B0912D02A5
:100200002FBF4091360250913702609138027091B1
:100210003902841B950BA60BB70B4091320250910B
:100220003302609134027091350284179507A60756
:10023000B707B0F28FEF9FEF0895FC01918D828D8B
:10024000981731F0828DE80FF11D858D90E00895AB
:100250008FEF9FEF0895FC01918D228D892F90E003
:10026000805C9F4F821B91098F73992708958EE2BE
:1002700092E00E942B0121E0892B09F420E0822FDB
:10028000089580E090E0892B29F00E9437018111C8
:100290000C9400000895FC01A48DA80FB92FB11D86
:1002A000A35ABF4F2C91848D90E001968F739927AC
:1002B000848FA689B7892C93A089B1898C9183708A
:1002C00080648C93938D848D981306C00288F38983
:1002D000E02D80818F7D80830895EF92FF920F93B0
:1002E0001F93CF93DF93EC0181E0888F9B8D8C8DE2
:1002F00098131AC0E889F989808185FF15C09FB7D6
:10030000F894EE89FF896083E889F9898081837098
:10031000806480839FBF81E090E0DF91CF911F9147
:100320000F91FF90EF900895F62E0B8D10E00F5F68
:100330001F4F0F731127E02E8C8D8E110CC00FB63E
:1003400007FCFACFE889F989808185FFF5CFCE01D6
:100350000E944B01F1CFEB8DEC0FFD2FF11DE35A05
:10036000FF4FF0829FB7F8940B8FEA89FB89808159
:100370008062CFCFCF93DF93EC01888D8823B9F0D3
:10038000AA89BB89E889F9898C9185FD03C08081A0
:1003900086FD0DC00FB607FCF7CF8C9185FFF2CF1D
:1003A000808185FFEDCFCE010E944B01E9CFDF9127
:1003B000CF910895833081F028F4813099F0823014
:1003C000A9F008958730A9F08830C9F08430B1F4DD
:1003D000809180008F7D03C0809180008F77809313
:1003E0008000089584B58F7784BD089584B58F7D8E
:1003F000FBCF8091B0008F778093B00008958091FB
:10040000B0008F7DF9CFCF93DF93282F30E0F90133
:10041000E255FF4F8491F901E656FF4FD491F9015F
:10042000EA57FF4FC491CC23A1F081110E94DA0159
:10043000EC2FF0E0EE0FFF1FE458FF4FA591B491B1
:10044000EC91ED2381E090E009F480E0DF91CF9121
:10045000089580E090E0FACF1F93CF93DF93282F89
:1004600030E0F901E255FF4F8491F901E656FF4F64
:10047000D491F901EA57FF4FC491CC23A9F0162F6C
:1004800081110E94DA01EC2FF0E0EE0FFF1FEE5811
:10049000FF4FA591B4918FB7F894EC91111108C05A
:1004A000D095DE23DC938FBFDF91CF911F9108950C
:1004B000DE2BF8CFCF93DF9390E0FC01E656FF4FA1
:1004C00024918A579F4FFC0184918823D1F090E0BA
:1004D000880F991FFC01E859FF4FA591B491FC01C9
:1004E000EE58FF4FC591D491623071F49FB7F894E4
:1004F0003C91822F809583238C93E8812E2B288337
:100500009FBFDF91CF9108958FB7F894EC912E2B78
:100510002C938FBFF6CF1F93CF93DF93182FEB0150
:1005200061E00E945A02209739F460E0812FDF9148
:10053000CF911F910C942C02CF3FD10511F461E0B3
:10054000F5CFE12FF0E0E255FF4FE491E33031F1D8
:1005500040F4E130B1F0E230E1F0C038D1057CF791
:10056000E4CFE73029F1E83059F1E430B1F7809178
:100570008000806280938000D0938B00C0938A00BB
:1005800004C084B5806884BDC7BDDF91CF911F9141
:10059000089584B5806284BDC8BDF7CF8091800086
:1005A000806880938000D0938900C0938800EDCF4D
:1005B0008091B00080688093B000C093B300E5CF15
:1005C0008091B00080628093B000C093B400DDCF12
:1005D0003FB7F89480911C0290911D02A0911E02D9
:1005E000B0911F0226B5A89B05C02F3F19F00196B8
:1005F000A11DB11D3FBFBA2FA92F982F8827BC017D
:10060000CD01620F711D811D911D42E0660F771FA4
:10061000881F991F4A95D1F70895089560E089E0F1
:100620000E942C0260E08AE00C942C020C940E03D1
:1006300042E050E06FE171E08EE292E00C948D00B8
:10064000CF93DF93FC0144815581608171818EE2FB
:1006500092E00E948D00EC010E9418038C0F9D1FF8
:10066000DF91CF910895CF93DF93FC01019000209B
:10067000E9F73197AF01481B590BBC018EE292E0BC
:100680000E948D00EC010E9418038C0F9D1FDF91CA
:10069000CF910895CF93DF93EB018130910581F0E5
:1006A0008330910599F0892BA9F470E060E08AE02D
:1006B0000E948B02BE0189E0DF91CF910C948B02E6
:1006C0008AE00E948B0270E060E0F5CFDF91CF916D
:1006D0000C940E0382E291E0DF91CF910C943303EE
:1006E000CF93DF93EC0188819981009711F00E94EC
:1006F000520E198218821D821C821B821A82DF917F
:10070000CF910895FC0180819181009711F00C94A4
:10071000520E08950F931F93CF93DF93EC018881BE
:100720009981009759F02A813B812617370730F0CD
:1007300081E0DF91CF911F910F9108958B016F5F41
:100740007F4F0E94DB0E009759F0998388831B83AB
:100750000A832C813D81232B59F7FC011082E8CFBD
:1007600080E0E7CFEF92FF920F931F93CF93DF9339
:100770006115710541F480E0DF91CF911F910F91D8
:10078000FF90EF90089541155105B1F07B01EC0108
:100790000C811D81040F151FB8010E948A03882354
:1007A00051F3288139818C819D81B701820F931F7C
:1007B0000E94AA0F1D830C8381E0DECFCF93DF93CD
:1007C000EC01FB0101900020E9F73197AF01461BD6
:1007D000570B0E94B203811103C0CE010E94700327
:1007E000CE01DF91CF910895CF93DF93EC01FB0110
:1007F00044815581608171810E94B203811103C0DF
:10080000CE010E947003CE01DF91CF910895EF9247
:10081000FF920F931F93CF93DF93EC017B018A012B
:10082000BA010E948A0381110BC0CE010E9470039D
:10083000CE01DF91CF911F910F91FF90EF9008951E
:100840001D830C83B701888199810E94AA0FF0CF84
:10085000EF92FF920F931F93CF93DF93CDB7DEB745
:1008600062970FB6F894DEBF0FBECDBF8C01CB01EF
:10087000F8011182108213821282158214824AE0DA
:100880009E012F5F3F4F7901B9010E94EA0AF701EB
:1008900001900020E9F73197AF014E195F09B701C8
:1008A000C8010E94070462960FB6F894DEBF0FBE1F
:1008B000CDBFDF91CF911F910F91FF90EF900895E1
:1008C000FC01118210821382128215821482FB01B4
:1008D00001900020E9F73197AF01461B570B0C94AC
:1008E0000704CF92DF92EF92FF92CF93DF93CDB7C1
:1008F000DEB762970FB6F894DEBF0FBECDBF609132
:10090000050170910601072E000C880B990B0E94BF
:100910003F0B6B017C016091CB027091CC02072EE2
:10092000000C880B990B0E943F0B9B01AC01C70187
:10093000B6010E949E0B20E030E04FE753E40E9496
:10094000030D6B017C0120E030E0A9010E94AB0D9A
:1009500020E030E040E05FE387FD4BC0C701B60117
:100960000E94970C0E94750D7093220260932102E1
:10097000CE010D960E9428046091CB027091CC02AA
:10098000CE0107960E94280466E371E0CE0101962D
:100990000E946004BE01695F7F4FCE0101960E94F4
:1009A000F40361E471E00E94DE0365E471E00E94FB
:1009B000DE03BE01635F7F4F0E94F4030E942003A9
:1009C000CE0101960E948203CE0107960E94820307
:1009D000CE010D960E94820362960FB6F894DEBF98
:1009E0000FBECDBFDF91CF91FF90EF90DF90CF9002
:1009F0000895C701B6010E94960CB4CFCF92DF9242
:100A0000EF92FF920F931F93CF93DF93CDB7DEB793
:100A10002C970FB6F894DEBF0FBECDBFFC0124812A
:100A20003581232BD1F18A017B01C080D18063E520
:100A300071E0C6010E94A10F892BF1F56091280297
:100A4000709129026F3F710544F56E0D7F1D709303
:100A5000290260932802C8010E944A03609128027B
:100A600070912902CE0107960E94280465E571E085
:100A7000CE0101960E946004BE01695F7F4FCE01E6
:100A800001960E94F4030E942003CE0101960E9469
:100A90008203CE0107960E9482032C960FB6F8942B
:100AA000DEBF0FBECDBFDF91CF911F910F91FF90A1
:100AB000EF90DF90CF90089562E671E0C6010E944A
:100AC000A10F892B51F76091280270912902161607
:100AD00017061CF76E197F0970932902609328028C
:100AE000C8010E944A036091280270912902CE0138
:100AF00007960E94280464E671E0BACF0F931F9313
:100B0000CF93DF9300D000D000D0CDB7DEB70091F7
:100B100026021091270262E671E0CE0101960E9442
:100B20006004A80165E070E0CE0101960E94FE0419
:100B3000CE0101960E94820326960FB6F894DEBF7E
:100B40000FBECDBFDF91CF911F910F910895CF922E
:100B5000DF92EF92FF920F931F93CF93DF9300D01A
:100B600000D000D0CDB7DEB780911A02811106C047
:100B70008091180290911902892B79F480911802C2
:100B80009091190202974CF48091180290911902E9
:100B900001969093190280931802009121021091FE
:100BA000220280911802909119020197B1F580916B
:100BB0000001882391F12FB7F89460912A02709177
:100BC0002B0280912C0290912D022FBF0E943D0B91
:100BD000609314027093150280931602909317028B
:100BE00081E080931A02109200018FEF9FEF9093A3
:100BF00024028093230281E08093250226960FB67B
:100C0000F894DEBF0FBECDBFDF91CF911F910F9142
:100C1000FF90EF90DF90CF9008958091180290910F
:100C20001902029711F72FB7F89460912A02709178
:100C30002B0280912C0290912D022FBF0E943D0B20
:100C40002091140230911502409116025091170222
:100C50000E94960C6B017C0120E030E0A9010E940B
:100C6000AB0D181624F0F7FAF094F7F8F094109200
:100C700019021092180210921A0281E0809300016A
:100C800020E030E040E051E4C701B6010E949E0B35
:100C90009B01AC0160E070E68AE697E40E94030DD8
:100CA0006B017C0120E030E0A9010E94AB0D20E047
:100CB00030E040E05FE387FD25C0C701B6010E9438
:100CC000970C0E94750D709324026093230277FDA8
:100CD00092CF60177107DCF4009126021091270271
:100CE00063E571E0CE0101960E946004A80165E011
:100CF00070E0CE0101960E94FE04CE0101960E9492
:100D0000820379CFC701B6010E94960CDACF06178D
:100D100017070CF070CF0E947E056DCF1F920F92C7
:100D20000FB60F9211242F933F934F935F936F93BE
:100D30007F938F939F93AF93BF93EF93FF938EE235
:100D400092E00E944B01FF91EF91BF91AF919F9173
:100D50008F917F916F915F914F913F912F910F9064
:100D60000FBE0F901F9018951F920F920FB60F9203
:100D700011242F938F939F93EF93FF93E0913E0263
:100D8000F0913F028081E0914402F091450282FDA2
:100D90001BC09081809147028F5F8F732091480222
:100DA000821741F0E0914702F0E0E25DFD4F958F40
:100DB00080934702FF91EF919F918F912F910F9018
:100DC0000FBE0F901F9018958081F4CF1F920F9245
:100DD0000FB60F9211242F933F938F939F93AF934E
:100DE000BF9380912A0290912B02A0912C02B09186
:100DF0002D0230911B0223E0230F2D3758F5019669
:100E0000A11DB11D20931B0280932A0290932B02F7
:100E1000A0932C02B0932D0280911C0290911D0290
:100E2000A0911E02B0911F020196A11DB11D8093D9
:100E30001C0290931D02A0931E02B0931F02BF914B
:100E4000AF919F918F913F912F910F900FBE0F9077
:100E50001F90189526E8230F0296A11DB11DD2CF31
:100E60001F920F920FB60F9211242F933F934F931F
:100E70005F936F937F938F939F93AF93BF93EF9302
:100E8000FF93E0910301F09104010995FF91EF9127
:100E9000BF91AF919F918F917F916F915F914F9192
:100EA0003F912F910F900FBE0F901F9018951F929A
:100EB0000F920FB60F9211242F933F934F935F938E
:100EC0006F937F938F939F93AF93BF93EF93FF9312
:100ED000E0910101F09102010995FF91EF91BF911D
:100EE000AF919F918F917F916F915F914F913F91C2
:100EF0002F910F900FBE0F901F901895EEE2F2E029
:100F00001382128288EE93E0A0E0B0E084839583A0
:100F1000A683B78381E191E09183808385EC90E0A3
:100F20009587848784EC90E09787868780EC90E0B3
:100F3000918B808B81EC90E0938B828B82EC90E0A4
:100F4000958B848B86EC90E0978B868B118E128E1E
:100F5000138E148E8EE391E09093CC028093CB029B
:100F60000895CF93DF93CDB7DEB768970FB6F894A7
:100F7000DEBF0FBECDBF789484B5826084BD84B5DA
:100F8000816084BD85B5826085BD85B5816085BD84
:100F900080916E00816080936E001092810080913C
:100FA00081008260809381008091810081608093C4
:100FB0008100809180008160809380008091B100E9
:100FC00084608093B1008091B00081608093B00014
:100FD00080917A00846080937A0080917A008260A8
:100FE00080937A0080917A00816080937A0080916A
:100FF0007A00806880937A001092C100E0913E02EE
:10100000F0913F0282E08083E0913A02F0913B024E
:101010001082E0913C02F0913D028FEC80831092AF
:101020004602E0914202F091430286E08083E09123
:101030004002F0914102808180618083E091400212
:10104000F0914102808188608083E0914002F091BC
:101050004102808180688083E0914002F0914102EA
:1010600080818F7D808361E089E00E945A0261E087
:101070008AE00E945A0262E087E00E945A0262E01F
:1010800085E00E945A0262E084E00E945A0262E017
:1010900083E00E945A0262E082E00E945A0260E00D
:1010A00089E00E942C0260E08AE00E942C020E94EB
:1010B000710486E193E09093040180930301809191
:1010C0006900837F846080936900E99A87EA95E0EC
:1010D0009093020180930101809169008C7F82606E
:1010E00080936900E89A90E0A92E90E0B92EE090F4
:1010F0002802F0902902009126021091270261E255
:1011000071E0CE0143960E94600461E271E0CE017D
:1011100007960E9460048EE292E00E942B0118164E
:1011200019060CF04EC061E271E0CE0101960E94FA
:1011300060040E94DD0097FD0CC08D871E8641E093
:1011400050E0BE01635F7F4FCE0101960E94B20363
:10115000F0CF8F819885009719F169817A816115A7
:101160007105E1F049855A852D813E81421753076B
:10117000A8F00E94AA0F8D819E819C878B871E827A
:101180001D82CE0101960E9482034B855C856F8192
:101190007885CE0143960E94B203BDCF0E94520EC5
:1011A00089819A8198878F838B819C819A8789878F
:1011B0008D819E819C878B871A8219821C821B825B
:1011C000DECFCE0107960E94820361E771E0CE0177
:1011D00001960E946004BE016D5E7F4FCE010196B4
:1011E0000E94F4030E942003CE0101960E94820314
:1011F0008F89988D892B21F0EB89FC89309721F418
:1012000010922002E0E2F2E08081833761F08637BD
:1012100009F4A2C0823769F4B701C8010E944A03E9
:1012200087E891E004C00E940E0385E791E00E94E8
:101230003303CE0143960E9482030E94E8022B01F1
:101240003C0188E2C82ED12CE12CF12C0E94E8024E
:101250006419750986099709683E734081059105EF
:10126000A8F3F1E0CF1AD108E108F10828EE420E08
:1012700023E0521E611C711CC114D104E104F1046D
:1012800029F784E00E940302892B09F058C160917C
:101290002802709129028091260290912702892BC1
:1012A00009F042C181E090E09093270280932602EA
:1012B0000E944A0385EB91E00E943303809125024E
:1012C0008823F1F16091230270912402161617060B
:1012D000BCF50091210210912202CE0101960E94DC
:1012E0002804B801CE0107960E9428046BEF71E034
:1012F000CE010D960E946004BE01695F7F4FCE0152
:101300000D960E94F40361E471E00E94DE0368E040
:1013100072E00E94DE03BE016F5F7F4F0E94F40304
:101320000E942003CE010D960E948203CE010796F3
:101330000E948203CE0101960E9482031092250230
:10134000A114B10409F4D3CE0E943701882309F413
:10135000CECE0E940000CBCE65E971E0CE010796AB
:101360000E9460041E861D86188A1F861A8A198AA2
:101370006B897C896115710531F04F89588DCE01DB
:101380000D960E940704C988DA88C114D10409F4B3
:101390008CC00D851E856F817885C8010E94B10FB4
:1013A000009709F482C09C01201B310B89010F5F5B
:1013B0001F4FC016D10628F09C2D8D2D6801092FD6
:1013C000182F61E271E0CE0101960E946004E98865
:1013D000FA88CE14DF0420F50E151F0508F47801F5
:1013E000ED85FE85EE0DFF1D108110826D857E85D9
:1013F0006C0D7D1D6115710509F45AC0FB0101904A
:101400000020E9F73197AF01461B570BCE0101963B
:101410000E9407048D859E85E80EF91EF701108352
:10142000C980DA80C114D10439F00D811E817601A2
:101430000115110509F042C089819A81C12CD12C76
:101440007601009719F00E94C30A6B01CE01019644
:101450000E948203CE010D960E948203CE01079660
:101460000E948203D0920601C09205010E9471047D
:10147000B601CE0101960E94280467E971E0CE0111
:1014800007960E946004BE016F5F7F4FCE010796F2
:101490000E94F4030E942003CE0107960E9482035B
:1014A000CE0101960E948203C4CE0FEF1FEF7FCFC3
:1014B000CE0101960E947003ADCF73013701FFEF9B
:1014C0006F1A7F0AF7018081082E000C990B0E9489
:1014D000240B892B91F7015011090C0D1D1DF801EA
:1014E0008081082E000C990B0E94240B892B31F06F
:1014F0000E151F0518F001501109F1CFA8014F5F1B
:101500005F4F4E195F095E834D83CE14DF0420F4D4
:10151000B701C6010E94980FE981FA818D819E81F1
:10152000E80FF91F108288CF10922702109226022E
:1015300090E080E00E944A038AED91E0BDCE87E012
:101540000E940302892BB1F4009126021091270218
:1015500063E571E0CE0101960E946004A80165E098
:1015600070E0CE0101960E94FE04CE0101960E9419
:101570008203A4CE85E00E940302892B09F09ECE4F
:101580000E947E059BCE1F93FC0199278827BC01F2
:10159000E89411911032E9F3193010F01E30C8F3BD
:1015A0001B3251F01D3249F4689406C00E94F50ABE
:1015B000610F711D811D911D119110531A30B0F3EF
:1015C0003EF490958095709561957F4F8F4F9F4F1A
:1015D0001F910895BB274A3031F4992322F4BDE2CC
:1015E000909581959F4F0C940B0B592F482F372FB7
:1015F000262F660F771F881F991F660F771F881F7A
:10160000991F620F731F841F951F660F771F881F16
:10161000991F0895BB27FB015527AA27880F991FFB
:10162000AA1FA41710F0A41B83955051B9F7A05D11
:10163000AA3308F0A95DA193009779F7B111B1938E
:101640001192CB010C942D0B91110C940B0C803248
:1016500019F089508550C8F70895DC01FC01672F07
:1016600071917723E1F7329704C07C916D93708379
:101670006291AE17BF07C8F30895E89409C097FBBD
:101680003EF490958095709561957F4F8F4F9F4F59
:101690009923A9F0F92F96E9BB279395F69587959D
:1016A00077956795B795F111F8CFFAF4BB0F11F460
:1016B00060FF1BC06F5F7F4F8F4F9F4F16C0882307
:1016C00011F096E911C0772321F09EE8872F762F3D
:1016D00005C0662371F096E8862F70E060E02AF07E
:1016E0009A95660F771F881FDAF7880F969587956A
:1016F00097F90895990F0008550FAA0BE0E8FEEF3F
:1017000016161706E807F907C0F012161306E407C5
:10171000F50798F0621B730B840B950B39F40A26BE
:1017200061F0232B242B252B21F408950A2609F49C
:10173000A140A6958FEF811D811D08950E94B10BD8
:101740000C94250C0E94170C38F00E941E0C20F0FF
:10175000952311F00C940E0C0C94140C11240C9481
:10176000590C0E94360C70F3959FC1F3950F50E011
:10177000551F629FF001729FBB27F00DB11D639F43
:10178000AA27F00DB11DAA1F649F6627B00DA11DE9
:10179000661F829F2227B00DA11D621F739FB00D8F
:1017A000A11D621F839FA00D611D221F749F3327FF
:1017B000A00D611D231F849F600D211D822F762F98
:1017C0006A2F11249F5750409AF0F1F088234AF075
:1017D000EE0FFF1FBB1F661F771F881F91505040E1
:1017E000A9F79E3F510580F00C940E0C0C94590CF7
:1017F0005F3FE4F3983ED4F3869577956795B79568
:10180000F795E7959F5FC1F7FE2B880F911D969581
:10181000879597F9089599278827089597F99F67DD
:1018200080E870E060E008959FEF80EC0895002468
:101830000A941616170618060906089500240A9435
:1018400012161306140605060895092E0394000CBB
:1018500011F4882352F0BB0F40F4BF2B11F460FF4A
:1018600004C06F5F7F4F8F4F9F4F089557FD905873
:10187000440F551F59F05F3F71F04795880F97FB54
:10188000991F61F09F3F79F087950895121613060E
:101890001406551FF2CF4695F1DF08C0161617063D
:1018A0001806991FF1CF8695710561050894089572
:1018B000E894BB2766277727CB0197F908952F92E5
:1018C0003F924F925F926F927F928F929F92AF92D0
:1018D000BF92CF92DF92EF92FF920F931F93CF931D
:1018E000DF93CDB7DEB7CA1BDB0B0FB6F894DEBFB4
:1018F0000FBECDBF09942A88398848885F846E84DA
:101900007D848C849B84AA84B984C884DF80EE8023
:10191000FD800C811B81AA81B981CE0FD11D0FB62C
:10192000F894DEBF0FBECDBFED0108955058BB2720
:10193000AA270E94AE0C0C94250C0E94170C38F0BC
:101940000E941E0C20F039F49F3F19F426F40C94E9
:10195000140C0EF4E095E7FB0C940E0CE92F0E949A
:10196000360C58F3BA17620773078407950720F0FF
:1019700079F4A6F50C94580C0EF4E0950B2EBA2FC2
:10198000A02D0B01B90190010C01CA01A001112485
:10199000FF27591B99F0593F50F4503E68F11A1631
:1019A000F040A22F232F342F4427585FF3CF4695C2
:1019B00037952795A795F0405395C9F77EF41F16E4
:1019C000BA0B620B730B840BBAF09150A1F0FF0FAE
:1019D000BB1F661F771F881FC2F70EC0BA0F621F9A
:1019E000731F841F48F4879577956795B795F7958A
:1019F0009E3F08F0B0CF9395880F08F09927EE0F1F
:101A00009795879508950E94170D0C94250C0E94B8
:101A10001E0C58F00E94170C40F029F45F3F29F08B
:101A20000C940E0C51110C94590C0C94140C0E9433
:101A3000360C68F39923B1F3552391F3951B550B9D
:101A4000BB27AA2762177307840738F09F5F5F4F91
:101A5000220F331F441FAA1FA9F335D00E2E3AF0D0
:101A6000E0E832D091505040E695001CCAF72BD0E8
:101A7000FE2F29D0660F771F881FBB1F2617370739
:101A80004807AB07B0E809F0BB0B802DBF01FF276B
:101A900093585F4F3AF09E3F510578F00C940E0C2E
:101AA0000C94590C5F3FE4F3983ED4F386957795F8
:101AB0006795B795F7959F5FC9F7880F911D969524
:101AC000879597F90895E1E0660F771F881FBB1F80
:101AD000621773078407BA0720F0621B730B840B2D
:101AE000BA0BEE1F88F7E09508950E947C0D68946C
:101AF000B1110C94590C08950E943E0C88F09F5728
:101B000098F0B92F9927B751B0F0E1F0660F771F21
:101B1000881F991F1AF0BA95C9F714C0B13091F017
:101B20000E94580CB1E008950C94580C672F782F40
:101B30008827B85F39F0B93FCCF3869577956795DC
:101B4000B395D9F73EF490958095709561957F4F48
:101B50008F4F9F4F08950E947A0B08F48FEF0895DE
:101B6000EE0FFF1F0590F491E02D09940F931F9342
:101B7000CF93DF938230910510F482E090E0E09102
:101B8000CF02F091D00230E020E0B0E0A0E030974A
:101B900099F42115310509F44AC0281B390B24306A
:101BA0003105D8F58A819B816115710589F1FB01A9
:101BB00093838283FE0111C0408151810281138190
:101BC00048175907E0F04817590799F4109761F042
:101BD00012960C93129713961C933296CF01DF91B5
:101BE000CF911F910F9108950093CF021093D002CF
:101BF000F4CF2115310551F04217530738F0A901F0
:101C0000DB019A01BD01DF01F801C1CFEF01F9CF7E
:101C10009093D0028093CF02CDCFFE01E20FF31F4D
:101C2000819391932250310939832883D7CF209112
:101C3000CD023091CE02232B41F420910901309145
:101C40000A013093CE022093CD02209107013091FA
:101C500008012115310541F42DB73EB740910B0124
:101C600050910C01241B350BE091CD02F091CE0276
:101C7000E217F307A0F42E1B3F0B2817390778F063
:101C8000AC014E5F5F4F2417350748F04E0F5F1FC2
:101C90005093CE024093CD02819391939FCFF0E079
:101CA000E0E09CCFCF93DF930097E9F0FC013297FF
:101CB00013821282A091CF02B091D002ED0130E0E8
:101CC00020E01097A1F420813181820F931F209191
:101CD000CD023091CE022817390709F061C0F09388
:101CE000CE02E093CD02DF91CF910895EA01CE17A5
:101CF000DF07E8F54A815B819E0141155105B1F787
:101D0000E901FB83EA8349915991C40FD51FEC1770
:101D1000FD0761F4808191810296840F951FE9018E
:101D200099838883828193819B838A83F0E0E0E0BA
:101D300012968D919C9113970097B9F52D913C9136
:101D40001197CD010296820F931F2091CD02309101
:101D5000CE022817390739F6309751F51092D00284
:101D60001092CF02B093CE02A093CD02BCCFD3830A
:101D7000C28340815181840F951FC817D90761F430
:101D80004E5F5F4F88819981480F591F518340836F
:101D90008A819B81938382832115310509F0B0CF1D
:101DA000F093D002E093CF029ECFFD01DC01C0CFC3
:101DB00013821282D7CFB0E0A0E0E1EEFEE00C94F7
:101DC000610C8C01009751F4CB010E94B60D8C017F
:101DD000C801CDB7DEB7E0E10C947D0CFC01E60F45
:101DE000F71F9C0122503109E217F30708F49DC048
:101DF000D901CD91DC911197C617D70798F0C5305E
:101E0000D10530F3CE0104978617970708F3C61B58
:101E1000D70B2297C193D1936D937C93CF010E94EE
:101E2000520ED6CF5B01AC1ABD0A4C018C0E9D1E22
:101E3000A091CF02B091D002512C412CF12CE12C79
:101E4000109731F58091CD029091CE0288159905B9
:101E500009F05CC04616570608F058C0809107018B
:101E600090910801009741F48DB79EB740910B0106
:101E700050910C01841B950BE817F90708F055C029
:101E8000F093CE02E093CD02F90171836083A0CF7D
:101E90008D919C91119712966C90129713967C904D
:101EA0001397A815B90559F56C0142E0C40ED11C71
:101EB000CA14DB0420F1AC014A195B09DA0112965D
:101EC000159780F06282738251834083D9016D93AC
:101ED0007C93E114F10471F0D7011396FC93EE9317
:101EE000129776CF22968C0F9D1FF90191838083E4
:101EF000F301EFCFF093D002E093CF0269CF481601
:101F0000590608F42C017D01D3019ACFCB010E9420
:101F1000B60D7C01009749F0AE01B8010E94980F00
:101F2000C8010E94520E870153CF10E000E050CF4D
:101F3000FB01DC0102C001900D9241505040D8F7E6
:101F40000895FB01DC018D91019080190110D9F3F6
:101F5000990B0895FB01DC0101900D920020E1F73F
:101F60000895FB0151915523A9F0BF01DC014D916A
:101F700045174111E1F759F4CD010190002049F0D6
:101F80004D9140154111C9F3FB014111EFCF81E0A3
:0A1F900090E001970895F894FFCF48
:101F9A00010D030D0399000000D10280000000002A
:101FAA00006D018D00BA00BA012B01C9001D010D97
:101FBA000A006F70C3A7C3A36F20696E6573697344
:101FCA0074656E74650052504D206D6F746F722087
:101FDA0000207C200052504D5F5461726765742066
:101FEA003D20002B002B56656C6F63696461203DB0
:101FFA0020002D002D56656C6F63696461203D20B9
:10200A00003E3E20003E3E2873292073746F7020E4
:10201A006D61742E2E2E003E3E2872292072756E36
:10202A00206D6174002C003E3E2876292073657469
:10203A0061722076656C6F636964616465207061A2
:10204A0072613A20006D6F746F7220676972616EF7
:10205A00646F206E6F2073656E7469646F20616EA1
:10206A007469686F726172696F004D6F746F722064
:10207A00676972616E646F206E6F2073656E746932
:10208A00646F20686F726172696F00524D505F54BD
:10209A0061726765743A2000524D505F41747561F0
:0420AA006C3A20006C
:00000001FF
