:020000040000FA
:100000000C9462000C94F3050C94CC050C948A00BB
:100010000C948A000C948A000C948A000C948A0038
:100020000C948A000C948A000C948A000C948A0028
:100030000C948A000C948A000C948A000C948A0018
:100040000C9482050C948A000C9450050C942A059B
:100050000C948A000C948A000C948A000C948A00F8
:100060000C948A000C948A000000000024002700F1
:100070002A0000000000250028002B0000000000DE
:1000800023002600290004040404040404040202DA
:100090000202020203030303030301020408102007
:1000A0004080010204081020010204081020000012
:1000B0000008000201000003040700000000000027
:1000C0000000ED0711241FBECFEFD8E0DEBFCDBF8B
:1000D00022E0A0EDB1E001C01D92AE37B207E1F71A
:1000E00011E0A0E0B1E0E6E4F5E102C005900D9278
:1000F000A03DB107D9F710E0C2E6D0E004C02197D7
:10010000FE010E948608C136D107C9F70E941A066F
:100110000C94A10A0C9400000895AF92BF92CF9264
:10012000DF92EF92FF920F931F93CF93DF936C01B7
:100130007B018B01040F151FEB015E01AE18BF0898
:10014000C017D10759F06991D601ED91FC9101904A
:10015000F081E02DC6010995892B79F7C501DF9162
:10016000CF911F910F91FF90EF90DF90CF90BF90B4
:10017000AF900895FC01538D448D252F30E0842FDE
:1001800090E0821B930B541710F0CF9608950197BF
:100190000895FC01918D828D981761F0A28DAE0FAC
:1001A000BF2FB11D5D968C91928D9F5F9F73928F33
:1001B00090E008958FEF9FEF08952FB7F894809106
:1001C000D9019091DA01A091DB01B091DC012FBF40
:1001D0008093E5019093E601A093E701B093E801D5
:1001E0008DED91E00E94C90097FF26C02FB7F894CB
:1001F0008091D9019091DA01A091DB01B091DC01ED
:100200002FBF4091E5015091E6016091E7017091A7
:10021000E801841B950BA60BB70B4091E1015091AF
:10022000E2016091E3017091E40184179507A6074C
:10023000B707B0F28FEF9FEF0895FC01918D828D8B
:10024000981731F0828DE80FF11D858D90E00895AB
:100250008FEF9FEF0895FC01918D228D892F90E003
:10026000805C9F4F821B91098F73992708958DEDB4
:1002700091E00E942B0121E0892B09F420E0822FDC
:10028000089580E090E0892B29F00E9437018111C8
:100290000C9400000895FC01A48DA80FB92FB11D86
:1002A000A35ABF4F2C91848D90E001968F739927AC
:1002B000848FA689B7892C93A089B1898C9183708A
:1002C00080648C93938D848D981306C00288F38983
:1002D000E02D80818F7D80830895EF92FF920F93B0
:1002E0001F93CF93DF93EC0181E0888F9B8D8C8DE2
:1002F00098131AC0E889F989808185FF15C09FB7D6
:10030000F894EE89FF896083E889F9898081837098
:10031000806480839FBF81E090E0DF91CF911F9147
:100320000F91FF90EF900895F62E0B8D10E00F5F68
:100330001F4F0F731127E02E8C8D8E110CC00FB63E
:1003400007FCFACFE889F989808185FFF5CFCE01D6
:100350000E944B01F1CFEB8DEC0FFD2FF11DE35A05
:10036000FF4FF0829FB7F8940B8FEA89FB89808159
:100370008062CFCFCF93DF93EC01888D8823B9F0D3
:10038000AA89BB89E889F9898C9185FD03C08081A0
:1003900086FD0DC00FB607FCF7CF8C9185FFF2CF1D
:1003A000808185FFEDCFCE010E944B01E9CFDF9127
:1003B000CF910895833081F028F4813099F0823014
:1003C000A9F008958730A9F08830C9F08430B1F4DD
:1003D000809180008F7D03C0809180008F77809313
:1003E0008000089584B58F7784BD089584B58F7D8E
:1003F000FBCF8091B0008F778093B00008958091FB
:10040000B0008F7DF9CFCF93DF93282F30E0F90133
:10041000E255FF4F8491F901E656FF4FD491F9015F
:10042000EA57FF4FC491CC23A1F081110E94DA0159
:10043000EC2FF0E0EE0FFF1FE458FF4FA591B491B1
:10044000EC91ED2381E090E009F480E0DF91CF9121
:10045000089580E090E0FACF1F93CF93DF93282F89
:1004600030E0F901E255FF4F8491F901E656FF4F64
:10047000D491F901EA57FF4FC491CC23A9F0162F6C
:1004800081110E94DA01EC2FF0E0EE0FFF1FEE5811
:10049000FF4FA591B4918FB7F894EC91111108C05A
:1004A000D095DE23DC938FBFDF91CF911F9108950C
:1004B000DE2BF8CFCF93DF9390E0FC01E656FF4FA1
:1004C00024918A579F4FFC0184918823D1F090E0BA
:1004D000880F991FFC01E859FF4FA591B491FC01C9
:1004E000EE58FF4FC591D491623071F49FB7F894E4
:1004F0003C91822F809583238C93E8812E2B288337
:100500009FBFDF91CF9108958FB7F894EC912E2B78
:100510002C938FBFF6CF1F93CF93DF93182FEB0150
:1005200061E00E945A02209739F460E0812FDF9148
:10053000CF911F910C942C02CF3FD10511F461E0B3
:10054000F5CFE12FF0E0E255FF4FE491E33031F1D8
:1005500040F4E130B1F0E230E1F0C038D1057CF791
:10056000E4CFE73029F1E83059F1E430B1F7809178
:100570008000806280938000D0938B00C0938A00BB
:1005800004C084B5806884BDC7BDDF91CF911F9141
:10059000089584B5806284BDC8BDF7CF8091800086
:1005A000806880938000D0938900C0938800EDCF4D
:1005B0008091B00080688093B000C093B300E5CF15
:1005C0008091B00080628093B000C093B400DDCF12
:1005D0003FB7F8948091D3019091D401A091D501B7
:1005E000B091D60126B5A89B05C02F3F19F0019602
:1005F000A11DB11D3FBFBA2FA92F982F8827BC017D
:10060000CD01620F711D811D911D42E0660F771FA4
:10061000881F991F4A95D1F708958F929F92AF92A4
:10062000BF92CF92DF92EF92FF920E94E8024B01BD
:100630005C0188E2C82ED12CE12CF12C0E94E8024A
:10064000681979098A099B09683E734081059105FB
:10065000A8F321E0C21AD108E108F10888EE880E5B
:1006600083E0981EA11CB11CC114D104E104F10463
:1006700029F7FF90EF90DF90CF90BF90AF909F90C1
:100680008F90089508958DED91E00E942B0118162A
:1006900019062CF48DED91E00E94C900F4CF089565
:1006A00060E089E00E942C0260E08AE00C942C0259
:1006B00042E050E06DE171E08DED91E00C948D0031
:1006C000CF93DF93FC0101900020E9F73197AF0150
:1006D000481B590BBC018DED91E00E948D00EC018F
:1006E0000E9458038C0F9D1FDF91CF910895813098
:1006F000910589F083309105C9F0892BC9F470E028
:1007000060E08AE00E948B026091D0017091D1017B
:1007100089E00C948B0270E060E089E00E948B021B
:100720006091D0017091D1018AE0F3CF0C94500315
:1007300080E291E00C94600380910001811106C079
:1007400084E391E00E9460030C9450031092000136
:100750000895CF93DF93FC014481558160817181BD
:100760008DED91E00E948D00EC010E9458038C0FEA
:100770009D1FDF91CF910895CF93DF93EC01888186
:100780009981009711F00E942809198218821D8210
:100790001C821B821A82DF91CF910895FC01808117
:1007A0009181009711F00C94280908950F931F93DD
:1007B000CF93DF93EC0188819981009759F02A81CA
:1007C0003B812617370730F081E0DF91CF911F91F1
:1007D0000F9108958B016F5F7F4F0E94B1090097C1
:1007E00059F0998388831B830A832C813D81232BB5
:1007F00059F7FC011082E8CF80E0E7CFCF92DF927B
:10080000EF92FF920F931F93CF93DF93CDB7DEB795
:1008100062970FB6F894DEBF0FBECDBF8C01CB013F
:10082000F8011182108213821282158214824AE02A
:100830009E012F5F3F4F6901B9010E941A08F6011E
:1008400001900020E9F731977F01EC18FD08B7010E
:10085000C8010E94D603811112C0C8010E94BC03C6
:1008600062960FB6F894DEBF0FBECDBFDF91CF9179
:100870001F910F91FF90EF90DF90CF900895F801B6
:10088000F582E482B601808191810E94800AE8CFDE
:10089000EF92FF920F931F93CF93DF936115710532
:1008A00041F480E0DF91CF911F910F91FF90EF9085
:1008B000089541155105B1F07B01EC010C811D81BA
:1008C000040F151FB8010E94D603882351F3288115
:1008D00039818C819D81B701820F931F0E94800A0C
:1008E0001D830C8381E0DECFEF92FF920F931F9365
:1008F000CF93DF93EC017B01198218821B821A824D
:100900001D821C82FB0101900020E9F731978F01C5
:10091000061B170BB8010E94D603811109C0CE0136
:10092000DF91CF911F910F91FF90EF900C94BC033A
:100930001D830C83B70188819981DF91CF911F912D
:100940000F91FF90EF900C94800A0F931F93CF9319
:10095000DF93CDB7DEB72C970FB6F894DEBF0FBE8E
:10096000CDBFFC0124813581232B09F444C00081D3
:10097000118166E471E0C8010E94770A892B09F0B1
:1009800045C08091D0019091D1018F3F91059CF598
:10099000C3969093D1018093D0018091D70190911B
:1009A000D8010E9477036091D0017091D101CE01EE
:1009B00007960E94FE0368E471E0CE0101960E9452
:1009C00074044B855C856F817885CE0101960E9409
:1009D0004804811104C0CE0101960E94BC03CE01DF
:1009E00001960E94A903CE0101960E94CE03CE017A
:1009F00007960E94CE032C960FB6F894DEBF0FBE6A
:100A0000CDBFDF91CF911F910F91089565E571E002
:100A1000C8010E94770A892B71F78091D0019091CB
:100A2000D101181619063CF7C3979093D101809312
:100A3000D0018091D7019091D8010E9477036091F5
:100A4000D0017091D101CE0107960E94FE0367E5A7
:100A500071E0B3CF1F920F920FB60F9211242F9314
:100A60003F934F935F936F937F938F939F93AF9336
:100A7000BF93EF93FF938DED91E00E944B01FF91A7
:100A8000EF91BF91AF919F918F917F916F915F9106
:100A90004F913F912F910F900FBE0F901F9018957F
:100AA0001F920F920FB60F9211242F938F939F9343
:100AB000EF93FF93E091ED01F091EE018081E091E1
:100AC000F301F091F40182FD1BC090818091F60149
:100AD0008F5F8F732091F701821741F0E091F6014B
:100AE000F0E0E352FE4F958F8093F601FF91EF9176
:100AF0009F918F912F910F900FBE0F901F9018957F
:100B00008081F4CF1F920F920FB60F9211242F9372
:100B10003F938F939F93AF93BF938091D90190910F
:100B2000DA01A091DB01B091DC013091D20123E028
:100B3000230F2D3758F50196A11DB11D2093D20129
:100B40008093D9019093DA01A093DB01B093DC018B
:100B50008091D3019091D401A091D501B091D6019B
:100B60000196A11DB11D8093D3019093D401A09350
:100B7000D501B093D601BF91AF919F918F913F91D5
:100B80002F910F900FBE0F901F90189526E8230FFE
:100B90000296A11DB11DD2CF1F920F920FB60F92D8
:100BA00011242F933F934F935F936F937F938F9372
:100BB0009F93AF93BF93EF93FF93E0910301F09165
:100BC00004010995FF91EF91BF91AF919F918F9192
:100BD0007F916F915F914F913F912F910F900FBE39
:100BE0000F901F9018951F920F920FB60F9211241D
:100BF0002F933F934F935F936F937F938F939F9325
:100C0000AF93BF93EF93FF93E0910101F091020145
:100C10000995FF91EF91BF91AF919F918F917F9136
:100C20006F915F914F913F912F910F900FBE0F9059
:100C30001F901895CF93DF93CDB7DEB764970FB6AB
:100C4000F894DEBF0FBECDBF789484B5826084BDBA
:100C500084B5816084BD85B5826085BD85B58160C0
:100C600085BD80916E00816080936E00109281003E
:100C700080918100826080938100809181008160F9
:100C800080938100809180008160809380008091BA
:100C9000B10084608093B1008091B0008160809346
:100CA000B00080917A00846080937A0080917A000D
:100CB000826080937A0080917A00816080937A00CC
:100CC00080917A00806880937A001092C100E09150
:100CD000ED01F091EE0182E08083E091E901F09175
:100CE000EA011082E091EB01F091EC018FEC80833E
:100CF0001092F501E091F101F091F20186E080831C
:100D0000E091EF01F091F001808180618083E091BA
:100D1000EF01F091F001808188608083E091EF0124
:100D2000F091F001808180688083E091EF01F09183
:100D3000F00180818F7D808361E089E00E945A020A
:100D400061E08AE00E945A0262E082E00E945A0258
:100D500062E085E00E945A0262E084E00E945A024A
:100D600062E083E00E945A0260E089E00E942C0267
:100D700060E08AE00E942C028CE993E090930401E9
:100D80008093030180916900837F84608093690070
:100D9000E99A80E0E82E80E0F82EC090D701D0904C
:100DA000D8016FE171E0CE010D960E9474046FE1ED
:100DB00071E0CE0107960E9474048DED91E00E94CF
:100DC0002B0118161906BCF56FE171E0CE010196F2
:100DD0000E9474040E94DD0097FD0CC08B8B1C8A5E
:100DE00041E050E0BE016D5E7F4FCE0101960E9452
:100DF0004804F0CF0D811E810115110579F480B1F1
:100E00008823A1F069817A81A801CE0107960E940A
:100E10004804CE0107960E94A90308C060E270E072
:100E200089819A810E94770A892B61F7CE01019608
:100E30000E94CE03C2CF8D859E85009709F471C0B4
:100E40006F8178856115710509F469C04F855889EE
:100E50002B853C854217530708F461C00E94800A25
:100E60008B859C859A8B898B1C861B86CE01079669
:100E70000E94CE0364E671E0CE0101960E947404E4
:100E800089899A89892B61F0AD84BE8469817A81D0
:100E9000C5010E94870A8C010A191B09892B11F4CC
:100EA0000FEF1FEFCE0101960E94CE030F3F1007F8
:100EB00009F448C00E94500386E691E00E94600356
:100EC0000E944303CE010D960E94CE030E940D03A3
:100ED00084E00E940302892B09F063C08091D7014E
:100EE0009091D801892B09F051C081E090E0909356
:100EF000D8018093D7010E94770389E891E00E948E
:100F000060030E940D03E114F10409F446CF0E942E
:100F10003701882309F441CF0E9400003ECF0E9490
:100F200028098F8198859E878D8789859A85988BDA
:100F30008F878B859C859A8B898B18861F821A8652
:100F4000198692CF65E771E0CE0101960E94740484
:100F500089899A89892B61F0AD84BE8469817A81FF
:100F6000C5010E94870A009719F08C010A191B0914
:100F7000CE0101960E94CE030F3F1F4F09F4A2CF6E
:100F8000C6010E94770387E791E098CF1092D801BD
:100F90001092D70190E080E00E9477038EEA91E002
:100FA000AECF82E00E94030266E471E0892B41F03B
:100FB00085E00E940302892B09F0A3CF65E571E06B
:100FC000CE0101960E947404CE0101960E94A504F0
:100FD000CE0101960E94CE0394CFEDEDF1E0138295
:100FE000128288EE93E0A0E0B0E084839583A6832C
:100FF000B7838FE091E09183808385EC90E09587C3
:10100000848784EC90E09787868780EC90E0918BD2
:10101000808B81EC90E0938B828B82EC90E0958BBF
:10102000848B86EC90E0978B868B118E128E138EBC
:10103000148E0895BB274A3031F4992322F4BDE27F
:10104000909581959F4F0C942608BB27FB0155274F
:10105000AA27880F991FAA1FA41710F0A41B839515
:101060005051B9F7A05DAA3308F0A95DA19300978C
:1010700079F7B111B1931192CB010C943F08DC01C7
:10108000FC01672F71917723E1F7329704C07C91BF
:101090006D9370836291AE17BF07C8F308952F92C6
:1010A0003F924F925F926F927F928F929F92AF92F8
:1010B000BF92CF92DF92EF92FF920F931F93CF9345
:1010C000DF93CDB7DEB7CA1BDB0B0FB6F894DEBFDC
:1010D0000FBECDBF09942A88398848885F846E8402
:1010E0007D848C849B84AA84B984C884DF80EE804C
:1010F000FD800C811B81AA81B981CE0FD11D0FB655
:10110000F894DEBF0FBECDBFED010895EE0FFF1FB7
:101110000590F491E02D09940F931F93CF93DF93E3
:101120008230910510F482E090E0E0917C02F09131
:101130007D0230E020E0B0E0A0E0309799F4211586
:10114000310509F44AC0281B390B24303105D8F584
:101150008A819B816115710589F1FB0193838283EB
:10116000FE0111C040815181028113814817590746
:10117000E0F04817590799F4109761F012960C9314
:10118000129713961C933296CF01DF91CF911F9146
:101190000F91089500937C0210937D02F4CF2115E6
:1011A000310551F04217530738F0A901DB019A01CC
:1011B000BD01DF01F801C1CFEF01F9CF90937D02AE
:1011C00080937C02CDCFFE01E20FF31F81939193B8
:1011D0002250310939832883D7CF20917A02309168
:1011E0007B02232B41F420910701309108013093B9
:1011F0007B0220937A02209105013091060121158E
:10120000310541F42DB73EB74091090150910A01D3
:10121000241B350BE0917A02F0917B02E217F30771
:10122000A0F42E1B3F0B2817390778F0AC014E5F56
:101230005F4F2417350748F04E0F5F1F50937B0216
:1012400040937A02819391939FCFF0E0E0E09CCFAE
:10125000CF93DF930097E9F0FC013297138212825B
:10126000A0917C02B0917D02ED0130E020E010976A
:10127000A1F420813181820F931F20917A02309155
:101280007B022817390709F061C0F0937B02E093D5
:101290007A02DF91CF910895EA01CE17DF07E8F5D2
:1012A0004A815B819E0141155105B1F7E901FB833C
:1012B000EA8349915991C40FD51FEC17FD0761F4DA
:1012C000808191810296840F951FE901998388831B
:1012D000828193819B838A83F0E0E0E012968D9176
:1012E0009C9113970097B9F52D913C911197CD01E1
:1012F0000296820F931F20917A0230917B02281769
:10130000390739F6309751F510927D0210927C0220
:10131000B0937B02A0937A02BCCFD383C283408177
:101320005181840F951FC817D90761F44E5F5F4F35
:1013300088819981480F591F518340838A819B81FD
:10134000938382832115310509F0B0CFF0937D029C
:10135000E0937C029ECFFD01DC01C0CF138212829C
:10136000D7CFB0E0A0E0E7EBF9E00C9451088C0196
:10137000009751F4CB010E948C088C01C801CDB7B5
:10138000DEB7E0E10C946D08FC01E60FF71F9C014D
:1013900022503109E217F30708F49DC0D901CD911D
:1013A000DC911197C617D70798F0C530D10530F3F7
:1013B000CE0104978617970708F3C61BD70B229711
:1013C000C193D1936D937C93CF010E942809D6CF0E
:1013D0005B01AC1ABD0A4C018C0E9D1EA0917C02D3
:1013E000B0917D02512C412CF12CE12C109731F55C
:1013F00080917A0290917B028815990509F05CC072
:101400004616570608F058C08091050190910601D4
:10141000009741F48DB79EB74091090150910A01A0
:10142000841B950BE817F90708F055C0F0937B0271
:10143000E0937A02F90171836083A0CF8D919C9132
:10144000119712966C90129713967C901397A8158B
:10145000B90559F56C0142E0C40ED11CCA14DB0475
:1014600020F1AC014A195B09DA011296159780F058
:101470006282738251834083D9016D937C93E1141E
:10148000F10471F0D7011396FC93EE93129776CF87
:1014900022968C0F9D1FF90191838083F301EFCF7A
:1014A000F0937D02E0937C0269CF4816590608F458
:1014B0002C017D01D3019ACFCB010E948C087C01C5
:1014C000009749F0AE01B8010E946E0AC8010E945F
:1014D0002809870153CF10E000E050CFFB01DC0169
:1014E00002C001900D9241505040D8F70895FB0181
:1014F000DC018D91019080190110D9F3990B0895A9
:10150000FB01DC0101900D920020E1F70895FB0141
:1015100051915523A9F0BF01DC014D9145174111AF
:10152000E1F759F4CD010190002049F04D914015AB
:101530004111C9F3FB014111EFCF81E090E0019728
:101540000895F894FFCF014203420300007E028019
:1015500000000000006D018D00BA00BA012B01C926
:10156000001D010D0A006F70C3A7C3A36F20696E31
:101570006573697374656E746500506172616E6441
:101580006F206D6F76696D656E746F002B002B5642
:10159000656C6F63696461203D20002D002D5665E8
:1015A0006C6F63696461203D200073003E3E2873C8
:1015B000292073746F70206D61740072003E3E28A4
:1015C00072292072756E206D61742E2E2E2E006D84
:1015D0006F746F7220676972616E646F206E6F2026
:1015E00073656E7469646F20616E7469686F72618F
:1015F00072696F004D6F746F7220676972616E64FB
:101600006F206E6F2073656E7469646F20686F72EF
:061610006172696F000029
:107E0000112484B714BE81FFF0D085E080938100F7
:107E100082E08093C00088E18093C10086E0809377
:107E2000C20080E18093C4008EE0C9D0259A86E02C
:107E300020E33CEF91E0309385002093840096BBD3
:107E4000B09BFECF1D9AA8958150A9F7CC24DD24C4
:107E500088248394B5E0AB2EA1E19A2EF3E0BF2EE7
:107E6000A2D0813461F49FD0082FAFD0023811F036
:107E7000013811F484E001C083E08DD089C08234E0
:107E800011F484E103C0853419F485E0A6D080C0E4
:107E9000853579F488D0E82EFF2485D0082F10E0AE
:107EA000102F00270E291F29000F111F8ED06801E7
:107EB0006FC0863521F484E090D080E0DECF843638
:107EC00009F040C070D06FD0082F6DD080E0C81688
:107ED00080E7D80618F4F601B7BEE895C0E0D1E017
:107EE00062D089930C17E1F7F0E0CF16F0E7DF06D8
:107EF00018F0F601B7BEE89568D007B600FCFDCFD4
:107F0000A601A0E0B1E02C9130E011968C91119780
:107F100090E0982F8827822B932B1296FA010C0160
:107F200087BEE89511244E5F5F4FF1E0A038BF0790
:107F300051F7F601A7BEE89507B600FCFDCF97BE46
:107F4000E89526C08437B1F42ED02DD0F82E2BD052
:107F50003CD0F601EF2C8F010F5F1F4F84911BD097
:107F6000EA94F801C1F70894C11CD11CFA94CF0C13
:107F7000D11C0EC0853739F428D08EE10CD085E9AC
:107F80000AD08FE07ACF813511F488E018D01DD067
:107F900080E101D065CF982F8091C00085FFFCCF94
:107FA0009093C60008958091C00087FFFCCF809118
:107FB000C00084FD01C0A8958091C6000895E0E648
:107FC000F0E098E1908380830895EDDF803219F02E
:107FD00088E0F5DFFFCF84E1DECF1F93182FE3DFCA
:107FE0001150E9F7F2DF1F91089580E0E8DFEE27F6
:047FF000FF270994CA
:027FFE00040479
:00000001FF
