:100000000C9462000C9446080C941F080C948A000F
:100010000C948A000C948A000C948A000C948A0038
:100020000C948A000C948A000C948A000C948A0028
:100030000C948A000C948A000C948A000C948A0018
:100040000C94D5070C948A000C94A3070C947D079C
:100050000C948A000C948A000C948A000C948A00F8
:100060000C948A000C948A000000000024002700F1
:100070002A0000000000250028002B0000000000DE
:1000800023002600290004040404040404040202DA
:100090000202020203030303030301020408102007
:1000A0004080010204081020010204081020000012
:1000B0000008000201000003040700000000000027
:1000C00000006D0811241FBECFEFD8E0DEBFCDBF0A
:1000D00023E0A6E0B3E001C01D92A33CB207E1F724
:1000E00013E0A0E0B1E0E0E9F1E202C005900D927A
:1000F000A630B107D9F710E0C2E6D0E004C02197DE
:10010000FE010E94AB0EC136D107C9F70E94A008BC
:100110000C94C6100C9400000895AF92BF92CF9239
:10012000DF92EF92FF920F931F93CF93DF936C01B7
:100130007B018B01040F151FEB015E01AE18BF0898
:10014000C017D10759F06991D601ED91FC9101904A
:10015000F081E02DC6010995892B79F7C501DF9162
:10016000CF911F910F91FF90EF90DF90CF90BF90B4
:10017000AF900895FC01538D448D252F30E0842FDE
:1001800090E0821B930B541710F0CF9608950197BF
:100190000895FC01918D828D981761F0A28DAE0FAC
:1001A000BF2FB11D5D968C91928D9F5F9F73928F33
:1001B00090E008958FEF9FEF08952FB7F894809106
:1001C0001C0390911D03A0911E03B0911F032FBF2C
:1001D0008093280390932903A0932A03B0932B03C1
:1001E00080E293E00E94C90097FF26C02FB7F894E1
:1001F00080911C0390911D03A0911E03B0911F03D9
:100200002FBF409128035091290360912A037091D8
:100210002B03841B950BA60BB70B40912403509125
:100220002503609126037091270384179507A6077D
:10023000B707B0F28FEF9FEF0895FC01918D828D8B
:10024000981731F0828DE80FF11D858D90E00895AB
:100250008FEF9FEF0895FC01918D228D892F90E003
:10026000805C9F4F821B91098F739927089580E2CC
:1002700093E00E942B0121E0892B09F420E0822FDA
:10028000089580E090E0892B29F00E9437018111C8
:100290000C9400000895FC01A48DA80FB92FB11D86
:1002A000A35ABF4F2C91848D90E001968F739927AC
:1002B000848FA689B7892C93A089B1898C9183708A
:1002C00080648C93938D848D981306C00288F38983
:1002D000E02D80818F7D80830895EF92FF920F93B0
:1002E0001F93CF93DF93EC0181E0888F9B8D8C8DE2
:1002F00098131AC0E889F989808185FF15C09FB7D6
:10030000F894EE89FF896083E889F9898081837098
:10031000806480839FBF81E090E0DF91CF911F9147
:100320000F91FF90EF900895F62E0B8D10E00F5F68
:100330001F4F0F731127E02E8C8D8E110CC00FB63E
:1003400007FCFACFE889F989808185FFF5CFCE01D6
:100350000E944B01F1CFEB8DEC0FFD2FF11DE35A05
:10036000FF4FF0829FB7F8940B8FEA89FB89808159
:100370008062CFCFCF93DF93EC01888D8823B9F0D3
:10038000AA89BB89E889F9898C9185FD03C08081A0
:1003900086FD0DC00FB607FCF7CF8C9185FFF2CF1D
:1003A000808185FFEDCFCE010E944B01E9CFDF9127
:1003B000CF910895833081F028F4813099F0823014
:1003C000A9F008958730A9F08830C9F08430B1F4DD
:1003D000809180008F7D03C0809180008F77809313
:1003E0008000089584B58F7784BD089584B58F7D8E
:1003F000FBCF8091B0008F778093B00008958091FB
:10040000B0008F7DF9CFCF93DF93282F30E0F90133
:10041000E255FF4F8491F901E656FF4FD491F9015F
:10042000EA57FF4FC491CC23A1F081110E94DA0159
:10043000EC2FF0E0EE0FFF1FE458FF4FA591B491B1
:10044000EC91ED2381E090E009F480E0DF91CF9121
:10045000089580E090E0FACF1F93CF93DF93282F89
:1004600030E0F901E255FF4F8491F901E656FF4F64
:10047000D491F901EA57FF4FC491CC23A9F0162F6C
:1004800081110E94DA01EC2FF0E0EE0FFF1FEE5811
:10049000FF4FA591B4918FB7F894EC91111108C05A
:1004A000D095DE23DC938FBFDF91CF911F9108950C
:1004B000DE2BF8CFCF93DF9390E0FC01E656FF4FA1
:1004C00024918A579F4FFC0184918823D1F090E0BA
:1004D000880F991FFC01E859FF4FA591B491FC01C9
:1004E000EE58FF4FC591D491623071F49FB7F894E4
:1004F0003C91822F809583238C93E8812E2B288337
:100500009FBFDF91CF9108958FB7F894EC912E2B78
:100510002C938FBFF6CF1F93CF93DF93182FEB0150
:1005200061E00E945A02209739F460E0812FDF9148
:10053000CF911F910C942C02CF3FD10511F461E0B3
:10054000F5CFE12FF0E0E255FF4FE491E33031F1D8
:1005500040F4E130B1F0E230E1F0C038D1057CF791
:10056000E4CFE73029F1E83059F1E430B1F7809178
:100570008000806280938000D0938B00C0938A00BB
:1005800004C084B5806884BDC7BDDF91CF911F9141
:10059000089584B5806284BDC8BDF7CF8091800086
:1005A000806880938000D0938900C0938800EDCF4D
:1005B0008091B00080688093B000C093B300E5CF15
:1005C0008091B00080628093B000C093B400DDCF12
:1005D0003FB7F89480910E0390910F03A091100300
:1005E000B091110326B5A89B05C02F3F19F00196C5
:1005F000A11DB11D3FBFBA2FA92F982F8827BC017D
:10060000CD01620F711D811D911D42E0660F771FA4
:10061000881F991F4A95D1F70895089560E089E0F1
:100620000E942C0260E08AE00C942C020C940E03D1
:1006300042E050E061E271E080E293E00C948D00D2
:10064000CF93DF93FC0101900020E9F73197AF01D0
:10065000481B590BBC0180E293E00E948D00EC0125
:100660000E9418038C0F9D1FDF91CF910895CF93A7
:10067000DF93EB018130910581F08330910599F092
:10068000892BA9F470E060E08AE00E948B02BE0131
:1006900089E0DF91CF910C948B028AE00E948B025B
:1006A00070E060E0F5CFDF91CF910C940E0384E20F
:1006B00091E0DF91CF910C942003CF93DF93FC0165
:1006C000448155816081718180E293E00E948D00B8
:1006D000EC010E9418038C0F9D1FDF91CF910895AC
:1006E000CF93DF93EC0188819981009711F00E94EC
:1006F0004D0F198218821D821C821B821A82DF9183
:10070000CF910895FC0180819181009711F00C94A4
:100710004D0F08950F931F93CF93DF93EC018881C2
:100720009981009759F02A813B812617370730F0CD
:1007300081E0DF91CF911F910F9108958B016F5F41
:100740007F4F0E94D60F009759F0998388831B83AF
:100750000A832C813D81232B59F7FC011082E8CFBD
:1007600080E0E7CFEF92FF920F931F93CF93DF9339
:100770006115710541F480E0DF91CF911F910F91D8
:10078000FF90EF90089541155105B1F07B01EC0108
:100790000C811D81040F151FB8010E948A03882354
:1007A00051F3288139818C819D81B701820F931F7C
:1007B0000E94A5101D830C8381E0DECFCF93DF93D1
:1007C000EC01FB0101900020E9F73197AF01461BD6
:1007D000570B0E94B203811103C0CE010E94700327
:1007E000CE01DF91CF910895CF93DF93EC01FB0110
:1007F00044815581608171810E94B203811103C0DF
:10080000CE010E947003CE01DF91CF910895EF9247
:10081000FF920F931F93CF93DF93EC017B018A012B
:10082000BA010E948A0381110BC0CE010E9470039D
:10083000CE01DF91CF911F910F91FF90EF9008951E
:100840001D830C83B701888199810E94A510F0CF88
:10085000EF92FF920F931F93CF93DF93CDB7DEB745
:1008600062970FB6F894DEBF0FBECDBF8C01CB01EF
:10087000F8011182108213821282158214824AE0DA
:100880009E012F5F3F4F7901B9010E94BD0BF70117
:1008900001900020E9F73197AF014E195F09B701C8
:1008A000C8010E94070462960FB6F894DEBF0FBE1F
:1008B000CDBFDF91CF911F910F91FF90EF900895E1
:1008C000FB01DC0111961C921E9213961C921E9243
:1008D000129715961C921E9214978617970749F047
:1008E000608171816115710521F0448155810C94FD
:1008F00007040895FC01118210821382128215826E
:100900001482FB0101900020E9F73197AF01461BEB
:10091000570B0C940704CF92DF92EF92FF92CF9384
:10092000DF93CDB7DEB762970FB6F894DEBF0FBE88
:10093000CDBF6091050170910601072E000C880B58
:10094000990B0E94120C6B017C016091BD037091A8
:10095000BE03072E000C880B990B0E94120C9B0102
:10096000AC01C701B6010E94710C20E030E04FE7F6
:1009700053E40E94D60D6B017C0120E030E0A90118
:100980000E947E0E20E030E040E05FE387FD4BC038
:10099000C701B6010E946A0D0E94480E70931403AD
:1009A00060931303CE010D960E9428046091BD034D
:1009B0007091BE03CE0107960E94280468E371E09F
:1009C000CE0101960E947A04BE01695F7F4FCE017D
:1009D00001960E94F4036BE471E00E94DE036FE471
:1009E00071E00E94DE03BE01635F7F4F0E94F4034B
:1009F0000E945D03CE0101960E948203CE010796FC
:100A00000E948203CE010D960E94820362960FB669
:100A1000F894DEBF0FBECDBFDF91CF91FF90EF9076
:100A2000DF90CF900895C701B6010E94690DB4CF41
:100A3000AF92BF92CF92DF92EF92FF920F931F93EC
:100A4000CF93DF9300D000D000D0CDB7DEB77C01CC
:100A5000FC01A480B580A114B10409F475C0008123
:100A60001181FB0160817181C8010E94AC10009767
:100A700009F46AC09C01201B310B89010F5F1F4FD5
:100A8000A016B10628F4902F812F8501A92EB82E2B
:100A900063E271E0CE0101960E947A04F701C480FE
:100AA000D5800C151D0528F5AC14BD0408F46501AE
:100AB000F70160817181FB01EC0DFD1DB08010829A
:100AC000600F711F6115710509F441C0FB010190B0
:100AD0000020E9F73197AF01461B570BCE01019675
:100AE0000E940704F70180819181C80ED91EF6018A
:100AF000B082C980DA80C114D10431F00D811E8129
:100B000076010115110549F589819A81C12CD12CF5
:100B10007601009719F00E94960B6B01CE010196A9
:100B20000E948203C60126960FB6F894DEBF0FBE60
:100B3000CDBFDF91CF911F910F91FF90EF90DF908C
:100B4000CF90BF90AF9008950FEF1FEF97CFCE01DA
:100B500001960E947003C6CF75015701FFEFAF1ACF
:100B6000BF0AF7018081082E000C990B0E94F70B39
:100B7000892B91F7015011090C0D1D1DF801808181
:100B8000082E000C990B0E94F70B892B31F00E15E3
:100B90001F0518F001501109F1CFA8014F5F5F4FF9
:100BA0004E195F095E834D83CE14DF0420F4B70134
:100BB000C6010E949310E981FA818D819E81E80F20
:100BC000F91F1082A1CFCF92DF92EF92FF920F9385
:100BD0001F93CF93DF93CDB7DEB72C970FB6F89462
:100BE000DEBF0FBECDBFFC0124813581232BD1F1A7
:100BF0008A017B01C080D1806DE571E0C6010E9451
:100C00009C10892BF1F560911A0370911B036F3FC3
:100C1000710544F56E0D7F1D70931B0360931A03DD
:100C2000C8010E94370360911A0370911B03CE0123
:100C300007960E9428046FE571E0CE0101960E949C
:100C40007A04BE01695F7F4FCE0101960E94F403D2
:100C50000E945D03CE0101960E948203CE01079699
:100C60000E9482032C960FB6F894DEBF0FBECDBF54
:100C7000DF91CF911F910F91FF90EF90DF90CF9078
:100C800008956CE671E0C6010E949C10892B51F713
:100C900060911A0370911B03161617061CF76E1944
:100CA0007F0970931B0360931A03C8010E943703E6
:100CB00060911A0370911B03CE0107960E942804CD
:100CC0006EE671E0BACFEF92FF920F931F93CF932E
:100CD000DF9300D000D000D0CDB7DEB7E09018038E
:100CE000F090190300910701109108016CE671E082
:100CF000CE0101960E947A04A701B801CE010196A7
:100D00000E94E305CE0101960E94820326960FB64B
:100D1000F894DEBF0FBECDBFDF91CF911F910F9131
:100D2000FF90EF900895CF92DF92EF92FF920F9392
:100D30001F93CF93DF9300D000D000D0CDB7DEB7A4
:100D400080910C03811106C080910A0390910B03DE
:100D5000892B79F480910A0390910B0302974CF44C
:100D600080910A0390910B03019690930B0380935B
:100D70000A03009113031091140380910A039091C8
:100D80000B030197B1F580910001882391F12FB7F2
:100D9000F89460911C0370911D0380911E03909143
:100DA0001F032FBF0E94100C60930603709307036C
:100DB000809308039093090381E080930C031092C1
:100DC00000018FEF9FEF909316038093150381E04E
:100DD0008093170326960FB6F894DEBF0FBECDBFE3
:100DE000DF91CF911F910F91FF90EF90DF90CF9007
:100DF000089580910A0390910B03029711F72FB782
:100E0000F89460911C0370911D0380911E039091D2
:100E10001F032FBF0E94100C20910603309107037F
:100E200040910803509109030E94690D6B017C01F8
:100E300020E030E0A9010E947E0E181624F0F7FA97
:100E4000F094F7F8F09410920B0310920A031092AA
:100E50000C0381E08093000120E030E040E051E4A9
:100E6000C701B6010E94710C9B01AC0160E070E605
:100E70008AE697E40E94D60D6B017C0120E030E009
:100E8000A9010E947E0E20E030E040E05FE387FD94
:100E900028C0C701B6010E946A0D0E94480E7093D7
:100EA00016036093150377FD92CF60177107F4F472
:100EB000E0901803F09019030091070110910801C8
:100EC0006DE571E0CE0101960E947A04A701B80198
:100ED000CE0101960E94E305CE0101960E94820395
:100EE00076CFC701B6010E94690DD7CF0617170745
:100EF0000CF06DCF0E9463066ACF1F920F920FB65F
:100F00000F9211242F933F934F935F936F937F938F
:100F10008F939F93AF93BF93EF93FF9380E293E000
:100F20000E944B01FF91EF91BF91AF919F918F91E3
:100F30007F916F915F914F913F912F910F900FBED5
:100F40000F901F9018951F920F920FB60F921124B9
:100F50002F938F939F93EF93FF93E0913003F09142
:100F600031038081E0913603F091370382FD1BC08D
:100F70009081809139038F5F8F7320913A0382179C
:100F800041F0E0913903F0E0E05EFC4F958F8093F3
:100F90003903FF91EF919F918F912F910F900FBE89
:100FA0000F901F9018958081F4CF1F920F920FB66B
:100FB0000F9211242F933F938F939F93AF93BF93DF
:100FC00080911C0390911D03A0911E03B0911F03FB
:100FD00030910D0323E0230F2D3758F50196A11D05
:100FE000B11D20930D0380931C0390931D03A093C8
:100FF0001E03B0931F0380910E0390910F03A091E5
:101000001003B09111030196A11DB11D80930E0331
:1010100090930F03A0931003B0931103BF91AF916E
:101020009F918F913F912F910F900FBE0F901F9026
:10103000189526E8230F0296A11DB11DD2CF1F924D
:101040000F920FB60F9211242F933F934F935F93FC
:101050006F937F938F939F93AF93BF93EF93FF9380
:10106000E0910301F09104010995FF91EF91BF9187
:10107000AF919F918F917F916F915F914F913F9130
:101080002F910F900FBE0F901F9018951F920F92E7
:101090000FB60F9211242F933F934F935F936F934B
:1010A0007F938F939F93AF93BF93EF93FF93E091C1
:1010B0000101F09102010995FF91EF91BF91AF916C
:1010C0009F918F917F916F915F914F913F912F9160
:1010D0000F900FBE0F901F901895E0E2F3E013827F
:1010E000128288EE93E0A0E0B0E084839583A6832B
:1010F000B78383E191E09183808385EC90E09587CD
:10110000848784EC90E09787868780EC90E0918BD1
:10111000808B81EC90E0938B828B82EC90E0958BBE
:10112000848B86EC90E0978B868B118E128E138EBB
:10113000148E8EE391E09093BE038093BD030895D7
:10114000CF93DF93CDB7DEB764970FB6F894DEBFC9
:101150000FBECDBF789484B5826084BD84B58160B4
:1011600084BD85B5826085BD85B5816085BD809172
:101170006E00816080936E001092810080918100EA
:1011800082608093810080918100816080938100E2
:10119000809180008160809380008091B1008460A4
:1011A0008093B1008091B00081608093B000809105
:1011B0007A00846080937A0080917A0082608093C4
:1011C0007A0080917A00816080937A0080917A0021
:1011D000806880937A001092C100E0913003F09112
:1011E000310382E08083E0912C03F0912D03108283
:1011F000E0912E03F0912F038FEC8083109238033F
:10120000E0913403F091350386E08083E09132036E
:10121000F0913303808180618083E0913203F0910B
:101220003303808188608083E0913203F09133033F
:10123000808180688083E0913203F0913303808164
:101240008F7D808361E089E00E945A0261E08AE03C
:101250000E945A0262E087E00E945A0262E085E042
:101260000E945A0262E084E00E945A0262E083E037
:101270000E945A0262E082E00E945A0260E089E025
:101280000E942C0260E08AE00E942C020E948B04E3
:1012900086E193E0909304018093030180916900BB
:1012A000837F846080936900E99A83E996E0909354
:1012B000020180930101809169008C7F826080939C
:1012C0006900E89A0FEF10E090E0A92E90E0B92EA7
:1012D000E0901A03F0901B03C0901803D0901903FC
:1012E00063E271E0CE010D960E947A0463E271E040
:1012F000CE0107960E947A0480E293E00E942B01BF
:10130000181619060CF04EC063E271E0CE0101968A
:101310000E947A040E94DD0097FD0CC08B8B1C8A12
:1013200041E050E0BE016D5E7F4FCE0101960E940C
:10133000B203F0CF8F819885009719F169817A8186
:1013400061157105E1F049855A852D813E8142176D
:101350005307A8F00E94A5108D819E819C878B87E2
:101360001E821D82CE0101960E9482034B855C8500
:101370006F817885CE010D960E94B203BDCF0E9489
:101380004D0F89819A8198878F838B819C819A8761
:1013900089878D819E819C878B871A8219821C8206
:1013A0001B82DECFCE0107960E94820389899A892B
:1013B000892B21F0ED85FE85309721F410921203E0
:1013C000E2E1F3E08081883609F4FEC00CF09BC0B6
:1013D000813609F405C1833609F40EC181119AC022
:1013E000CE010D960E9482030E94E8022B013C016F
:1013F00088E2C82ED12CE12CF12C0E94E80264195D
:10140000750986099709683E734081059105A8F31F
:1014100021E0C21AD108E108F10888EE480E83E005
:10142000581E611C711CC114D104E104F10429F798
:1014300084E00E940302892B09F051C160911A03D4
:1014400070911B038091180390911903892B09F067
:101450003BC181E090E090931903809318030E94B0
:10146000370387EA92E00E942003809117038823C4
:10147000F1F1609115037091160316161706BCF56D
:10148000E0901303F0901403CE0101960E9428040B
:10149000B701CE0107960E9428046DEE72E0CE01DE
:1014A0000D960E947A04BE01695F7F4FCE010D96B2
:1014B0000E94F4036BE471E00E94DE036AEF72E0C5
:1014C0000E94DE03BE016F5F7F4F0E94F4030E9403
:1014D0005D03CE010D960E948203CE0107960E9405
:1014E0008203CE0101960E94820310921703A11479
:1014F000B10409F4EDCE0E943701882309F4E8CE47
:101500000E940000E5CE823709F457C034F48D36CE
:1015100009F4AFC084E291E04DC0833709F446C0BE
:101520008637C1F76BE971E0CE0101960E947A041B
:10153000BE01635F7F4FCE0107960E946004BE012B
:101540006F5F7F4FCE0107960E9418057C01CE0188
:1015500007960E948203CE0101960E948203F092B8
:101560000601E09205010E948B04B701CE010196AD
:101570000E9428046DE971E0CE0107960E947A046A
:10158000BE016F5F7F4FCE0107960E94F40361ECAE
:1015900071E00E94DE030E945D03CE0107960E9467
:1015A0008203CE0101960E9482031ACF0E940E038D
:1015B0008BE791E00E94200313CFB701C6010E9480
:1015C00037038DE891E0F6CF81E090E09093190326
:1015D00080931803B7010E94370386EC91E0EACFAD
:1015E0001092190310921803B70190E080E00E9456
:1015F00037038CED91E0DECF6BE971E0CE0101960F
:101600000E947A04BE01635F7F4FCE0107960E945D
:101610006004BE016F5F7F4FCE0107960E941805E0
:101620007C01CE0107960E948203CE0101960E94A2
:101630008203C801B7010E94830E892BB9F4F0928E
:101640000801E0920701B701CE0101960E9428042B
:1016500066EF71E0CE0107960E947A04BE016F5FCB
:101660007F4FCE0107960E94F40395CF8EE292E061
:10167000A1CF6BE971E0CE0101960E947A04BE0110
:10168000635F7F4FCE0107960E946004BE016F5FCB
:101690007F4FCE0107960E9418057C01CE01079668
:1016A0000E948203CE0101960E948203F092BE0343
:1016B000E092BD030E948B04B701CE0101960E9407
:1016C00028046AE772E0C6CF10921903109218033B
:1016D00090E080E00E9437038CEC92E0C4CE87E07B
:1016E0000E940302892BC9F4C0901803D0901903FB
:1016F000E0900701F09008016DE571E0CE010196E0
:101700000E947A04A601B701CE0101960E94E3056A
:10171000CE0101960E948203A8CE85E00E940302BA
:10172000892B09F0A2CE0E9463069FCE1F93FC0175
:1017300099278827BC01E89411911032E9F31930F8
:1017400010F01E30C8F31B3251F01D3249F468947A
:1017500006C00E94C80B610F711D811D911D119162
:1017600010531A30B0F33EF49095809570956195C2
:101770007F4F8F4F9F4F1F910895BB274A3031F401
:10178000992322F4BDE2909581959F4F0C94DE0B36
:10179000592F482F372F262F660F771F881F991F25
:1017A000660F771F881F991F620F731F841F951F75
:1017B000660F771F881F991F0895BB27FB015527C8
:1017C000AA27880F991FAA1FA41710F0A41B83959E
:1017D0005051B9F7A05DAA3308F0A95DA193009715
:1017E00079F7B111B1931192CB010C94000C9111C6
:1017F0000C94DE0C803219F089508550C8F708959A
:10180000DC01FC01672F71917723E1F7329704C067
:101810007C916D9370836291AE17BF07C8F30895F2
:10182000E89409C097FB3EF490958095709561957A
:101830007F4F8F4F9F4F9923A9F0F92F96E9BB2730
:101840009395F695879577956795B795F111F8CFAC
:10185000FAF4BB0F11F460FF1BC06F5F7F4F8F4F17
:101860009F4F16C0882311F096E911C0772321F00D
:101870009EE8872F762F05C0662371F096E8862FA5
:1018800070E060E02AF09A95660F771F881FDAF7FC
:10189000880F9695879597F90895990F0008550F29
:1018A000AA0BE0E8FEEF16161706E807F907C0F0E6
:1018B00012161306E407F50798F0621B730B840BEE
:1018C000950B39F40A2661F0232B242B252B21F4C8
:1018D00008950A2609F4A140A6958FEF811D811D68
:1018E00008950E94840C0C94F80C0E94EA0C38F0C5
:1018F0000E94F10C20F0952311F00C94E10C0C9453
:10190000E70C11240C942C0D0E94090D70F3959F87
:10191000C1F3950F50E0551F629FF001729FBB27E6
:10192000F00DB11D639FAA27F00DB11DAA1F649F82
:101930006627B00DA11D661F829F2227B00DA11D35
:10194000621F739FB00DA11D621F839FA00D611DBB
:10195000221F749F3327A00D611D231F849F600DDC
:10196000211D822F762F6A2F11249F5750409AF005
:10197000F1F088234AF0EE0FFF1FBB1F661F771F91
:10198000881F91505040A9F79E3F510580F00C945C
:10199000E10C0C942C0D5F3FE4F3983ED4F3869554
:1019A00077956795B795F795E7959F5FC1F7FE2BFC
:1019B000880F911D9695879597F9089599278827FF
:1019C000089597F99F6780E870E060E008959FEFC1
:1019D00080EC089500240A941616170618060906C6
:1019E000089500240A941216130614060506089595
:1019F000092E0394000C11F4882352F0BB0F40F41D
:101A0000BF2B11F460FF04C06F5F7F4F8F4F9F4F5C
:101A1000089557FD9058440F551F59F05F3F71F0DE
:101A20004795880F97FB991F61F09F3F79F0879545
:101A30000895121613061406551FF2CF4695F1DFCE
:101A400008C0161617061806991FF1CF869571055E
:101A5000610508940895E894BB2766277727CB0192
:101A600097F908952F923F924F925F926F927F92D3
:101A70008F929F92AF92BF92CF92DF92EF92FF929E
:101A80000F931F93CF93DF93CDB7DEB7CA1BDB0B4A
:101A90000FB6F894DEBF0FBECDBF09942A883988EF
:101AA00048885F846E847D848C849B84AA84B984F6
:101AB000C884DF80EE80FD800C811B81AA81B98102
:101AC000CE0FD11D0FB6F894DEBF0FBECDBFED0116
:101AD00008955058BB27AA270E94810D0C94F80C3A
:101AE0000E94EA0C38F00E94F10C20F039F49F3F7C
:101AF00019F426F40C94E70C0EF4E095E7FB0C9433
:101B0000E10CE92F0E94090D58F3BA176207730719
:101B10008407950720F079F4A6F50C942B0D0EF4AC
:101B2000E0950B2EBA2FA02D0B01B90190010C01ED
:101B3000CA01A0011124FF27591B99F0593F50F405
:101B4000503E68F11A16F040A22F232F342F44275D
:101B5000585FF3CF469537952795A795F040539555
:101B6000C9F77EF41F16BA0B620B730B840BBAF025
:101B70009150A1F0FF0FBB1F661F771F881FC2F790
:101B80000EC0BA0F621F731F841F48F487957795A4
:101B90006795B795F7959E3F08F0B0CF9395880F5E
:101BA00008F09927EE0F9795879508950E94EA0D02
:101BB0000C94F80C0E94F10C58F00E94EA0C40F0D2
:101BC00029F45F3F29F00C94E10C51110C942C0D79
:101BD0000C94E70C0E94090D68F39923B1F3552387
:101BE00091F3951B550BBB27AA2762177307840730
:101BF00038F09F5F5F4F220F331F441FAA1FA9F3C6
:101C000035D00E2E3AF0E0E832D091505040E695B3
:101C1000001CCAF72BD0FE2F29D0660F771F881F14
:101C2000BB1F261737074807AB07B0E809F0BB0B07
:101C3000802DBF01FF2793585F4F3AF09E3F51051B
:101C400078F00C94E10C0C942C0D5F3FE4F3983E7B
:101C5000D4F3869577956795B795F7959F5FC9F704
:101C6000880F911D9695879597F90895E1E0660F85
:101C7000771F881FBB1F621773078407BA0720F0FE
:101C8000621B730B840BBA0BEE1F88F7E095089567
:101C90000E944F0E6894B1110C942C0D08950E946F
:101CA000110D88F09F5798F0B92F9927B751B0F0D0
:101CB000E1F0660F771F881F991F1AF0BA95C9F7D0
:101CC00014C0B13091F00E942B0DB1E008950C9436
:101CD0002B0D672F782F8827B85F39F0B93FCCF3E9
:101CE000869577956795B395D9F73EF4909580954D
:101CF000709561957F4F8F4F9F4F08950E944D0CB7
:101D000008F48FEF089597FB072E16F4009407D080
:101D100077FD09D00E94970E07FC05D03EF4909500
:101D200081959F4F0895709561957F4F0895AA1BE7
:101D3000BB1B51E107C0AA1FBB1FA617B70710F0B6
:101D4000A61BB70B881F991F5A95A9F780959095E8
:101D5000BC01CD010895EE0FFF1F0590F491E02D19
:101D600009940F931F93CF93DF938230910510F462
:101D700082E090E0E091C103F091C20330E020E006
:101D8000B0E0A0E0309799F42115310509F44AC07C
:101D9000281B390B24303105D8F58A819B816115C8
:101DA000710589F1FB0193838283FE0111C040819B
:101DB00051810281138148175907E0F048175907EC
:101DC00099F4109761F012960C93129713961C9346
:101DD0003296CF01DF91CF911F910F91089500931B
:101DE000C1031093C203F4CF2115310551F04217FE
:101DF000530738F0A901DB019A01BD01DF01F801A9
:101E0000C1CFEF01F9CF9093C2038093C103CDCF2F
:101E1000FE01E20FF31F8193919322503109398320
:101E20002883D7CF2091BF033091C003232B41F4E7
:101E300020910B0130910C013093C0032093BF031C
:101E40002091090130910A012115310541F42DB786
:101E50003EB740910D0150910E01241B350BE091CE
:101E6000BF03F091C003E217F307A0F42E1B3F0B52
:101E70002817390778F0AC014E5F5F4F24173507FC
:101E800048F04E0F5F1F5093C0034093BF038193F0
:101E900091939FCFF0E0E0E09CCFCF93DF9300974A
:101EA000E9F0FC01329713821282A091C103B09134
:101EB000C203ED0130E020E01097A1F420813181D0
:101EC000820F931F2091BF033091C0032817390759
:101ED00009F061C0F093C003E093BF03DF91CF919D
:101EE0000895EA01CE17DF07E8F54A815B819E017C
:101EF00041155105B1F7E901FB83EA8349915991F5
:101F0000C40FD51FEC17FD0761F480819181029603
:101F1000840F951FE90199838883828193819B8334
:101F20008A83F0E0E0E012968D919C9113970097E0
:101F3000B9F52D913C911197CD010296820F931F17
:101F40002091BF033091C0032817390739F6309725
:101F500051F51092C2031092C103B093C003A09335
:101F6000BF03BCCFD383C28340815181840F951FAF
:101F7000C817D90761F44E5F5F4F88819981480F78
:101F8000591F518340838A819B81938382832115CA
:101F9000310509F0B0CFF093C203E093C1039ECFA7
:101FA000FD01DC01C0CF13821282D7CFB0E0A0E0E8
:101FB000ECEDFFE00C94340D8C01009751F4CB0153
:101FC0000E94B10E8C01C801CDB7DEB7E0E10C94E0
:101FD000500DFC01E60FF71F9C0122503109E2175A
:101FE000F30708F49DC0D901CD91DC911197C61774
:101FF000D70798F0C530D10530F3CE010497861786
:10200000970708F3C61BD70B2297C193D1936D9303
:102010007C93CF010E944D0FD6CF5B01AC1ABD0A55
:102020004C018C0E9D1EA091C103B091C203512C96
:10203000412CF12CE12C109731F58091BF03909148
:10204000C0038815990509F05CC04616570608F0CC
:1020500058C08091090190910A01009741F48DB711
:102060009EB740910D0150910E01841B950BE8170E
:10207000F90708F055C0F093C003E093BF03F901DE
:1020800071836083A0CF8D919C91119712966C9073
:10209000129713967C901397A815B90559F56C0102
:1020A00042E0C40ED11CCA14DB0420F1AC014A1971
:1020B0005B09DA011296159780F062827382518370
:1020C0004083D9016D937C93E114F10471F0D70141
:1020D0001396FC93EE93129776CF22968C0F9D1F4A
:1020E000F90191838083F301EFCFF093C203E09372
:1020F000C10369CF4816590608F42C017D01D301AC
:102100009ACFCB010E94B10E7C01009749F0AE013D
:10211000B8010E949310C8010E944D0F870153CF50
:1021200010E000E050CFFB01DC0102C001900D92F5
:1021300041505040D8F70895FB01DC018D9101908A
:1021400080190110D9F3990B0895FB01DC0101906E
:102150000D920020E1F70895FB0151915523A9F05C
:10216000BF01DC014D9145174111E1F759F4CD0153
:102170000190002049F04D9140154111C9F3FB0138
:102180004111EFCF81E090E001970895F894FFCFDF
:10219000010D030D03990033000000C3038000000C
:1021A0000000006D018D00BA00BA012B01C9001DAD
:1021B000010D0A006F70C3A7C3A36F20696E65731A
:1021C000697374656E7465004D6178696D756D2015
:1021D00052504D206D6174203D2000207C20005223
:1021E000504D5F546172676574203D20002B002BB9
:1021F00056656C6F63696461203D20002D002D568B
:10220000656C6F63696461203D20003E3E28732940
:102210002073746F70206D61742E2E2E003E3E2848
:1022200072292072756E206D6174002C003E3E286C
:1022300076292076656C6F63696461646520616CE2
:10224000766F2073657461646120706172613A20F9
:10225000002070776D003E3E2868292073656E74FB
:1022600069646F20686F726172696F003E3E286119
:10227000292073656E7469646F20616E7469686F7C
:10228000726172696F003E3E2863292072617AC3D1
:10229000A36F20646520616C74657261C3A7C3A3DA
:1022A0006F2064612076656C6F636964616465208A
:1022B00073657461646120706172613A20003E3E12
:1022C000286329204572726F3A20612072617A6119
:1022D0006F20646520616C74657261C3A7616F20B3
:1022E00064612076656C6F636964616465207072F7
:1022F000656369736120736572206D756C746970B4
:102300006C6F20646520323535003E3E28632920FD
:1023100052504D206DC3A178696D6F2064612065B6
:1023200073746569726120616C74657261646F2099
:10233000706172613A20006D6F746F72206769720C
:10234000616E646F206E6F2073656E7469646F20B8
:10235000616E7469686F726172696F004D6F746F3E
:102360007220676972616E646F206E6F2073656E94
:102370007469646F20686F726172696F00524D50AA
:102380005F5461726765743A2000524D505F41742A
:0623900075616C3A2000AB
:00000001FF
