:100000000C9462000C9461070C943A070C948A00DB
:100010000C948A000C948A000C948A000C948A0038
:100020000C948A000C948A000C948A000C948A0028
:100030000C948A000C948A000C948A000C948A0018
:100040000C94F0060C948A000C94BE060C9498064E
:100050000C948A000C948A000C948A000C948A00F8
:100060000C948A000C948A000000000024002700F1
:100070002A0000000000250028002B0000000000DE
:1000800023002600290004040404040404040202DA
:100090000202020203030303030301020408102007
:1000A0004080010204081020010204081020000012
:1000B0000008000201000003040700000000000027
:1000C0000000880711241FBECFEFD8E0DEBFCDBFF0
:1000D00023E0A0E5B2E001C01D92A930B207E1F72C
:1000E00012E0A0E0B1E0EAE8F0E202C005900D9273
:1000F000A035B107D9F710E0C2E6D0E004C02197DF
:10010000FE010E94280EC136D107C9F70E94BB0725
:100110000C9443100C9400000895AF92BF92CF92BC
:10012000DF92EF92FF920F931F93CF93DF936C01B7
:100130007B018B01040F151FEB015E01AE18BF0898
:10014000C017D10759F06991D601ED91FC9101904A
:10015000F081E02DC6010995892B79F7C501DF9162
:10016000CF911F910F91FF90EF90DF90CF90BF90B4
:10017000AF900895FC01538D448D252F30E0842FDE
:1001800090E0821B930B541710F0CF9608950197BF
:100190000895FC01918D828D981761F0A28DAE0FAC
:1001A000BF2FB11D5D968C91928D9F5F9F73928F33
:1001B00090E008958FEF9FEF08952FB7F894809106
:1001C000620290916302A0916402B09165022FBF18
:1001D00080936E0290936F02A0937002B0937102AD
:1001E00086E692E00E94C90097FF26C02FB7F894D8
:1001F0008091620290916302A0916402B0916502C5
:100200002FBF40916E0250916F0260917002709109
:100210007102841B950BA60BB70B40916A0250919B
:100220006B0260916C0270916D0284179507A607AE
:10023000B707B0F28FEF9FEF0895FC01918D828D8B
:10024000981731F0828DE80FF11D858D90E00895AB
:100250008FEF9FEF0895FC01918D228D892F90E003
:10026000805C9F4F821B91098F739927089586E6C2
:1002700092E00E942B0121E0892B09F420E0822FDB
:10028000089580E090E0892B29F00E9437018111C8
:100290000C9400000895FC01A48DA80FB92FB11D86
:1002A000A35ABF4F2C91848D90E001968F739927AC
:1002B000848FA689B7892C93A089B1898C9183708A
:1002C00080648C93938D848D981306C00288F38983
:1002D000E02D80818F7D80830895EF92FF920F93B0
:1002E0001F93CF93DF93EC0181E0888F9B8D8C8DE2
:1002F00098131AC0E889F989808185FF15C09FB7D6
:10030000F894EE89FF896083E889F9898081837098
:10031000806480839FBF81E090E0DF91CF911F9147
:100320000F91FF90EF900895F62E0B8D10E00F5F68
:100330001F4F0F731127E02E8C8D8E110CC00FB63E
:1003400007FCFACFE889F989808185FFF5CFCE01D6
:100350000E944B01F1CFEB8DEC0FFD2FF11DE35A05
:10036000FF4FF0829FB7F8940B8FEA89FB89808159
:100370008062CFCFCF93DF93EC01888D8823B9F0D3
:10038000AA89BB89E889F9898C9185FD03C08081A0
:1003900086FD0DC00FB607FCF7CF8C9185FFF2CF1D
:1003A000808185FFEDCFCE010E944B01E9CFDF9127
:1003B000CF910895833081F028F4813099F0823014
:1003C000A9F008958730A9F08830C9F08430B1F4DD
:1003D000809180008F7D03C0809180008F77809313
:1003E0008000089584B58F7784BD089584B58F7D8E
:1003F000FBCF8091B0008F778093B00008958091FB
:10040000B0008F7DF9CFCF93DF93282F30E0F90133
:10041000E255FF4F8491F901E656FF4FD491F9015F
:10042000EA57FF4FC491CC23A1F081110E94DA0159
:10043000EC2FF0E0EE0FFF1FE458FF4FA591B491B1
:10044000EC91ED2381E090E009F480E0DF91CF9121
:10045000089580E090E0FACF1F93CF93DF93282F89
:1004600030E0F901E255FF4F8491F901E656FF4F64
:10047000D491F901EA57FF4FC491CC23A9F0162F6C
:1004800081110E94DA01EC2FF0E0EE0FFF1FEE5811
:10049000FF4FA591B4918FB7F894EC91111108C05A
:1004A000D095DE23DC938FBFDF91CF911F9108950C
:1004B000DE2BF8CFCF93DF9390E0FC01E656FF4FA1
:1004C00024918A579F4FFC0184918823D1F090E0BA
:1004D000880F991FFC01E859FF4FA591B491FC01C9
:1004E000EE58FF4FC591D491623071F49FB7F894E4
:1004F0003C91822F809583238C93E8812E2B288337
:100500009FBFDF91CF9108958FB7F894EC912E2B78
:100510002C938FBFF6CF1F93CF93DF93182FEB0150
:1005200061E00E945A02209739F460E0812FDF9148
:10053000CF911F910C942C02CF3FD10511F461E0B3
:10054000F5CFE12FF0E0E255FF4FE491E33031F1D8
:1005500040F4E130B1F0E230E1F0C038D1057CF791
:10056000E4CFE73029F1E83059F1E430B1F7809178
:100570008000806280938000D0938B00C0938A00BB
:1005800004C084B5806884BDC7BDDF91CF911F9141
:10059000089584B5806284BDC8BDF7CF8091800086
:1005A000806880938000D0938900C0938800EDCF4D
:1005B0008091B00080688093B000C093B300E5CF15
:1005C0008091B00080628093B000C093B400DDCF12
:1005D0003FB7F8948091580290915902A0915A0225
:1005E000B0915B0226B5A89B05C02F3F19F001967C
:1005F000A11DB11D3FBFBA2FA92F982F8827BC017D
:10060000CD01620F711D811D911D42E0660F771FA4
:10061000881F991F4A95D1F70895089542E050E048
:100620006FE171E086E692E00C948D00CF93DF934A
:10063000FC01448155816081718186E692E00E94CF
:100640008D00EC010E940E038C0F9D1FDF91CF9156
:100650000895CF93DF93FC0101900020E9F73197D3
:10066000AF01481B590BBC0186E692E00E948D0049
:10067000EC010E940E038C0F9D1FDF91CF91089516
:1006800082E291E00E94290360E089E00E942C024E
:1006900060E08AE00C942C020C944003CF93DF932B
:1006A000EB018130910581F08330910599F0892B20
:1006B000A9F470E060E08AE00E948B02BE0189E04C
:1006C000DF91CF910C948B028AE00E948B0270E044
:1006D00060E0F5CFDF91CF910C94400384E391E08B
:1006E000DF91CF910C942903CF93DF93DC01149613
:1006F0002D913C911597232B79F0FB01CD91DC9145
:1007000060817181CE010E942910009729F08C1B15
:100710009D0BDF91CF9108958FEF9FEFFACFCF938D
:10072000DF93EC0188819981009711F00E94CA0E35
:10073000198218821D821C821B821A82DF91CF913E
:100740000895FC0180819181009711F00C94CA0EEC
:1007500008950F931F93CF93DF938C01EB01FC015E
:10076000808191810097E1F068817981611571053F
:10077000A9F0428153812C813D814217530770F0CB
:100780000E9422108C819D81F801958384831D82B3
:100790001C82DF91CF911F910F9108950E94CA0E84
:1007A00088819981F801918380838A819B819383D9
:1007B00082838C819D8195838483198218821B8218
:1007C0001A82E5CF0F931F93CF93DF93EC018881BB
:1007D0009981009759F02A813B812617370730F01D
:1007E00081E0DF91CF911F910F9108958B016F5F91
:1007F0007F4F0E94530F009759F0998388831B8382
:100800000A832C813D81232B59F7FC011082E8CF0C
:1008100080E0E7CFEF92FF920F931F93CF93DF9388
:100820006115710541F480E0DF91CF911F910F9127
:10083000FF90EF90089541155105B1F07B01EC0157
:100840000C811D81040F151FB8010E94E20388234B
:1008500051F3288139818C819D81B701820F931FCB
:100860000E9422101D830C8381E0DECFCF93DF93A3
:10087000EC01FB0101900020E9F73197AF01461B25
:10088000570B0E940A04811103C0CE010E948F03FE
:10089000CE01DF91CF910895CF93DF93EC01FB015F
:1008A00044815581608171810E940A04811103C0D5
:1008B000CE010E948F03CE01DF91CF910895EF9278
:1008C000FF920F931F93CF93DF93EC017B018A017B
:1008D000BA010E94E20381110BC0CE010E948F0376
:1008E000CE01DF91CF911F910F91FF90EF9008956E
:1008F0001D830C83B701888199810E942210F0CF5B
:10090000EF92FF920F931F93CF93DF93CDB7DEB794
:1009100062970FB6F894DEBF0FBECDBF8C01CB013E
:10092000F8011182108213821282158214824AE029
:100930009E012F5F3F4F7901B9010E94620BF701C1
:1009400001900020E9F73197AF014E195F09B70117
:10095000C8010E945F0462960FB6F894DEBF0FBE16
:10096000CDBFDF91CF911F910F91FF90EF90089530
:10097000FC01118210821382128215821482FB0103
:1009800001900020E9F73197AF01461B570B0C94FB
:100990005F040F931F93CF93DF93CDB7DEB76297BA
:1009A0000FB6F894DEBF0FBECDBF8C01CE010D9601
:1009B0000E948004B801CE0107960E94800468E47A
:1009C00071E0CE0101960E94B804BE01695F7F4FBD
:1009D000CE0101960E944C0465E571E00E94360448
:1009E00069E571E00E943604BE01635F7F4F0E949B
:1009F0004C040E941603CE0101960E94A103CE0171
:100A000007960E94A103CE010D960E94A103629653
:100A10000FB6F894DEBF0FBECDBFDF91CF911F910F
:100A20000F910895CF92DF92EF92FF920F931F9351
:100A3000CF93DF93CDB7DEB72C970FB6F894DEBF18
:100A40000FBECDBFFC0124813581232BD1F18A015A
:100A50007B01C080D18065E671E0C6010E9419105B
:100A6000892BF1F560916002709161026F3F710511
:100A700044F56E0D7F1D7093610260936002C801A2
:100A80000E944E036091600270916102CE01079650
:100A90000E94800467E671E0CE0101960E94B804CE
:100AA000BE01695F7F4FCE0101960E944C040E94F7
:100AB0001603CE0101960E94A103CE0107960E9463
:100AC000A1032C960FB6F894DEBF0FBECDBFDF9109
:100AD000CF911F910F91FF90EF90DF90CF900895ED
:100AE00064E771E0C6010E941910892B51F76091EB
:100AF000600270916102161617061CF76E197F09C5
:100B00007093610260936002C8010E944E0360917D
:100B1000600270916102CE0107960E94800466E730
:100B200071E0BACFCF92DF92EF92FF920F931F93B3
:100B3000CF93DF93CDB7DEB72C970FB6F894DEBF17
:100B40000FBECDBF80915602811106C08091540224
:100B500090915502892B71F5809154029091550224
:100B6000029744F56091540270915502CE010796A8
:100B70000E94800463E871E0CE0101960E94B804EF
:100B8000BE01695F7F4FCE0101960E944C040E9416
:100B90001603CE0101960E94A103CE0107960E9482
:100BA000A1038091540290915502019690935502B1
:100BB0008093540200915C0210915D028091540276
:100BC00090915502019769F580910001882349F1C0
:100BD0002FB7F89460916202709163028091640271
:100BE000909165022FBF0E94B50B609350027093E5
:100BF0005102809352029093530281E080935602F7
:100C0000109200012C960FB6F894DEBF0FBECDBF38
:100C1000DF91CF911F910F91FF90EF90DF90CF90D8
:100C200008958091540290915502029759F72FB779
:100C3000F8946091620270916302809164029091D5
:100C400065022FBF0E94B50B2091500230915102D6
:100C500040915202509153020E940E0D6B017C0193
:100C600020E030E0A9010E94230E181624F0F7FAC4
:100C7000F094F7F8F09410925502109254021092EA
:100C8000560281E08093000120E030E040E051E432
:100C9000C701B6010E94160C9B01AC0160E070E632
:100CA0008AE697E40E947B0D6B017C0120E030E036
:100CB000A9010E94230E20E030E040E05FE387FDC1
:100CC00024C0C701B6010E940F0D0E94ED0D77FDF3
:100CD00099CF60177107F4F4C8010E94C90400910C
:100CE0005E0210915F0265E671E0CE0101960E94FE
:100CF000B804A80163E370E0CE0101960E941205DA
:100D0000CE0101960E94A1037DCFC701B6010E94CA
:100D10000E0DDBCF061717070CF074CFC8010E9429
:100D2000C90400915E0210915F0264E771E0DDCFBB
:100D30001F920F920FB60F9211242F933F934F9350
:100D40005F936F937F938F939F93AF93BF93EF9333
:100D5000FF9386E692E00E944B01FF91EF91BF91D5
:100D6000AF919F918F917F916F915F914F913F9143
:100D70002F910F900FBE0F901F9018951F920F92FA
:100D80000FB60F9211242F938F939F93EF93FF939E
:100D9000E0917602F09177028081E0917C02F091FF
:100DA0007D0282FD1BC0908180917F028F5F8F73D7
:100DB00020918002821741F0E0917F02F0E0EA5931
:100DC000FD4F958F80937F02FF91EF919F918F91BF
:100DD0002F910F900FBE0F901F9018958081F4CF28
:100DE0001F920F920FB60F9211242F933F938F9360
:100DF0009F93AF93BF938091620290916302A09101
:100E00006402B09165023091570223E0230F2D3721
:100E100058F50196A11DB11D2093570280936202DF
:100E200090936302A0936402B0936502809158028C
:100E300090915902A0915A02B0915B020196A11DB6
:100E4000B11D8093580290935902A0935A02B09317
:100E50005B02BF91AF919F918F913F912F910F9026
:100E60000FBE0F901F90189526E8230F0296A11D24
:100E7000B11DD2CF1F920F920FB60F9211242F9354
:100E80003F934F935F936F937F938F939F93AF9312
:100E9000BF93EF93FF93E0910301F0910401099553
:100EA000FF91EF91BF91AF919F918F917F916F9142
:100EB0005F914F913F912F910F900FBE0F901F9018
:100EC00018951F920F920FB60F9211242F933F93F4
:100ED0004F935F936F937F938F939F93AF93BF9342
:100EE000EF93FF93E0910101F09102010995FF91C9
:100EF000EF91BF91AF919F918F917F916F915F9192
:100F00004F913F912F910F900FBE0F901F9018950A
:100F1000E6E6F2E01382128288EE93E0A0E0B0E011
:100F200084839583A683B78381E191E09183808355
:100F300085EC90E09587848784EC90E0978786879E
:100F400080EC90E0918B808B81EC90E0938B828B96
:100F500082EC90E0958B848B86EC90E0978B868B6F
:100F6000118E128E138E148E84EF91E090930403F1
:100F7000809303030895CF93DF93CDB7DEB76A97CD
:100F80000FB6F894DEBF0FBECDBF789484B58260F3
:100F900084BD84B5816084BD85B5826085BD85B51D
:100FA000816085BD80916E00816080936E0010929B
:100FB0008100809181008260809381008091810016
:100FC00081608093810080918000816080938000A7
:100FD0008091B10084608093B1008091B000816005
:100FE0008093B00080917A00846080937A00809131
:100FF0007A00826080937A0080917A008160809389
:101000007A0080917A00806880937A001092C10003
:10101000E0917602F091770282E08083E0917202A3
:10102000F09173021082E0917402F09175028FECDE
:10103000808310927E02E0917A02F0917B0286E03A
:101040008083E0917802F0917902808180618083D1
:10105000E0917802F0917902808188608083E0914C
:101060007802F0917902808180688083E091780233
:10107000F091790280818F7D808361E089E00E9418
:101080005A0261E08AE00E945A0262E087E00E9410
:101090005A0262E085E00E945A0262E084E00E9407
:1010A0005A0262E083E00E945A0262E082E00E94FB
:1010B0005A0260E089E00E942C0260E08AE00E940F
:1010C0002C026091050170910601072E000C880B1F
:1010D000990B0E94B70B6B017C0160910303709127
:1010E0000403072E000C880B990B0E94B70B9B0181
:1010F000AC01C701B6010E94160C20E030E04FE7BA
:1011000053E40E947B0D6B017C0120E030E0A901DB
:101110000E94230E20E030E040E05FE387FD93C0B3
:10112000C701B6010E940F0D0E94ED0D70935D0284
:1011300060935C02CE0101960E94800460910303DB
:1011400070910403CE0107960E94800464E971E067
:10115000CE010D960E94B804BE01695F7F4FCE019B
:101160000D960E944C0465E571E00E9436046FE91B
:1011700071E00E943604BE016F5F7F4F0E944C04F5
:101180000E941603CE010D960E94A103CE01079680
:101190000E94A103CE0101960E94A1038CE493E07A
:1011A000909304018093030180916900837F8460A0
:1011B00080936900E99A82E995E090930201809317
:1011C0000101809169008C7F826080936900E89AB8
:1011D00090E0692E90E0792EE0906002F09061023C
:1011E000A0905E02B0905F0261E271E0CE01439692
:1011F0000E94B80461E271E0CE010D960E94B8042D
:1012000061E271E0CE0107960E94B80486E692E0A2
:101210000E942B01181619067CF561E271E0CE01DF
:1012200001960E94B8040E94DD0097FD11C0898FCD
:101230001A8E41E050E0BE01675E7F4FCE010196FD
:101240000E940A04F0CFC701B6010E940E0D6CCFB8
:10125000BE016F5F7F4FCE0107960E94A903CE01AA
:1012600001960E94A1034B855C856F817885CE0134
:101270000D960E940A04CACFCE0107960E94A103D0
:10128000BE01635F7F4FCE0143960E94A903CE014A
:101290000D960E94A1036DEA71E0CE0101960E94B5
:1012A000B804BE016F5F7F4FCE0143960E94740366
:1012B0008C01CE0101960E94A1030F3F1F4F39F010
:1012C0000E9440038FEA91E00E942903C1C061ECB3
:1012D00071E0CE0101960E94B804BE016F5F7F4F9E
:1012E000CE0143960E9474038C01CE0101960E94A8
:1012F000A1030F3F100739F0B701C5010E944E034B
:1013000083EC91E0E1CF61ED71E0CE0101960E94A6
:10131000B804BE016F5F7F4FCE0143960E947403F5
:101320006C01CE0101960E94A103CD20C09409F466
:101330002DC163ED71E0CE0107960E94B8041E86B0
:101340001D86188A1F861A8A198A6B897C896115FD
:10135000710531F04F89588DCE010D960E945F04C2
:10136000C988DA88C114D10461F0ED84FE846F81EC
:101370007885C7010E942910009719F08C010E1979
:101380001F090F5F1F4FC016D10628F09C2D8D2D11
:101390006801092F182F61E271E0CE0101960E94C9
:1013A000B804E988FA88CE14DF0420F50E151F056D
:1013B00008F47801ED85FE85EE0DFF1D1081108289
:1013C0006D857E856C0D7D1D6115710509F491C0DB
:1013D000FB0101900020E9F73197AF01461B570B45
:1013E000CE0101960E945F048D859E85E80EF91E50
:1013F000F7011083C980DA80C114D10439F00D815E
:101400001E8176010115110509F079C089819A8143
:10141000C12CD12C7601009719F00E943B0B6B0177
:10142000CE0101960E94A103CE010D960E94A10358
:10143000CE0107960E94A103D0920601C092050139
:10144000A114B10409F491C0AA94AB2809F497C07F
:10145000CE0143960E94A1030E94E8024B015C0169
:1014600088E2C82ED12CE12CF12C0E94E8026819E8
:1014700079098A099B09683E734081059105A8F3A3
:10148000E1E0CE1AD108E108F108F8EE8F0EF3E0A2
:101490009F1EA11CB11CC114D104E104F10429F761
:1014A00084E00E940302892B09F0BEC060916002B3
:1014B0007091610280915E0290915F02892B09F028
:1014C000A8C081E090E090935F0280935E020E944A
:1014D0004E0389E092E00E9429036114710409F42B
:1014E0007BCE0E943701882309F476CE0E9400004B
:1014F00073CECE0101960E948F0376CF740147010F
:10150000FFEF8F1A9F0AF7018081082E000C990BBC
:101510000E949C0B892B91F7015011090C0D1D1D88
:10152000F8018081082E000C990B0E949C0B892BDE
:1015300031F00E151F0518F001501109F1CF0F5FA2
:101540001F4FA8014E195F095E834D83CE14DF043F
:1015500020F4B701C6010E941010E981FA818D8143
:101560009E81E80FF91F108251CF70E060E08AE0A1
:101570000E948B02B60189E00E948B0269CFB601FE
:101580008AE00E948B0270E060E0F5CF65ED71E0CB
:10159000CE0101960E94B804BE016F5F7F4FCE015D
:1015A00043960E9474038C01CE0101960E94A10310
:1015B0000F3F1F4F61F081E090E090935F028093B6
:1015C0005E02B7010E944E0387ED91E07DCE6DEE85
:1015D00071E0CE0101960E94B804BE016F5F7F4F9B
:1015E000CE0143960E9474038C01CE0101960E94A5
:1015F000A1030F3F1F4F09F42BCF10925F021092EF
:101600005E02B70190E080E00E944E038FEE91E011
:101610005BCE10925F0210925E0290E080E00E942A
:101620004E038EE292E057CF87E00E9403020091C2
:101630005E0210915F0265E671E0892B61F085E042
:101640000E940302892B09F048CF00915E0210919D
:101650005F0264E771E0CE0101960E94B804A80120
:1016600063E370E0CE0101960E941205CE0101965F
:101670000E94A10332CF1F93FC0199278827BC0148
:10168000E89411911032E9F3193010F01E30C8F3CC
:101690001B3251F01D3249F4689406C00E946D0B54
:1016A000610F711D811D911D119110531A30B0F3FE
:1016B0003EF490958095709561957F4F8F4F9F4F29
:1016C0001F910895BB274A3031F4992322F4BDE2DB
:1016D000909581959F4F0C94830B592F482F372F4E
:1016E000262F660F771F881F991F660F771F881F89
:1016F000991F620F731F841F951F660F771F881F26
:10170000991F0895BB27FB015527AA27880F991F0A
:10171000AA1FA41710F0A41B83955051B9F7A05D20
:10172000AA3308F0A95DA193009779F7B111B1939D
:101730001192CB010C94A50B91110C94830C803267
:1017400019F089508550C8F70895DC01FC01672F16
:1017500071917723E1F7329704C07C916D93708388
:101760006291AE17BF07C8F30895E89409C097FBCC
:101770003EF490958095709561957F4F8F4F9F4F68
:101780009923A9F0F92F96E9BB279395F6958795AC
:1017900077956795B795F111F8CFFAF4BB0F11F46F
:1017A00060FF1BC06F5F7F4F8F4F9F4F16C0882316
:1017B00011F096E911C0772321F09EE8872F762F4C
:1017C00005C0662371F096E8862F70E060E02AF08D
:1017D0009A95660F771F881FDAF7880F9695879579
:1017E00097F90895990F0008550FAA0BE0E8FEEF4E
:1017F00016161706E807F907C0F012161306E407D5
:10180000F50798F0621B730B840B950B39F40A26CD
:1018100061F0232B242B252B21F408950A2609F4AB
:10182000A140A6958FEF811D811D08950E94290C6E
:101830000C949D0C0E948F0C38F00E94960C20F0A6
:10184000952311F00C94860C0C948C0C11240C94A0
:10185000D10C0E94AE0C70F3959FC1F3950F50E030
:10186000551F629FF001729FBB27F00DB11D639F52
:10187000AA27F00DB11DAA1F649F6627B00DA11DF8
:10188000661F829F2227B00DA11D621F739FB00D9E
:10189000A11D621F839FA00D611D221F749F33270E
:1018A000A00D611D231F849F600D211D822F762FA7
:1018B0006A2F11249F5750409AF0F1F088234AF084
:1018C000EE0FFF1FBB1F661F771F881F91505040F0
:1018D000A9F79E3F510580F00C94860C0C94D10C16
:1018E0005F3FE4F3983ED4F3869577956795B79577
:1018F000F795E7959F5FC1F7FE2B880F911D969591
:10190000879597F9089599278827089597F99F67EC
:1019100080E870E060E008959FEF80EC0895002477
:101920000A941616170618060906089500240A9444
:1019300012161306140605060895092E0394000CCA
:1019400011F4882352F0BB0F40F4BF2B11F460FF59
:1019500004C06F5F7F4F8F4F9F4F089557FD905882
:10196000440F551F59F05F3F71F04795880F97FB63
:10197000991F61F09F3F79F087950895121613061D
:101980001406551FF2CF4695F1DF08C0161617064C
:101990001806991FF1CF8695710561050894089581
:1019A000E894BB2766277727CB0197F908952F92F4
:1019B0003F924F925F926F927F928F929F92AF92DF
:1019C000BF92CF92DF92EF92FF920F931F93CF932C
:1019D000DF93CDB7DEB7CA1BDB0B0FB6F894DEBFC3
:1019E0000FBECDBF09942A88398848885F846E84E9
:1019F0007D848C849B84AA84B984C884DF80EE8033
:101A0000FD800C811B81AA81B981CE0FD11D0FB63B
:101A1000F894DEBF0FBECDBFED0108955058BB272F
:101A2000AA270E94260D0C949D0C0E948F0C38F062
:101A30000E94960C20F039F49F3F19F426F40C9480
:101A40008C0C0EF4E095E7FB0C94860CE92F0E94B9
:101A5000AE0C58F3BA17620773078407950720F096
:101A600079F4A6F50C94D00C0EF4E0950B2EBA2F59
:101A7000A02D0B01B90190010C01CA01A001112494
:101A8000FF27591B99F0593F50F4503E68F11A1640
:101A9000F040A22F232F342F4427585FF3CF4695D1
:101AA00037952795A795F0405395C9F77EF41F16F3
:101AB000BA0B620B730B840BBAF09150A1F0FF0FBD
:101AC000BB1F661F771F881FC2F70EC0BA0F621FA9
:101AD000731F841F48F4879577956795B795F79599
:101AE0009E3F08F0B0CF9395880F08F09927EE0F2E
:101AF0009795879508950E948F0D0C949D0C0E94D8
:101B0000960C58F00E948F0C40F029F45F3F29F0AA
:101B10000C94860C51110C94D10C0C948C0C0E94DA
:101B2000AE0C68F39923B1F3552391F3951B550B34
:101B3000BB27AA2762177307840738F09F5F5F4FA0
:101B4000220F331F441FAA1FA9F335D00E2E3AF0DF
:101B5000E0E832D091505040E695001CCAF72BD0F7
:101B6000FE2F29D0660F771F881FBB1F2617370748
:101B70004807AB07B0E809F0BB0B802DBF01FF277A
:101B800093585F4F3AF09E3F510578F00C94860CC5
:101B90000C94D10C5F3FE4F3983ED4F3869577958F
:101BA0006795B795F7959F5FC9F7880F911D969533
:101BB000879597F90895E1E0660F771F881FBB1F8F
:101BC000621773078407BA0720F0621B730B840B3C
:101BD000BA0BEE1F88F7E09508950E94F40D689403
:101BE000B1110C94D10C08950E94B60C88F09F5747
:101BF00098F0B92F9927B751B0F0E1F0660F771F31
:101C0000881F991F1AF0BA95C9F714C0B13091F026
:101C10000E94D00CB1E008950C94D00C672F782F5F
:101C20008827B85F39F0B93FCCF3869577956795EB
:101C3000B395D9F73EF490958095709561957F4F57
:101C40008F4F9F4F08950E94F20B08F48FEF089575
:101C5000EE0FFF1F0590F491E02D09940F931F9351
:101C6000CF93DF938230910510F482E090E0E09111
:101C70000703F091080330E020E0B0E0A0E03097E7
:101C800099F42115310509F44AC0281B390B243079
:101C90003105D8F58A819B816115710589F1FB01B8
:101CA00093838283FE0111C040815181028113819F
:101CB00048175907E0F04817590799F4109761F051
:101CC00012960C93129713961C933296CF01DF91C4
:101CD000CF911F910F91089500930703109308036C
:101CE000F4CF2115310551F04217530738F0A901FF
:101CF000DB019A01BD01DF01F801C1CFEF01F9CF8E
:101D00009093080380930703CDCFFE01E20FF31FEA
:101D1000819391932250310939832883D7CF209121
:101D2000050330910603232B41F4209109013091E2
:101D30000A01309306032093050320910701309197
:101D400008012115310541F42DB73EB740910B0133
:101D500050910C01241B350BE0910503F091060313
:101D6000E217F307A0F42E1B3F0B2817390778F072
:101D7000AC014E5F5F4F2417350748F04E0F5F1FD1
:101D80005093060340930503819391939FCFF0E016
:101D9000E0E09CCFCF93DF930097E9F0FC0132970E
:101DA00013821282A0910703B0910803ED0130E085
:101DB00020E01097A1F420813181820F931F2091A0
:101DC0000503309106032817390709F061C0F09325
:101DD0000603E0930503DF91CF910895EA01CE1742
:101DE000DF07E8F54A815B819E0141155105B1F796
:101DF000E901FB83EA8349915991C40FD51FEC1780
:101E0000FD0761F4808191810296840F951FE9019D
:101E100099838883828193819B838A83F0E0E0E0C9
:101E200012968D919C9113970097B9F52D913C9145
:101E30001197CD010296820F931F209105033091D7
:101E400006032817390739F6309751F51092080321
:101E500010920703B0930603A0930503BCCFD3836E
:101E6000C28340815181840F951FC817D90761F43F
:101E70004E5F5F4F88819981480F591F518340837E
:101E80008A819B81938382832115310509F0B0CF2C
:101E9000F0930803E09307039ECFFD01DC01C0CF60
:101EA00013821282D7CFB0E0A0E0E9E5FFE00C9406
:101EB000D90C8C01009751F4CB010E942E0E8C019D
:101EC000C801CDB7DEB7E0E10C94F50CFC01E60FDC
:101ED000F71F9C0122503109E217F30708F49DC057
:101EE000D901CD91DC911197C617D70798F0C5306D
:101EF000D10530F3CE0104978617970708F3C61B68
:101F0000D70B2297C193D1936D937C93CF010E94FD
:101F1000CA0ED6CF5B01AC1ABD0A4C018C0E9D1EB9
:101F2000A0910703B0910803512C412CF12CE12C16
:101F3000109731F580910503909106038815990556
:101F400009F05CC04616570608F058C0809107019A
:101F500090910801009741F48DB79EB740910B0115
:101F600050910C01841B950BE817F90708F055C038
:101F7000F0930603E0930503F90171836083A0CF1A
:101F80008D919C91119712966C90129713967C905C
:101F90001397A815B90559F56C0142E0C40ED11C80
:101FA000CA14DB0420F1AC014A195B09DA0112966C
:101FB000159780F06282738251834083D9016D93BB
:101FC0007C93E114F10471F0D7011396FC93EE9326
:101FD000129776CF22968C0F9D1FF90191838083F3
:101FE000F301EFCFF0930803E093070369CF48169E
:101FF000590608F42C017D01D3019ACFCB010E9430
:102000002E0E7C01009749F0AE01B8010E9410101D
:10201000C8010E94CA0E870153CF10E000E050CFE4
:10202000FB01DC0102C001900D9241505040D8F7F5
:102030000895FB01DC018D91019080190110D9F305
:10204000990B0895FB01DC0101900D920020E1F74E
:102050000895FB0151915523A9F0BF01DC014D9179
:1020600045174111E1F759F4CD010190002049F0E5
:102070004D9140154111C9F3FB014111EFCF81E0B2
:0A20800090E001970895F894FFCF57
:10208A00010D030D03990000000903800000000000
:10209A00006D018D00BA00BA012B01C9001D010DA6
:1020AA000A00506172616E646F206D6F76696D65AA
:1020BA006E746F006F70C3A7C3A36F20696E6573D8
:1020CA00697374656E746500524D505F546172672E
:1020DA0065743A2000207C2000524D505F4174758F
:1020EA00616C3A20002B002B56656C6F6369646142
:1020FA00203D20002D002D56656C6F6369646120B8
:10210A003D200070756C7365204C616EC3A76164D5
:10211A006F3A200052504D206D6F746F722000523A
:10212A00504D5F546172676574203D200073003E14
:10213A003E2873292073746F70206D61742E2E2EC1
:10214A000072003E3E2872292072756E206D6174FD
:10215A000076002C0068003E3E2868292073656ED0
:10216A007469646F20686F726172696F0061003E02
:10217A003E2861292073656E7469646F20616E74EC
:10218A0069686F726172696F006D6F746F72206730
:10219A006972616E646F206E6F2073656E74696414
:1021AA006F20616E7469686F726172696F004D6F3A
:1021BA00746F7220676972616E646F206E6F20732C
:1021CA00656E7469646F20686F726172696F00006E
:00000001FF
