:100000000C9462000C94CE060C94A7060C948A0003
:100010000C948A000C948A000C948A000C948A0038
:100020000C948A000C948A000C948A000C948A0028
:100030000C948A000C948A000C948A000C948A0018
:100040000C945D060C948A000C942B060C94050607
:100050000C948A000C948A000C948A000C948A00F8
:100060000C948A000C948A000000000024002700F1
:100070002A0000000000250028002B0000000000DE
:1000800023002600290004040404040404040202DA
:100090000202020203030303030301020408102007
:1000A0004080010204081020010204081020000012
:1000B0000008000201000003040700000000000027
:1000C0000000F50611241FBECFEFD8E0DEBFCDBF84
:1000D00022E0A2E2B2E001C01D92AF3DB207E1F71B
:1000E00012E0A0E0B1E0E2E7FFE102C005900D926E
:1000F000A232B107D9F710E0C2E6D0E004C02197E0
:10010000FE010E949C0DC136D107C9F70E94280745
:100110000C94B70F0C9400000895AF92BF92CF9249
:10012000DF92EF92FF920F931F93CF93DF936C01B7
:100130007B018B01040F151FEB015E01AE18BF0898
:10014000C017D10759F06991D601ED91FC9101904A
:10015000F081E02DC6010995892B79F7C501DF9162
:10016000CF911F910F91FF90EF90DF90CF90BF90B4
:10017000AF900895FC01538D448D252F30E0842FDE
:1001800090E0821B930B541710F0CF9608950197BF
:100190000895FC01918D828D981761F0A28DAE0FAC
:1001A000BF2FB11D5D968C91928D9F5F9F73928F33
:1001B00090E008958FEF9FEF08952FB7F894809106
:1001C000380290913902A0913A02B0913B022FBFC0
:1001D0008093440290934502A0934602B093470255
:1001E0008CE392E00E94C90097FF26C02FB7F894D5
:1001F0008091380290913902A0913A02B0913B026D
:100200002FBF409144025091450260914602709187
:100210004702841B950BA60BB70B409140025091EF
:100220004102609142027091430284179507A6072C
:10023000B707B0F28FEF9FEF0895FC01918D828D8B
:10024000981731F0828DE80FF11D858D90E00895AB
:100250008FEF9FEF0895FC01918D228D892F90E003
:10026000805C9F4F821B91098F73992708958CE3BF
:1002700092E00E942B0121E0892B09F420E0822FDB
:10028000089580E090E0892B29F00E9437018111C8
:100290000C9400000895FC01A48DA80FB92FB11D86
:1002A000A35ABF4F2C91848D90E001968F739927AC
:1002B000848FA689B7892C93A089B1898C9183708A
:1002C00080648C93938D848D981306C00288F38983
:1002D000E02D80818F7D80830895EF92FF920F93B0
:1002E0001F93CF93DF93EC0181E0888F9B8D8C8DE2
:1002F00098131AC0E889F989808185FF15C09FB7D6
:10030000F894EE89FF896083E889F9898081837098
:10031000806480839FBF81E090E0DF91CF911F9147
:100320000F91FF90EF900895F62E0B8D10E00F5F68
:100330001F4F0F731127E02E8C8D8E110CC00FB63E
:1003400007FCFACFE889F989808185FFF5CFCE01D6
:100350000E944B01F1CFEB8DEC0FFD2FF11DE35A05
:10036000FF4FF0829FB7F8940B8FEA89FB89808159
:100370008062CFCFCF93DF93EC01888D8823B9F0D3
:10038000AA89BB89E889F9898C9185FD03C08081A0
:1003900086FD0DC00FB607FCF7CF8C9185FFF2CF1D
:1003A000808185FFEDCFCE010E944B01E9CFDF9127
:1003B000CF910895833081F028F4813099F0823014
:1003C000A9F008958730A9F08830C9F08430B1F4DD
:1003D000809180008F7D03C0809180008F77809313
:1003E0008000089584B58F7784BD089584B58F7D8E
:1003F000FBCF8091B0008F778093B00008958091FB
:10040000B0008F7DF9CFCF93DF93282F30E0F90133
:10041000E255FF4F8491F901E656FF4FD491F9015F
:10042000EA57FF4FC491CC23A1F081110E94DA0159
:10043000EC2FF0E0EE0FFF1FE458FF4FA591B491B1
:10044000EC91ED2381E090E009F480E0DF91CF9121
:10045000089580E090E0FACF1F93CF93DF93282F89
:1004600030E0F901E255FF4F8491F901E656FF4F64
:10047000D491F901EA57FF4FC491CC23A9F0162F6C
:1004800081110E94DA01EC2FF0E0EE0FFF1FEE5811
:10049000FF4FA591B4918FB7F894EC91111108C05A
:1004A000D095DE23DC938FBFDF91CF911F9108950C
:1004B000DE2BF8CFCF93DF9390E0FC01E656FF4FA1
:1004C00024918A579F4FFC0184918823D1F090E0BA
:1004D000880F991FFC01E859FF4FA591B491FC01C9
:1004E000EE58FF4FC591D491623071F49FB7F894E4
:1004F0003C91822F809583238C93E8812E2B288337
:100500009FBFDF91CF9108958FB7F894EC912E2B78
:100510002C938FBFF6CF1F93CF93DF93182FEB0150
:1005200061E00E945A02209739F460E0812FDF9148
:10053000CF911F910C942C02CF3FD10511F461E0B3
:10054000F5CFE12FF0E0E255FF4FE491E33031F1D8
:1005500040F4E130B1F0E230E1F0C038D1057CF791
:10056000E4CFE73029F1E83059F1E430B1F7809178
:100570008000806280938000D0938B00C0938A00BB
:1005800004C084B5806884BDC7BDDF91CF911F9141
:10059000089584B5806284BDC8BDF7CF8091800086
:1005A000806880938000D0938900C0938800EDCF4D
:1005B0008091B00080688093B000C093B300E5CF15
:1005C0008091B00080628093B000C093B400DDCF12
:1005D0003FB7F89480912A0290912B02A0912C02AF
:1005E000B0912D0226B5A89B05C02F3F19F00196AA
:1005F000A11DB11D3FBFBA2FA92F982F8827BC017D
:10060000CD01620F711D811D911D42E0660F771FA4
:10061000881F991F4A95D1F70895089542E050E048
:100620006FE171E08CE392E00C948D00CF93DF9347
:10063000FC0144815581608171818CE392E00E94CC
:100640008D00EC010E940E038C0F9D1FDF91CF9156
:100650000895CF93DF93FC0101900020E9F73197D3
:10066000AF01481B590BBC018CE392E00E948D0046
:10067000EC010E940E038C0F9D1FDF91CF91089516
:1006800082E291E00E94290360E089E00E942C024E
:1006900060E08AE00C942C020C944003CF93DF932B
:1006A000EB018130910581F08330910599F0892B20
:1006B000A9F470E060E08AE00E948B02BE0189E04C
:1006C000DF91CF910C948B028AE00E948B0270E044
:1006D00060E0F5CFDF91CF910C94400384E391E08B
:1006E000DF91CF910C942903CF93DF93EC018881A4
:1006F0009981009711F00E943E0E198218821D8286
:100700001C821B821A82DF91CF910895FC018081A7
:100710009181009711F00C943E0E08950F931F9352
:10072000CF93DF93EC0188819981009759F02A815A
:100730003B812617370730F081E0DF91CF911F9181
:100740000F9108958B016F5F7F4F0E94C70E009736
:1007500059F0998388831B830A832C813D81232B45
:1007600059F7FC011082E8CF80E0E7CFEF92FF92CB
:100770000F931F93CF93DF936115710541F480E0D0
:10078000DF91CF911F910F91FF90EF900895411548
:100790005105B1F07B01EC010C811D81040F151F87
:1007A000B8010E948E03882351F3288139818C81FE
:1007B0009D81B701820F931F0E94960F1D830C83AA
:1007C00081E0DECFCF93DF93EC01FB0101900020AD
:1007D000E9F73197AF01461B570B0E94B603811111
:1007E00003C0CE010E947403CE01DF91CF91089522
:1007F000CF93DF93EC01FB014481558160817181CE
:100800000E94B603811103C0CE010E947403CE0181
:10081000DF91CF910895EF92FF920F931F93CF93A3
:10082000DF93EC017B018A01BA010E948E038111E2
:100830000BC0CE010E947403CE01DF91CF911F91B6
:100840000F91FF90EF9008951D830C83B70188816D
:1008500099810E94960FF0CFEF92FF920F931F9312
:10086000CF93DF93CDB7DEB762970FB6F894DEBFB4
:100870000FBECDBF8C01CB01F80111821082138213
:100880001282158214824AE09E012F5F3F4F790148
:10089000B9010E94D60AF70101900020E9F73197CB
:1008A000AF014E195F09B701C8010E940B0462969F
:1008B0000FB6F894DEBF0FBECDBFDF91CF911F9171
:1008C0000F91FF90EF900895FC0111821082138226
:1008D000128215821482FB0101900020E9F7319702
:1008E000AF01461B570B0C940B04CF92DF92EF9293
:1008F000FF920F931F93CF93DF93CDB7DEB72C9763
:100900000FB6F894DEBF0FBECDBFFC012481358148
:10091000232BD1F18A017B01C080D18068E471E092
:10092000C6010E948D0F892BF1F5609136027091FE
:1009300037026F3F710544F56E0D7F1D70933702CE
:1009400060933602C8010E944E0360913602709196
:100950003702CE0107960E942C046AE471E0CE01B2
:1009600001960E946404BE01695F7F4FCE0101962B
:100970000E94F8030E941603CE0101960E9486038E
:10098000CE0107960E9486032C960FB6F894DEBF20
:100990000FBECDBFDF91CF911F910F91FF90EF90D0
:1009A000DF90CF90089567E571E0C6010E948D0F3A
:1009B000892B51F76091360270913702161617068F
:1009C0001CF76E197F097093370260933602C801D5
:1009D0000E944E036091360270913702CE01079655
:1009E0000E942C0469E571E0BACF0F931F93CF9357
:1009F000DF9300D000D000D0CDB7DEB70091340235
:100A00001091350267E571E0CE0101960E94640401
:100A1000A80165E070E0CE0101960E947504CE0148
:100A200001960E94860326960FB6F894DEBF0FBE8D
:100A3000CDBFDF91CF911F910F910895CF92DF929B
:100A4000EF92FF920F931F93CF93DF9300D000D0CC
:100A500000D0CDB7DEB780912802811106C0809109
:100A6000260290912702892B79F480912602909199
:100A7000270202974CF4809126029091270201965A
:100A8000909327028093260200912F02109130024A
:100A900080912602909127020197B1F58091000183
:100AA000882391F12FB7F894609138027091390240
:100AB00080913A0290913B022FBF0E94290B6093D4
:100AC000220270932302809324029093250281E0F6
:100AD00080932802109200018FEF9FEF90933202D3
:100AE0008093310281E08093330226960FB6F8940A
:100AF000DEBF0FBECDBFDF91CF911F910F91FF9051
:100B0000EF90DF90CF900895809126029091270278
:100B1000029711F72FB7F89460913802709139025B
:100B200080913A0290913B022FBF0E94290B2091A5
:100B300022023091230240912402509125020E940A
:100B4000820C6B017C0120E030E0A9010E94970D2E
:100B5000181624F0F7FAF094F7F8F09410922702A0
:100B6000109226021092280281E08093000120E07A
:100B700030E040E051E4C701B6010E948A0B9B01BE
:100B8000AC0160E070E68AE697E40E94EF0C6B012E
:100B90007C0120E030E0A9010E94970D20E030E0C8
:100BA00040E05FE387FD25C0C701B6010E94830CCA
:100BB0000E94610D709332026093310277FD92CFF3
:100BC00060177107DCF4009134021091350268E47B
:100BD00071E0CE0101960E946404A80165E070E016
:100BE000CE0101960E947504CE0101960E948603F3
:100BF00079CFC701B6010E94820CDACF061717071A
:100C00000CF070CF0E94F5046DCF1F920F920FB6BB
:100C10000F9211242F933F934F935F936F937F9382
:100C20008F939F93AF93BF93EF93FF938CE392E0E7
:100C30000E944B01FF91EF91BF91AF919F918F91D6
:100C40007F916F915F914F913F912F910F900FBEC8
:100C50000F901F9018951F920F920FB60F921124AC
:100C60002F938F939F93EF93FF93E0914C02F0911A
:100C70004D028081E0915202F091530282FD1BC02F
:100C80009081809155028F5F8F7320915602821759
:100C900041F0E0915502F0E0E45CFD4F958F8093C8
:100CA0005502FF91EF919F918F912F910F900FBE61
:100CB0000F901F9018958081F4CF1F920F920FB65E
:100CC0000F9211242F933F938F939F93AF93BF93D2
:100CD0008091380290913902A0913A02B0913B0282
:100CE0003091290223E0230F2D3758F50196A11DDD
:100CF000B11D209329028093380290933902A0936A
:100D00003A02B0933B0280912A0290912B02A0916B
:100D10002C02B0912D020196A11DB11D80932A02D3
:100D200090932B02A0932C02B0932D02BF91AF9110
:100D30009F918F913F912F910F900FBE0F901F9019
:100D4000189526E8230F0296A11DB11DD2CF1F9240
:100D50000F920FB60F9211242F933F934F935F93EF
:100D60006F937F938F939F93AF93BF93EF93FF9373
:100D7000E0910301F09104010995FF91EF91BF917A
:100D8000AF919F918F917F916F915F914F913F9123
:100D90002F910F900FBE0F901F9018951F920F92DA
:100DA0000FB60F9211242F933F934F935F936F933E
:100DB0007F938F939F93AF93BF93EF93FF93E091B4
:100DC0000101F09102010995FF91EF91BF91AF915F
:100DD0009F918F917F916F915F914F913F912F9153
:100DE0000F900FBE0F901F901895ECE3F2E0138266
:100DF000128288EE93E0A0E0B0E084839583A6831E
:100E0000B78381E191E09183808385EC90E09587C1
:100E1000848784EC90E09787868780EC90E0918BC4
:100E2000808B81EC90E0938B828B82EC90E0958BB1
:100E3000848B86EC90E0978B868B118E128E138EAE
:100E4000148E8EE391E09093DA028093D902089594
:100E5000CF93DF93CDB7DEB768970FB6F894DEBFB8
:100E60000FBECDBF789484B5826084BD84B58160A7
:100E700084BD85B5826085BD85B5816085BD809165
:100E80006E00816080936E001092810080918100DD
:100E900082608093810080918100816080938100D5
:100EA000809180008160809380008091B100846097
:100EB0008093B1008091B00081608093B0008091F8
:100EC0007A00846080937A0080917A0082608093B7
:100ED0007A0080917A00816080937A0080917A0014
:100EE000806880937A001092C100E0914C02F091EA
:100EF0004D0282E08083E0914802F0914902108225
:100F0000E0914A02F0914B028FEC808310925402E0
:100F1000E0915002F091510286E08083E0914E0210
:100F2000F0914F02808180618083E0914E02F091C8
:100F30004F02808188608083E0914E02F0914F02E1
:100F4000808180688083E0914E02F0914F02808121
:100F50008F7D808361E089E00E945A0261E08AE02F
:100F60000E945A0262E087E00E945A0262E085E035
:100F70000E945A0262E084E00E945A0262E083E02A
:100F80000E945A0262E082E00E945A0260E089E018
:100F90000E942C0260E08AE00E942C026091050110
:100FA00070910601072E000C880B990B0E942B0BE9
:100FB0006B017C016091D9027091DA02072E000C5E
:100FC000880B990B0E942B0B9B01AC01C701B6014A
:100FD0000E948A0B20E030E04FE753E40E94EF0CC0
:100FE0006B017C0120E030E0A9010E94970D20E018
:100FF00030E040E05FE387FD8EC0C701B6010E948C
:10100000830C0E94610D7093300260932F02CE0119
:1010100001960E942C046091D9027091DA02CE01EF
:1010200007960E942C0466E671E0CE010D960E94A0
:101030006404BE01695F7F4FCE010D960E94F803E4
:1010400061E771E00E94E20365E771E00E94E2035C
:10105000BE016F5F7F4F0E94F8030E941603CE010E
:101060000D960E948603CE0107960E948603CE014C
:1010700001960E9486038CE493E090930401809390
:10108000030180916900837F846080936900E99AFD
:101090008EE195E0909302018093010180916900B7
:1010A0008C7F826080936900E89A90E0692E90E0DE
:1010B000792E0091360210913702A0903402B09040
:1010C000350261E271E0CE0143960E94640461E260
:1010D00071E0CE0107960E9464048CE392E00E94C6
:1010E0002B01181619060CF053C061E271E0CE0115
:1010F00001960E9464040E94DD0097FD11C08D8757
:101100001E8641E050E0BE01635F7F4FCE01019635
:101110000E94B603F0CFC701B6010E94820C71CFC6
:101120008F819885009719F169817A816115710520
:10113000E1F049855A852D813E8142175307A8F079
:101140000E94960F8D819E819C878B871E821D82B7
:10115000CE0101960E9486034B855C856F81788560
:10116000CE0143960E94B603B8CF0E943E0E8981FD
:101170009A8198878F838B819C819A8789878D81BB
:101180009E819C878B871A8219821C821B82DECFEC
:10119000CE0107960E9486038F89988D892B21F0B6
:1011A000EB89FC89309721F410922E02EEE2F2E0F6
:1011B0008081833761F0863709F4A2C0823769F4F1
:1011C000B801C5010E944E0385E991E004C00E9468
:1011D000400383E891E00E942903CE0143960E94D8
:1011E00086030E94E8026B017C0188E2882E912C24
:1011F000A12CB12C0E94E8026C197D098E099F096F
:10120000683E734081059105A8F321E0821A910898
:10121000A108B10838EEC30E33E0D31EE11CF11C67
:1012200081149104A104B10429F784E00E9403020F
:10123000892B09F070C1609136027091370280915C
:10124000340290913502892B09F05AC181E090E077
:1012500090933502809334020E944E0383EC91E018
:101260000E942903809133028823F1F160913102B9
:101270007091320216161706BCF500912F021091DC
:101280003002CE0101960E942C04B801CE010796CF
:101290000E942C0469E072E0CE010D960E94640465
:1012A000BE01695F7F4FCE010D960E94F80361E792
:1012B00071E00E94E20366E172E00E94E203BE0177
:1012C0006F5F7F4F0E94F8030E941603CE010D96B8
:1012D0000E948603CE0107960E948603CE010196E6
:1012E0000E948603109233026114710409F4E1CE66
:1012F0000E943701882309F4DCCE0E940000D9CE79
:1013000063EA71E0CE0107960E9464041E861D8682
:10131000188A1F861A8A198A6B897C89611571055A
:1013200031F04F89588DCE010D960E940B04C9886B
:10133000DA88C114D10409F493C00D851E856F812C
:101340007885C8010E949D0F009709F489C09C010F
:10135000201B310B89010F5F1F4FC016D10628F0EB
:101360009C2D8D2D6801092F182F61E271E0CE01AF
:1013700001960E946404E988FA88CE14DF0420F5FF
:101380000E151F0508F47801ED85FE85EE0DFF1D95
:10139000108110826D857E856C0D7D1D6115710536
:1013A00009F461C0FB0101900020E9F73197AF011A
:1013B000461B570BCE0101960E940B048D859E851E
:1013C000E80EF91EF7011083C980DA80C114D10438
:1013D00039F00D811E8176010115110509F049C012
:1013E00089819A81C12CD12C7601009719F00E9435
:1013F000AF0A6B018601CE0101960E948603CE01E1
:101400000D960E948603CE0107960E948603D09215
:101410000601C0920501A114B10409F460C0AA94A8
:10142000AB2809F466C0B801CE0101960E942C04D5
:1014300065EA71E0CE0107960E946404BE016F5F09
:101440007F4FCE0107960E94F8030E941603CE013B
:1014500007960E948603CE0101960E948603BDCEA8
:101460000FEF1FEF78CFCE0101960E947403A6CF35
:1014700074014701FFEF8F1A9F0AF7018081082E40
:10148000000C990B0E94100B892B91F70150110948
:101490000C0D1D1DF8018081082E000C990B0E9477
:1014A000100B892B31F00E151F0518F00150110992
:1014B000F1CF0F5F1F4FA8014E195F095E834D8367
:1014C000CE14DF0420F4B701C6010E94840FE98125
:1014D000FA818D819E81E80FF91F108281CF70E023
:1014E00060E08AE00E948B02B60189E00E948B02D4
:1014F0009ACFB6018AE00E948B0270E060E0F5CFDF
:10150000109235021092340290E080E00E944E0367
:1015100088EE91E0A5CE87E00E940302892BB1F40A
:10152000009134021091350268E471E0CE01019619
:101530000E946404A80165E070E0CE0101960E945B
:101540007504CE0101960E9486038CCE85E00E9430
:101550000302892B09F086CE0E94F50483CE1F93E7
:10156000FC0199278827BC01E89411911032E9F316
:10157000193010F01E30C8F31B3251F01D3249F4FF
:10158000689406C00E94E10A610F711D811D911DC2
:10159000119110531A30B0F33EF4909580957095E8
:1015A00061957F4F8F4F9F4F1F910895BB274A3002
:1015B00031F4992322F4BDE2909581959F4F0C94CC
:1015C000F70A592F482F372F262F660F771F881FAE
:1015D000991F660F771F881F991F620F731F841F43
:1015E000951F660F771F881F991F0895BB27FB0162
:1015F0005527AA27880F991FAA1FA41710F0A41B0C
:1016000083955051B9F7A05DAA3308F0A95DA19365
:10161000009779F7B111B1931192CB010C94190B8A
:1016200091110C94F70B803219F089508550C8F74E
:101630000895DC01FC01672F71917723E1F7329760
:1016400004C07C916D9370836291AE17BF07C8F39D
:101650000895E89409C097FB3EF4909580957095A5
:1016600061957F4F8F4F9F4F9923A9F0F92F96E9EE
:10167000BB279395F695879577956795B795F11163
:10168000F8CFFAF4BB0F11F460FF1BC06F5F7F4F00
:101690008F4F9F4F16C0882311F096E911C0772312
:1016A00021F09EE8872F762F05C0662371F096E81B
:1016B000862F70E060E02AF09A95660F771F881FEA
:1016C000DAF7880F9695879597F90895990F00088E
:1016D000550FAA0BE0E8FEEF16161706E807F90704
:1016E000C0F012161306E407F50798F0621B730B9F
:1016F000840B950B39F40A2661F0232B242B252B20
:1017000021F408950A2609F4A140A6958FEF811DC2
:10171000811D08950E949D0B0C94110C0E94030CD6
:1017200038F00E940A0C20F0952311F00C94FA0B6B
:101730000C94000C11240C94450C0E94220C70F3A4
:10174000959FC1F3950F50E0551F629FF001729F66
:10175000BB27F00DB11D639FAA27F00DB11DAA1F75
:10176000649F6627B00DA11D661F829F2227B00DC2
:10177000A11D621F739FB00DA11D621F839FA00D4D
:10178000611D221F749F3327A00D611D231F849F9D
:10179000600D211D822F762F6A2F11249F575040F4
:1017A0009AF0F1F088234AF0EE0FFF1FBB1F661F6F
:1017B000771F881F91505040A9F79E3F510580F038
:1017C0000C94FA0B0C94450C5F3FE4F3983ED4F371
:1017D000869577956795B795F795E7959F5FC1F7DC
:1017E000FE2B880F911D9695879597F90895992757
:1017F0008827089597F99F6780E870E060E0089572
:101800009FEF80EC089500240A9416161706180618
:101810000906089500240A941216130614060506F4
:101820000895092E0394000C11F4882352F0BB0F85
:1018300040F4BF2B11F460FF04C06F5F7F4F8F4FE8
:101840009F4F089557FD9058440F551F59F05F3F23
:1018500071F04795880F97FB991F61F09F3F79F0D2
:1018600087950895121613061406551FF2CF469554
:10187000F1DF08C0161617061806991FF1CF8695D6
:101880007105610508940895E894BB2766277727BA
:10189000CB0197F908952F923F924F925F926F92EA
:1018A0007F928F929F92AF92BF92CF92DF92EF92F0
:1018B000FF920F931F93CF93DF93CDB7DEB7CA1B71
:1018C000DB0B0FB6F894DEBF0FBECDBF09942A889C
:1018D000398848885F846E847D848C849B84AA8444
:1018E000B984C884DF80EE80FD800C811B81AA81D1
:1018F000B981CE0FD11D0FB6F894DEBF0FBECDBF9C
:10190000ED0108955058BB27AA270E949A0C0C9409
:10191000110C0E94030C38F00E940A0C20F039F4DC
:101920009F3F19F426F40C94000C0EF4E095E7FBAD
:101930000C94FA0BE92F0E94220C58F3BA17620795
:1019400073078407950720F079F4A6F50C94440CEE
:101950000EF4E0950B2EBA2FA02D0B01B9019001CA
:101960000C01CA01A0011124FF27591B99F0593F0E
:1019700050F4503E68F11A16F040A22F232F342F56
:101980004427585FF3CF469537952795A795F040A4
:101990005395C9F77EF41F16BA0B620B730B840BB9
:1019A000BAF09150A1F0FF0FBB1F661F771F881F71
:1019B000C2F70EC0BA0F621F731F841F48F48795C9
:1019C00077956795B795F7959E3F08F0B0CF9395BB
:1019D000880F08F09927EE0F9795879508950E9434
:1019E000030D0C94110C0E940A0C58F00E94030C79
:1019F00040F029F45F3F29F00C94FA0B51110C943C
:101A0000450C0C94000C0E94220C68F39923B1F34E
:101A1000552391F3951B550BBB27AA276217730714
:101A2000840738F09F5F5F4F220F331F441FAA1FA8
:101A3000A9F335D00E2E3AF0E0E832D09150504064
:101A4000E695001CCAF72BD0FE2F29D0660F771F12
:101A5000881FBB1F261737074807AB07B0E809F0F8
:101A6000BB0B802DBF01FF2793585F4F3AF09E3F7D
:101A7000510578F00C94FA0B0C94450C5F3FE4F39D
:101A8000983ED4F3869577956795B795F7959F5FC0
:101A9000C9F7880F911D9695879597F90895E1E00C
:101AA000660F771F881FBB1F621773078407BA076B
:101AB00020F0621B730B840BBA0BEE1F88F7E095C6
:101AC00008950E94680D6894B1110C94450C089516
:101AD0000E942A0C88F09F5798F0B92F9927B75188
:101AE000B0F0E1F0660F771F881F991F1AF0BA95C2
:101AF000C9F714C0B13091F00E94440CB1E00895D0
:101B00000C94440C672F782F8827B85F39F0B93FC1
:101B1000CCF3869577956795B395D9F73EF4909574
:101B20008095709561957F4F8F4F9F4F08950E94CC
:101B3000660B08F48FEF0895EE0FFF1F0590F491E8
:101B4000E02D09940F931F93CF93DF93823091057B
:101B500010F482E090E0E091DD02F091DE0230E0EE
:101B600020E0B0E0A0E0309799F42115310509F4A8
:101B70004AC0281B390B24303105D8F58A819B8156
:101B80006115710589F1FB0193838283FE0111C008
:101B9000408151810281138148175907E0F04817AD
:101BA000590799F4109761F012960C9312971396B7
:101BB0001C933296CF01DF91CF911F910F91089521
:101BC0000093DD021093DE02F4CF2115310551F0B0
:101BD0004217530738F0A901DB019A01BD01DF016B
:101BE000F801C1CFEF01F9CF9093DE028093DD02BF
:101BF000CDCFFE01E20FF31F819391932250310963
:101C000039832883D7CF2091DB023091DC02232B4C
:101C100041F42091090130910A013093DC022093B4
:101C2000DB0220910701309108012115310541F4B3
:101C30002DB73EB740910B0150910C01241B350B81
:101C4000E091DB02F091DC02E217F307A0F42E1B17
:101C50003F0B2817390778F0AC014E5F5F4F241710
:101C6000350748F04E0F5F1F5093DC024093DB02B4
:101C7000819391939FCFF0E0E0E09CCFCF93DF93EF
:101C80000097E9F0FC01329713821282A091DD02E5
:101C9000B091DE02ED0130E020E01097A1F4208148
:101CA0003181820F931F2091DB023091DC022817D3
:101CB000390709F061C0F093DC02E093DB02DF91A9
:101CC000CF910895EA01CE17DF07E8F54A815B81DD
:101CD0009E0141155105B1F7E901FB83EA83499162
:101CE0005991C40FD51FEC17FD0761F480819181D4
:101CF0000296840F951FE9019983888382819381DD
:101D00009B838A83F0E0E0E012968D919C9113977B
:101D10000097B9F52D913C911197CD010296820F54
:101D2000931F2091DB023091DC022817390739F626
:101D3000309751F51092DE021092DD02B093DC0272
:101D4000A093DB02BCCFD383C28340815181840F37
:101D5000951FC817D90761F44E5F5F4F888199813D
:101D6000480F591F518340838A819B8193838283CB
:101D70002115310509F0B0CFF093DE02E093DD02CA
:101D80009ECFFD01DC01C0CF13821282D7CFB0E01D
:101D9000A0E0EDECFEE00C944D0C8C01009751F4AA
:101DA000CB010E94A20D8C01C801CDB7DEB7E0E1E6
:101DB0000C94690CFC01E60FF71F9C0122503109BD
:101DC000E217F30708F49DC0D901CD91DC9111977A
:101DD000C617D70798F0C530D10530F3CE01049768
:101DE0008617970708F3C61BD70B2297C193D19389
:101DF0006D937C93CF010E943E0ED6CF5B01AC1A4F
:101E0000BD0A4C018C0E9D1EA091DD02B091DE0238
:101E1000512C412CF12CE12C109731F58091DB02F3
:101E20009091DC028815990509F05CC046165706AA
:101E300008F058C08091070190910801009741F483
:101E40008DB79EB740910B0150910C01841B950BEF
:101E5000E817F90708F055C0F093DC02E093DB02C5
:101E6000F90171836083A0CF8D919C911197129697
:101E70006C90129713967C901397A815B90559F595
:101E80006C0142E0C40ED11CCA14DB0420F1AC0189
:101E90004A195B09DA011296159780F06282738203
:101EA00051834083D9016D937C93E114F10471F067
:101EB000D7011396FC93EE93129776CF22968C0F50
:101EC0009D1FF90191838083F301EFCFF093DE0230
:101ED000E093DD0269CF4816590608F42C017D0114
:101EE000D3019ACFCB010E94A20D7C01009749F04B
:101EF000AE01B8010E94840FC8010E943E0E870106
:101F000053CF10E000E050CFFB01DC0102C0019094
:101F10000D9241505040D8F70895FB01DC018D919E
:101F2000019080190110D9F3990B0895FB01DC0190
:101F300001900D920020E1F70895FB015191552386
:101F4000A9F0BF01DC014D9145174111E1F759F4AA
:101F5000CD010190002049F04D9140154111C9F388
:101F6000FB014111EFCF81E090E001970895F894D3
:021F7000FFCFA1
:101F7200010D030D0399000000DF02800000000044
:101F8200006D018D00BA00BA012B01C9001D010DBF
:101F92000A00506172616E646F206D6F76696D65C3
:101FA2006E746F006F70C3A7C3A36F20696E6573F1
:101FB200697374656E7465002B002B56656C6F63D4
:101FC200696461203D20002D002D56656C6F6369A8
:101FD2006461203D200052504D206D6F746F72205D
:101FE20000207C200052504D5F546172676574205E
:101FF2003D20003E3E2873292073746F70206D616E
:10200200742E2E2E003E3E2872292072756E206D8F
:102012006174002C003E3E2876292073657461723B
:102022002076656C6F6369646164652070617261BA
:102032003A20006D6F746F7220676972616E646F0F
:10204200206E6F2073656E7469646F20616E7469AF
:10205200686F726172696F004D6F746F7220676989
:1020620072616E646F206E6F2073656E7469646F47
:1020720020686F726172696F00524D505F546172D5
:102082006765743A2000524D505F417475616C3A35
:0220920020002C
:00000001FF
