:020000040000FA
:100000000C94DF000C9435080C940E080C94070136
:100010000C9407010C9407010C9407010C94070140
:100020000C9407010C9407010C9407010C94070130
:100030000C9407010C9407010C9407010C94070120
:100040000C94C4070C9407010C9492070C946C0751
:100050000C9407010C9407010C9407010C94070100
:100060000C9407010C94070100407A10F35A00A089
:10007000724E18090010A5D4E80000E87648170071
:1000800000E40B54020000CA9A3B000000E1F505B1
:10009000000080969800000040420F000000A086FB
:1000A00001000000102700000000E803000000002D
:1000B0006400000000000A000000000001000000D1
:1000C00000002C76D888DC674F0823DFC1DFAE59EB
:1000D000E1B1B796E5E3E453C63AE651997696E87E
:1000E000E6C28426EB898C9B62ED407C6FFCEFBC02
:1000F0009C9F40F2BAA56FA5F490055A2AF75C932D
:100100006B6CF9676DC11BFCE0E40D47FEF520E662
:10011000B500D0ED902E0300943577050080841E45
:10012000080000204E0A000000C80C333333330FA0
:10013000986E12831141EF8D2114893BE65516CF3D
:10014000FEE6DB18D1844B381BF77C1D901DA4BB49
:10015000E424203284725E228100C9F124ECA1E5FE
:100160003D2700000000240027002A0000000000B6
:10017000250028002B000000000023002600290095
:10018000040404040404040402020202020203033D
:100190000303030301020408102040800102040845
:1001A00010200102040810200000000800020100D5
:1001B0000003040700000000000000005C08112498
:1001C0001FBECFEFD8E0DEBFCDBF23E0ACE5B2E08D
:1001D00001C01D92A931B207E1F712E0A0E0B1E041
:1001E000E8ECF6E202C005900D92AC35B107D9F704
:1001F00010E0CFEDD0E004C02197FE010E9447112E
:10020000CE3DD107C9F70E948F080C9462130C945D
:1002100000000895AF92BF92CF92DF92EF92FF92CB
:100220000F931F93CF93DF936C017B018B01040F1E
:10023000151FEB015E01AE18BF08C017D10759F0BA
:100240006991D601ED91FC910190F081E02DC601FC
:100250000995892B79F7C501DF91CF911F910F91F6
:10026000FF90EF90DF90CF90BF90AF900895FC018A
:10027000538D448D252F30E0842F90E0821B930B0B
:10028000541710F0CF96089501970895FC01918DB1
:10029000828D981761F0A28DAE0FBF2FB11D5D96B4
:1002A0008C91928D9F5F9F73928F90E008958FEF56
:1002B0009FEF08952FB7F894809172029091730286
:1002C000A0917402B09175022FBF80937E0290932B
:1002D0007F02A0938002B093810286E792E00E94A1
:1002E000460197FF26C02FB7F89480917202909133
:1002F0007302A0917402B09175022FBF40917E02EB
:1003000050917F026091800270918102841B950B55
:10031000A60BB70B40917A0250917B0260917C0250
:1003200070917D0284179507A607B707B0F28FEF8B
:100330009FEF0895FC01918D828D981731F0828D89
:10034000E80FF11D858D90E008958FEF9FEF0895E0
:10035000FC01918D228D892F90E0805C9F4F821B44
:1003600091098F739927089586E792E00E94A8016A
:1003700021E0892B09F420E0822F089580E090E0AD
:10038000892B29F00E94B40181110C94000008957A
:10039000FC01A48DA80FB92FB11DA35ABF4F2C91FA
:1003A000848D90E001968F739927848FA689B789F1
:1003B0002C93A089B1898C91837080648C93938DE8
:1003C000848D981306C00288F389E02D80818F7D8B
:1003D00080830895EF92FF920F931F93CF93DF9343
:1003E000EC0181E0888F9B8D8C8D98131AC0E88971
:1003F000F989808185FF15C09FB7F894EE89FF8940
:100400006083E889F98980818370806480839FBFDD
:1004100081E090E0DF91CF911F910F91FF90EF90DD
:100420000895F62E0B8D10E00F5F1F4F0F731127ED
:10043000E02E8C8D8E110CC00FB607FCFACFE88928
:10044000F989808185FFF5CFCE010E94C801F1CFE7
:10045000EB8DEC0FFD2FF11DE35AFF4FF0829FB79C
:10046000F8940B8FEA89FB8980818062CFCFCF938C
:10047000DF93EC01888D8823B9F0AA89BB89E889CC
:10048000F9898C9185FD03C0808186FD0DC00FB672
:1004900007FCF7CF8C9185FFF2CF808185FFEDCFF0
:1004A000CE010E94C801E9CFDF91CF91089583303A
:1004B00081F028F4813099F08230A9F008958730D6
:1004C000A9F08830C9F08430B1F4809180008F7D2C
:1004D00003C0809180008F7780938000089584B559
:1004E0008F7784BD089584B58F7DFBCF8091B00058
:1004F0008F778093B00008958091B0008F7DF9CF01
:10050000CF93DF93282F30E0F901E855FE4F849117
:10051000F901EC56FE4FD491F901E058FE4FC49119
:10052000CC23A1F081110E945702EC2FF0E0EE0FD6
:10053000FF1FEA58FE4FA591B491EC91ED2381E0A5
:1005400090E009F480E0DF91CF91089580E090E0A1
:10055000FACF1F93CF93DF93282F30E0F901E855AE
:10056000FE4F8491F901EC56FE4FD491F901E05809
:10057000FE4FC491CC23A9F0162F81110E9457027F
:10058000EC2FF0E0EE0FFF1FE459FE4FA591B49160
:100590008FB7F894EC91111108C0D095DE23DC934D
:1005A0008FBFDF91CF911F910895DE2BF8CFCF93AE
:1005B000DF9390E0FC01EC56FE4F249180589E4F53
:1005C000FC0184918823D1F090E0880F991FFC01F1
:1005D000EE59FE4FA591B491FC01E459FE4FC5912F
:1005E000D491623071F49FB7F8943C91822F80953A
:1005F00083238C93E8812E2B28839FBFDF91CF919B
:1006000008958FB7F894EC912E2B2C938FBFF6CFD3
:100610001F93CF93DF93182FEB0161E00E94D70265
:10062000209739F460E0812FDF91CF911F910C94D6
:10063000A902CF3FD10511F461E0F5CFE12FF0E041
:10064000E855FE4FE491E33031F140F4E130B1F090
:10065000E230E1F0C038D1057CF7E4CFE73029F192
:10066000E83059F1E430B1F78091800080628093E6
:100670008000D0938B00C0938A0004C084B580684A
:1006800084BDC7BDDF91CF911F91089584B580626D
:1006900084BDC8BDF7CF80918000806880938000C2
:1006A000D0938900C0938800EDCF8091B00080681E
:1006B0008093B000C093B300E5CF8091B00080621A
:1006C0008093B000C093B400DDCF3FB7F894809121
:1006D000680290916902A0916A02B0916B0226B5FE
:1006E000A89B05C02F3F19F00196A11DB11D3FBF6A
:1006F000BA2FA92F982F8827BC01CD01620F711D39
:10070000811D911D42E0660F771F881F991F4A9532
:10071000D1F70895089542E050E06FE171E086E777
:1007200092E00C940A01CF93DF93FC014481558140
:100730006081718186E792E00E940A01EC010E94CB
:100740008B038C0F9D1FDF91CF910895CF93DF9383
:10075000FC0101900020E9F73197AF01481B590BCC
:10076000BC0186E792E00E940A01EC010E948B0323
:100770008C0F9D1FDF91CF91089582E291E00E943E
:10078000A60360E089E00E94A90260E08AE00C9480
:10079000A9020C94BD03CF93DF93EB018130910547
:1007A00081F08330910599F0892BA9F470E060E025
:1007B0008AE00E940803BE0189E0DF91CF910C948A
:1007C00008038AE00E94080370E060E0F5CFDF9143
:1007D000CF910C94BD0384E391E0DF91CF910C9411
:1007E000A603CF93DF93DC0114962D913C911597CE
:1007F000232B79F0FB01CD91DC9160817181CE01D9
:100800000E944813009729F08C1B9D0BDF91CF911C
:1008100008958FEF9FEFFACFCF93DF93EC0188819C
:100820009981009711F00E94E911198218821D82A6
:100830001C821B821A82DF91CF910895FC01808176
:100840009181009711F00C94E91108950F931F9373
:10085000CF93DF938C01EB01FC01808191810097A4
:10086000E1F06881798161157105A9F042815381B8
:100870002C813D814217530770F00E9441138C81F7
:100880009D81F801958384831D821C82DF91CF9125
:100890001F910F9108950E94E91188819981F801B3
:1008A000918380838A819B81938382838C819D81C4
:1008B00095838483198218821B821A82E5CF0F9355
:1008C0001F93CF93DF93EC0188819981009759F0B2
:1008D0002A813B812617370730F081E0DF91CF91E5
:1008E0001F910F9108958B016F5F7F4F0E947212CD
:1008F000009759F0998388831B830A832C813D815B
:10090000232B59F7FC011082E8CF80E0E7CFEF926C
:10091000FF920F931F93CF93DF936115710541F4FD
:1009200080E0DF91CF911F910F91FF90EF9008959C
:1009300041155105B1F07B01EC010C811D81040FC3
:10094000151FB8010E945F04882351F32881398163
:100950008C819D81B701820F931F0E9441131D83DB
:100960000C8381E0DECFCF93DF93EC01FB0101909C
:100970000020E9F73197AF01461B570B0E9487040F
:10098000811103C0CE010E940C04CE01DF91CF91F2
:100990000895CF93DF93EC01FB0144815581608181
:1009A00071810E948704811103C0CE010E940C0452
:1009B000CE01DF91CF910895EF92FF920F931F9395
:1009C000CF93DF93EC017B018A01BA010E945F049F
:1009D00081110BC0CE010E940C04CE01DF91CF919A
:1009E0001F910F91FF90EF9008951D830C83B70125
:1009F000888199810E944113F0CFFB010190002072
:100A0000E9F73197AF01461B570B0C94DC040F93A9
:100A10001F93CF93DF93CDB7DEB762970FB6F894ED
:100A2000DEBF0FBECDBF8C01CB01F8011182108259
:100A300013821282158214824AE0BE016F5F7F4FDB
:100A40000E944A0CBE016F5F7F4FC8010E94FD04E7
:100A500062960FB6F894DEBF0FBECDBFDF91CF9187
:100A60001F910F910895FC0111821082138212824E
:100A700015821482FB0101900020E9F73197AF0144
:100A8000461B570B0C94DC04CF92DF92EF92FF923F
:100A90000F931F93CF93DF93CDB7DEB72C970FB68D
:100AA000F894DEBF0FBECDBFFC0124813581232B1E
:100AB000D1F18A017B01C080D18068E471E0C60178
:100AC0000E943813892BF1F56091700270917102C8
:100AD0006F3F710544F56E0D7F1D70937102609339
:100AE0007002C8010E94CB03609170027091710284
:100AF000CE0107960E9407056AE471E0CE010196D7
:100B00000E943305BE01695F7F4FCE0101960E94AE
:100B1000C9040E949303CE0101960E941E04CE01D7
:100B200007960E941E042C960FB6F894DEBF0FBEE7
:100B3000CDBFDF91CF911F910F91FF90EF90DF908C
:100B4000CF90089567E571E0C6010E943813892BA4
:100B500051F76091700270917102161617061CF71A
:100B60006E197F097093710260937002C8010E9430
:100B7000CB036091700270917102CE0107960E94C2
:100B8000070569E571E0BACF8F929F92AF92BF924D
:100B9000EF92FF920F931F93CF93DF93CDB7DEB702
:100BA000AD970FB6F894DEBF0FBECDBF8091660241
:100BB000811106C08091640290916502892B71F5C4
:100BC0008091640290916502029744F560916402FD
:100BD00070916502CE0182960E94070566E671E07B
:100BE000CE0101960E943305BE016E5D7F4FCE019E
:100BF00001960E94C9040E949303CE0101960E94AF
:100C00001E04CE0182960E941E048091640290917F
:100C1000650201969093650280936402E0906C02F5
:100C2000F0906D028091640290916502019779F5D0
:100C300080910001882359F12FB7F89460917202D6
:100C40007091730280917402909175022FBF0E947F
:100C5000D40E60936002709361028093620290935D
:100C6000630281E08093660210920001AD960FB698
:100C7000F894DEBF0FBECDBFDF91CF911F910F91D2
:100C8000FF90EF90BF90AF909F908F9008958091CC
:100C9000640290916502029749F72FB7F89460912A
:100CA00072027091730280917402909175022FBF4D
:100CB0000E94D40E20916002309161024091620244
:100CC000509163020E942D104B015C0120E030E046
:100CD000A9010E944211181624F0B7FAB094B7F88F
:100CE000B09480925C0290925D02A0925E02B092FB
:100CF0005F021BA21AA21DA21CA21FA21EA28E018D
:100D00000F5F1F4F22E044E0C501B4010E94050CB3
:100D1000009709F49BC0BC01CE0182960E94FD049D
:100D200067E771E0CE0101960E943305BE016E5D5A
:100D30007F4FCE0101960E94C9040E949303CE0109
:100D400001960E941E04CE0182960E941E041092FB
:100D50006502109264021092660281E080930001A5
:100D600020E030E040E051E460915C0270915D026F
:100D700080915E0290915F020E94350F9B01AC0151
:100D800060E070E68AE697E40E949A104B015C01ED
:100D900020E030E0A9010E94421120E030E040E074
:100DA0005FE387FD58C0C501B4010E942E100E9468
:100DB0000C1177FD5BCF6E157F050CF051C0CE0195
:100DC00001960E940705B701CE0182960E94070591
:100DD00063E871E0CE0188960E943305BE016E5D26
:100DE0007F4FCE0188960E94C90460E971E00E949D
:100DF000B30464E971E00E94B304BE016F5F7F4FEA
:100E00000E94C9040E949303CE0188960E941E048A
:100E1000CE0182960E941E04CE0101960E941E04FD
:100E2000E0906E02F0906F0268E471E0CE010196EE
:100E30000E943305A70163E370E0CE0101960E9492
:100E40004405CE0101960E941E0410CFCE01829669
:100E50000E940C0465CFC501B4010E942D10A7CFDC
:100E6000E616F7060CF002CFCE0101960E940705A8
:100E7000B701CE0182960E94070563E871E0CE01BA
:100E800088960E943305BE016E5D7F4FCE01889625
:100E90000E94C90460E971E00E94B30464E971E052
:100EA0000E94B304BE016F5F7F4F0E94C9040E947D
:100EB0009303CE0188960E941E04CE0182960E9462
:100EC0001E04CE0101960E941E04E0906E02F09076
:100ED0006F0267E571E0AACF1F920F920FB60F92D3
:100EE00011242F933F934F935F936F937F938F932F
:100EF0009F93AF93BF93EF93FF9386E792E00E9497
:100F0000C801FF91EF91BF91AF919F918F917F9118
:100F10006F915F914F913F912F910F900FBE0F9066
:100F20001F9018951F920F920FB60F9211242F93B6
:100F30008F939F93EF93FF93E0918602F091870246
:100F40008081E0918C02F0918D0282FD1BC0908126
:100F500080918F028F5F8F7320919002821741F0F2
:100F6000E0918F02F0E0EA58FD4F958F80938F0259
:100F7000FF91EF919F918F912F910F900FBE0F9046
:100F80001F9018958081F4CF1F920F920FB60F9289
:100F900011242F933F938F939F93AF93BF9380918F
:100FA000720290917302A0917402B0917502309117
:100FB000670223E0230F2D3758F50196A11DB11DBF
:100FC000209367028093720290937302A09374023D
:100FD000B09375028091680290916902A0916A02B3
:100FE000B0916B020196A11DB11D80936802909390
:100FF0006902A0936A02B0936B02BF91AF919F9177
:101000008F913F912F910F900FBE0F901F901895C9
:1010100026E8230F0296A11DB11DD2CF1F920F9279
:101020000FB60F9211242F933F934F935F936F93BB
:101030007F938F939F93AF93BF93EF93FF93E09131
:101040000301F09104010995FF91EF91BF91AF91D8
:101050009F918F917F916F915F914F913F912F91D0
:101060000F900FBE0F901F9018951F920F920FB602
:101070000F9211242F933F934F935F936F937F931E
:101080008F939F93AF93BF93EF93FF93E0910101F1
:10109000F09102010995FF91EF91BF91AF919F915E
:1010A0008F917F916F915F914F913F912F910F9011
:1010B0000FBE0F901F901895E6E7F2E013821282A0
:1010C00088EE93E0A0E0B0E084839583A683B783A5
:1010D00081E191E09183808385EC90E0958784871E
:1010E00084EC90E09787868780EC90E0918B808BF2
:1010F00081EC90E0938B828B82EC90E0958B848BDB
:1011000086EC90E0978B868B118E128E138E148E48
:1011100084EF91E090931403809313030895CF9389
:10112000DF93CDB7DEB76A970FB6F894DEBF0FBE78
:10113000CDBF789484B5826084BD84B5816084BD60
:1011400085B5826085BD85B5816085BD80916E0065
:10115000816080936E001092810080918100826096
:1011600080938100809181008160809381008091D3
:1011700080008160809380008091B10084608093C2
:10118000B1008091B00081608093B00080917A00BE
:10119000846080937A0080917A00826080937A00E4
:1011A00080917A00816080937A0080917A008068D3
:1011B00080937A001092C100E0918602F09187023C
:1011C00082E08083E0918202F09183021082E091BC
:1011D0008402F09185028FEC808310928E02E09160
:1011E0008A02F0918B0286E08083E0918802F09180
:1011F0008902808180618083E0918802F091890278
:10120000808188608083E0918802F09189028081EA
:1012100080688083E0918802F091890280818F7DCF
:10122000808361E089E00E94D70261E08AE00E9449
:10123000D70262E087E00E94D70262E085E00E9468
:10124000D70262E084E00E94D70262E083E00E945D
:10125000D70262E082E00E94D70260E089E00E944B
:10126000A90260E08AE00E94A902609105017091E4
:101270000601072E000C880B990B0E94D60E6B01FD
:101280007C016091130370911403072E000C880BEE
:10129000990B0E94D60E9B01AC01C701B6010E94BA
:1012A000350F20E030E04FE753E40E949A106B01C5
:1012B0007C0120E030E0A9010E94421120E030E0F2
:1012C00040E05FE387FD93C0C701B6010E942E1086
:1012D0000E940C1170936D0260936C02CE01019616
:1012E0000E9407056091130370911403CE010796C5
:1012F0000E94070560EA71E0CE010D960E94330559
:10130000BE01695F7F4FCE010D960E94C90460E95E
:1013100071E00E94B3046BEA71E00E94B304BE0165
:101320006F5F7F4F0E94C9040E949303CE010D9608
:101330000E941E04CE0107960E941E04CE01019653
:101340000E941E0489EC93E09093040180930301B2
:1013500080916900837F846080936900E99A84ECBE
:1013600095E09093020180930101809169008C7F48
:10137000826080936900E89A90E0692E90E0792E6F
:10138000E0907002F0907102A0906E02B0906F0237
:1013900061E271E0CE0143960E94330561E271E0A3
:1013A000CE010D960E94330561E271E0CE010796F1
:1013B0000E94330586E792E00E94A80118161906DC
:1013C0007CF561E271E0CE0101960E9433050E9436
:1013D0005A0197FD11C0898F1A8E41E050E0BE017D
:1013E000675E7F4FCE0101960E948704F0CFC70150
:1013F000B6010E942D106CCFBE016F5F7F4FCE01F2
:1014000007960E942604CE0101960E941E044B8579
:101410005C856F817885CE010D960E948704CACFC6
:10142000CE0107960E941E04BE01635F7F4FCE016E
:1014300043960E942604CE010D960E941E0469EB7D
:1014400071E0CE0101960E943305BE016F5F7F4FB0
:10145000CE0143960E94F1038C01CE0101960E94B9
:101460001E040F3F1F4F39F00E94BD038BEB91E02C
:101470000E94A603B9C06DEC71E0CE0101960E94F6
:101480003305BE016F5F7F4FCE0143960E94F1038B
:101490008C01CE0101960E941E040F3F100739F007
:1014A000B701C5010E94CB038FEC91E0E1CF6DED58
:1014B00071E0CE0101960E943305BE016F5F7F4F40
:1014C000CE0143960E94F1036C01CE0101960E9469
:1014D0001E04CD20C09409F423C16FED71E0CE014C
:1014E00007960E9433051E861D86188A1F861A8A53
:1014F000198A6B897C896115710531F04F89588D86
:10150000CE010D960E94DC04C988DA88C114D1048A
:1015100061F0ED84FE846F817885C7010E944813D5
:10152000009719F08C010E191F090F5F1F4FC0168D
:10153000D10628F09C2D8D2D6801092F182F61E20E
:1015400071E0CE0101960E943305E988FA88CE1435
:10155000DF04E0F40E151F0508F47801ED85FE8523
:10156000EE0DFF1D108110826D857E856C0D7D1D39
:10157000CE0101966115710509F487C00E94FD0432
:101580008D859E85E80EF91EF7011083C980DA80EB
:10159000C114D10439F00D811E81760101151105A8
:1015A00009F077C089819A81C12CD12C76010097EE
:1015B00019F00E94230C6B01CE0101960E941E04BB
:1015C000CE010D960E941E04CE0107960E941E04B5
:1015D000D0920601C0920501A114B10409F48FC094
:1015E000AA94AB2809F495C0CE0143960E941E042C
:1015F0000E9465034B015C0188E2C82ED12CE12CCE
:10160000F12C0E946503681979098A099B09683ED3
:10161000734081059105A8F3E1E0CE1AD108E108F5
:10162000F108F8EE8F0EF3E09F1EA11CB11CC1144F
:10163000D104E104F10429F784E00E948002892B9F
:1016400009F0BCC0609170027091710280916E02CD
:1016500090916F02892B09F0A6C081E090E09093F1
:101660006F0280936E020E94CB0385E192E00E949C
:10167000A6036114710409F483CE0E94B401882387
:1016800009F47ECE0E9400007BCE0E940C0478CF2D
:1016900074014701FFEF8F1A9F0AF7018081082E1E
:1016A000000C990B0E94BB0E892B91F70150110978
:1016B0000C0D1D1DF8018081082E000C990B0E9455
:1016C000BB0E892B31F00E151F0518F001501109C2
:1016D000F1CF0F5F1F4FA8014E195F095E834D8345
:1016E000CE14DF0420F4B701C6010E942F13E98154
:1016F000FA818D819E81E80FF91F108253CF70E02F
:1017000060E08AE00E940803B60189E00E940803B5
:101710006BCFB6018AE00E94080370E060E0F5CF6D
:1017200061EE71E0CE0101960E943305BE016F5F4C
:101730007F4FCE0143960E94F1038C01CE010196AA
:101740000E941E040F3F1F4F61F081E090E09093D4
:101750006F0280936E02B7010E94CB0383EE91E08B
:1017600087CE69EF71E0CE0101960E943305BE017C
:101770006F5F7F4FCE0143960E94F1038C01CE0133
:1017800001960E941E040F3F1F4F09F42DCF1092A7
:101790006F0210926E02B70190E080E00E94CB03CE
:1017A0008BEF91E065CE10926F0210926E0290E086
:1017B00080E00E94CB038AE392E059CF87E00E9449
:1017C000800200916E0210916F0268E471E0892B33
:1017D00061F085E00E948002892B09F04ACF0091D8
:1017E0006E0210916F0267E571E0CE0101960E94D2
:1017F0003305A80163E370E0CE0101960E94440521
:10180000CE0101960E941E0434CFEF920F931F93D6
:10181000CF93DF93E80134E047FD34E1042E000C60
:10182000550B57FF03C0519541955109E32E022FE7
:10183000242FAE010E94840CCE01DF91CF911F9125
:101840000F91EF9008951F93FC0199278827BC0101
:10185000E89411911032E9F3193010F01E30C8F3FA
:101860001B3251F01D3249F4689406C00E94550C99
:10187000610F711D811D911D119110531A30B0F32C
:101880003EF490958095709561957F4F8F4F9F4F57
:101890001F910895BB274A3031F4992322F4BDE209
:1018A000909581959F4F0C946B0C592F482F372F93
:1018B000262F660F771F881F991F660F771F881FB7
:1018C000991F620F731F841F951F660F771F881F54
:1018D000991F0895BB27FB015527AA27880F991F39
:1018E000AA1FA41710F0A41B83955051B9F7A05D4F
:1018F000AA3308F0A95DA193009779F7B111B193CC
:101900001192CB010C94C40EA9E0B0E0EAE8FCE02F
:101910000C94FC0F6A01F22EB02E102FFBE3AF2EB9
:10192000A01608F41BE31F5F012F27E0AE014F5FF5
:101930005F4F0E94E30DBC018981982F997091300F
:1019400009F43FC09BE2E1FC04C09E2D9170E0FCD5
:101950003AC05E2D5071E82FE87083FF46C084E0E6
:10196000911101C083E0EF2DE81B8F1508F0E0E036
:10197000D6018E2F20E2552351F1992329F0D6016B
:101980009C93C60101966C0196012D5F3F4FE2FECC
:1019900024C08EE4D6018C9391E411969C93119708
:1019A00012968C93D9018E2F90E281111BC0E20F09
:1019B000F32FF11D10828EEF9FEF2996ECE00C942F
:1019C00018109DE2C6CF90E2C4CF2D9381508111B3
:1019D000FCCFCE0ED11CE0E0D0CF8EE6D6018C93AA
:1019E00091E6DBCF9D938150E0CF482F447082FF7A
:1019F0003DC084E0911101C083E08F1510F4EF2DFC
:101A0000E81BD6018E2F20E2552309F1992329F0F6
:101A1000D6019C93C60101966C0196012D5F3F4F44
:101A2000E2FE1BC089E4D6018C938EE411968C9360
:101A3000119786E412968C93D9018E2F90E2882319
:101A400009F4B5CF9D938150FACF2D938150811128
:101A5000FCCFCE0ED11CE0E0D9CF89E6D6018C9325
:101A60008EE611968C93119786E6E4CF9B0177FF63
:101A700002C030E020E0A1E0B0E0911102C0B0E08F
:101A8000A0E0F9013196AE0FBF1F8B2C912CBB202B
:101A900009F461C05401EFEFAE1ABE0AAA0DBB1DD6
:101AA000FA161B0619F014F04F2D4A1B511188C06D
:101AB000E3FC59C07601A42FB0E2A1114FC0C40EBF
:101AC000D11C992309F45BC040E0D6011196F601C0
:101AD00090836D01552309F448C0012F060F9A81A8
:101AE000582F507184FF03C0913309F40150101630
:101AF0000CF047C0093008F008E0EEE2FE2E5B0172
:101B0000A01AB10885019194819491082F3F320762
:101B100029F4D601FC92F60131966F016217730722
:101B200094F1021713077CF5DB01A21BB30BAA2467
:101B3000A394B12CAC0EBD1EAA0DBB1D11968C91A9
:101B400021503109D601119628153905F4F0F60116
:101B500080836D01DBCFB12CA12CA0CFF701B19315
:101B60007F01A150AACF9111B0CFD601942F50E39D
:101B700002C05D9391509111FCCFC40ED11C40E086
:101B8000ACCF01E0BACF80E3DBCF6217730731F44B
:101B9000963388F4953311F4552369F0F601808368
:101BA000FD01842F90E2811108C0A40FB11D1C9289
:101BB00090E080E002CF81E3F1CF91938150F3CFA9
:101BC000911183CF8ACF283008F027E03327DA013C
:101BD000990F311D87FD916000966105710539F4FB
:101BE00032602E5F3D9330E32A95E1F708959F3FE1
:101BF00030F080387105610509F03C5F3C5F3D9332
:101C0000913008F08068911DDF93CF931F930F935D
:101C1000FF92EF92192F987F9695E92F96959695BA
:101C2000E90FFF27EE53FF4F99273327EE24FF24B8
:101C3000A701E70105900894079428F4360FE71EE2
:101C4000F81E491F511D660F771F881F991F0694A4
:101C5000A1F70590079428F4E70EF81E491F561FB8
:101C6000C11D770F881F991F661F0694A1F7059065
:101C7000079428F4F80E491F561FC71FD11D880F5F
:101C8000991F661F771F0694A1F70590079420F40B
:101C9000490F561FC71FD81F990F661F771F881F30
:101CA0000694A9F784911095177041F0D695C795C1
:101CB00057954795F794E7941A95C1F7E8E6F0E051
:101CC00068941590159135916591959105907FE2F5
:101CD0007395E118F10A430B560BC90BD009C0F7F5
:101CE000E10CF11E431F561FC91FD01D7EF4703337
:101CF00011F48A95E6CFE894015030F0080F0AF409
:101D00000027021708F4202F2395022F7A3328F09A
:101D100079E37D932A95E9F710C07D932A9589F69A
:101D2000069497956795379517951794E118F10ADA
:101D3000430B560BC90BD00998F023957E917395F0
:101D40007A3308F070E37C932013B8F77E917061CA
:101D50007D9330F0839571E37D9370E32A95E1F7ED
:101D60001124EF90FF900F911F91CF91DF91992750
:101D700087FD9095089591110C94A20F803219F06F
:101D800089508550C8F70895DC01FC01672F7191D7
:101D90007723E1F7329704C07C916D937083629151
:101DA000AE17BF07C8F30895E89409C097FB3EF447
:101DB00090958095709561957F4F8F4F9F4F992398
:101DC000A9F0F92F96E9BB279395F6958795779516
:101DD0006795B795F111F8CFFAF4BB0F11F460FFD6
:101DE0001BC06F5F7F4F8F4F9F4F16C0882311F02E
:101DF00096E911C0772321F09EE8872F762F05C042
:101E0000662371F096E8862F70E060E02AF09A95DC
:101E1000660F771F881FDAF7880F9695879597F9D1
:101E20000895990F0008550FAA0BE0E8FEEF16166B
:101E30001706E807F907C0F012161306E407F507BE
:101E400098F0621B730B840B950B39F40A2661F032
:101E5000232B242B252B21F408950A2609F4A140D5
:101E6000A6958FEF811D811D08950E94480F0C9447
:101E7000BC0F0E94AE0F38F00E94B50F20F09523E2
:101E800011F00C94A50F0C94AB0F11240C94F00FCF
:101E90000E94CD0F70F3959FC1F3950F50E0551F31
:101EA000629FF001729FBB27F00DB11D639FAA27AF
:101EB000F00DB11DAA1F649F6627B00DA11D661FFE
:101EC000829F2227B00DA11D621F739FB00DA11D1F
:101ED000621F839FA00D611D221F749F3327A00DD9
:101EE000611D231F849F600D211D822F762F6A2F75
:101EF00011249F5750409AF0F1F088234AF0EE0FDA
:101F0000FF1FBB1F661F771F881F91505040A9F706
:101F10009E3F510580F00C94A50F0C94F00F5F3F8D
:101F2000E4F3983ED4F3869577956795B795F79542
:101F3000E7959F5FC1F7FE2B880F911D96958795BA
:101F400097F9089599278827089597F99F6780E85A
:101F500070E060E008959FEF80EC089500240A94FB
:101F60001616170618060906089500240A94121674
:101F70001306140605060895092E0394000C11F4A7
:101F8000882352F0BB0F40F4BF2B11F460FF04C054
:101F90006F5F7F4F8F4F9F4F089557FD9058440FAD
:101FA000551F59F05F3F71F04795880F97FB991FB8
:101FB00061F09F3F79F08795089512161306140675
:101FC000551FF2CF4695F1DF08C016161706180602
:101FD000991FF1CF86957105610508940895E894DD
:101FE000BB2766277727CB0197F908952F923F9259
:101FF0004F925F926F927F928F929F92AF92BF9219
:10200000CF92DF92EF92FF920F931F93CF93DF93C4
:10201000CDB7DEB7CA1BDB0B0FB6F894DEBF0FBE21
:10202000CDBF09942A88398848885F846E847D846E
:102030008C849B84AA84B984C884DF80EE80FD8070
:102040000C811B81AA81B981CE0FD11D0FB6F894E6
:10205000DEBF0FBECDBFED0108955058BB27AA27A4
:102060000E9445100C94BC0F0E94AE0F38F00E94E5
:10207000B50F20F039F49F3F19F426F40C94AB0F00
:102080000EF4E095E7FB0C94A50FE92F0E94CD0F0D
:1020900058F3BA17620773078407950720F079F49D
:1020A000A6F50C94EF0F0EF4E0950B2EBA2FA02D91
:1020B0000B01B90190010C01CA01A0011124FF27F5
:1020C000591B99F0593F50F4503E68F11A16F040F0
:1020D000A22F232F342F4427585FF3CF46953795EF
:1020E0002795A795F0405395C9F77EF41F16BA0BB4
:1020F000620B730B840BBAF09150A1F0FF0FBB1F62
:10210000661F771F881FC2F70EC0BA0F621F731FAA
:10211000841F48F4879577956795B795F7959E3F07
:1021200008F0B0CF9395880F08F09927EE0F979598
:10213000879508950E94AE100C94BC0F0E94B50FB5
:1021400058F00E94AE0F40F029F45F3F29F00C9444
:10215000A50F51110C94F00F0C94AB0F0E94CD0FF2
:1021600068F39923B1F3552391F3951B550BBB27C6
:10217000AA2762177307840738F09F5F5F4F220F0B
:10218000331F441FAA1FA9F335D00E2E3AF0E0E802
:1021900032D091505040E695001CCAF72BD0FE2F4C
:1021A00029D0660F771F881FBB1F261737074807E0
:1021B000AB07B0E809F0BB0B802DBF01FF27935898
:1021C0005F4F3AF09E3F510578F00C94A50F0C94A8
:1021D000F00F5F3FE4F3983ED4F3869577956795CB
:1021E000B795F7959F5FC9F7880F911D96958795CD
:1021F00097F90895E1E0660F771F881FBB1F6217EC
:1022000073078407BA0720F0621B730B840BBA0BA9
:10221000EE1F88F7E09508950E9413116894B1119C
:102220000C94F00F08950E94D50F88F09F5798F0F6
:10223000B92F9927B751B0F0E1F0660F771F881FCB
:10224000991F1AF0BA95C9F714C0B13091F00E94E5
:10225000EF0FB1E008950C94EF0F672F782F8827C8
:10226000B85F39F0B93FCCF3869577956795B3950C
:10227000D9F73EF490958095709561957F4F8F4F7B
:102280009F4F08950E94110F08F48FEF0895EE0FED
:10229000FF1F0590F491E02D09940F931F93CF93A6
:1022A000DF938230910510F482E090E0E091170313
:1022B000F091180330E020E0B0E0A0E0309799F40E
:1022C0002115310509F44AC0281B390B243031058A
:1022D000D8F58A819B816115710589F1FB01938392
:1022E0008283FE0111C04081518102811381481710
:1022F0005907E0F04817590799F4109761F01296C2
:102300000C93129713961C933296CF01DF91CF91C5
:102310001F910F9108950093170310931803F4CFA2
:102320002115310551F04217530738F0A901DB019F
:102330009A01BD01DF01F801C1CFEF01F9CF909300
:10234000180380931703CDCFFE01E20FF31F819393
:1023500091932250310939832883D7CF20911503D7
:1023600030911603232B41F42091090130910A0189
:102370003093160320931503209107013091080133
:102380002115310541F42DB73EB740910B01509115
:102390000C01241B350BE0911503F0911603E21795
:1023A000F307A0F42E1B3F0B2817390778F0AC0178
:1023B0004E5F5F4F2417350748F04E0F5F1F509355
:1023C000160340931503819391939FCFF0E0E0E0D3
:1023D0009CCFCF93DF930097E9F0FC0132971382F3
:1023E0001282A0911703B0911803ED0130E020E0B4
:1023F0001097A1F420813181820F931F2091150342
:10240000309116032817390709F061C0F0931603BD
:10241000E0931503DF91CF910895EA01CE17DF070E
:10242000E8F54A815B819E0141155105B1F7E9014B
:10243000FB83EA8349915991C40FD51FEC17FD071F
:1024400061F4808191810296840F951FE90199833F
:102450008883828193819B838A83F0E0E0E01296F7
:102460008D919C9113970097B9F52D913C911197FF
:10247000CD010296820F931F209115033091160310
:102480002817390739F6309751F510921803109232
:102490001703B0931603A0931503BCCFD383C28355
:1024A00040815181840F951FC817D90761F44E5F91
:1024B0005F4F88819981480F591F518340838A81DA
:1024C0009B81938382832115310509F0B0CFF0936E
:1024D0001803E09317039ECFFD01DC01C0CF1382E8
:1024E0001282D7CFB0E0A0E0E8E7F2E10C94F80F59
:1024F0008C01009751F4CB010E944D118C01C80151
:10250000CDB7DEB7E0E10C941410FC01E60FF71F25
:102510009C0122503109E217F30708F49DC0D9014C
:10252000CD91DC911197C617D70798F0C530D1052A
:1025300030F3CE0104978617970708F3C61BD70B15
:102540002297C193D1936D937C93CF010E94E9119F
:10255000D6CF5B01AC1ABD0A4C018C0E9D1EA0911A
:102560001703B0911803512C412CF12CE12C10973A
:1025700031F580911503909116038815990509F09E
:102580005CC04616570608F058C08091070190912C
:102590000801009741F48DB79EB740910B0150910F
:1025A0000C01841B950BE817F90708F055C0F09350
:1025B0001603E0931503F90171836083A0CF8D9119
:1025C0009C91119712966C90129713967C9013978A
:1025D000A815B90559F56C0142E0C40ED11CCA1406
:1025E000DB0420F1AC014A195B09DA011296159758
:1025F00080F06282738251834083D9016D937C9312
:10260000E114F10471F0D7011396FC93EE93129745
:1026100076CF22968C0F9D1FF90191838083F30161
:10262000EFCFF0931803E093170369CF48165906CC
:1026300008F42C017D01D3019ACFCB010E944D11EA
:102640007C01009749F0AE01B8010E942F13C80128
:102650000E94E911870153CF10E000E050CFFB0149
:10266000DC0102C001900D9241505040D8F708950E
:10267000FB01DC018D91019080190110D9F3990BB8
:102680000895FB01DC0101900D920020E1F708950F
:10269000FB0151915523A9F0BF01DC014D91451774
:1026A0004111E1F759F4CD010190002049F04D911D
:1026B00040154111C9F3FB014111EFCF81E090E0DA
:1026C00001970895F894FFCF018A038A03990000C7
:1026D000001903800000000000EA010A01370137F9
:1026E00002A80146019A010D0A00506172616E64F0
:1026F0006F206D6F76696D656E746F006F70C3A724
:10270000C3A36F20696E6573697374656E74650029
:102710002B002B56656C6F63696461203D20002D92
:10272000002D56656C6F63696461203D20007075F3
:102730006C7365204C616EC3A761646F3A200072B0
:102740006F7461746554696D653A00524D505F5401
:1027500061726765743A2000207C2000524D505F02
:10276000417475616C3A200052504D206D6F746F4A
:1027700072200052504D5F546172676574203D2095
:102780000073003E3E2873292073746F70206D61C2
:10279000742E2E2E0072003E3E2872292072756E15
:1027A000206D61740076002C0068003E3E28682988
:1027B0002073656E7469646F20686F726172696FEF
:1027C0000061003E3E2861292073656E7469646F64
:1027D00020616E7469686F726172696F006D6F74E9
:1027E0006F7220676972616E646F206E6F2073650F
:1027F0006E7469646F20616E7469686F726172696A
:102800006F004D6F746F7220676972616E646F2024
:102810006E6F2073656E7469646F20686F72617289
:04282000696F0000DC
:107E0000112484B714BE81FFF0D085E080938100F7
:107E100082E08093C00088E18093C10086E0809377
:107E2000C20080E18093C4008EE0C9D0259A86E02C
:107E300020E33CEF91E0309385002093840096BBD3
:107E4000B09BFECF1D9AA8958150A9F7CC24DD24C4
:107E500088248394B5E0AB2EA1E19A2EF3E0BF2EE7
:107E6000A2D0813461F49FD0082FAFD0023811F036
:107E7000013811F484E001C083E08DD089C08234E0
:107E800011F484E103C0853419F485E0A6D080C0E4
:107E9000853579F488D0E82EFF2485D0082F10E0AE
:107EA000102F00270E291F29000F111F8ED06801E7
:107EB0006FC0863521F484E090D080E0DECF843638
:107EC00009F040C070D06FD0082F6DD080E0C81688
:107ED00080E7D80618F4F601B7BEE895C0E0D1E017
:107EE00062D089930C17E1F7F0E0CF16F0E7DF06D8
:107EF00018F0F601B7BEE89568D007B600FCFDCFD4
:107F0000A601A0E0B1E02C9130E011968C91119780
:107F100090E0982F8827822B932B1296FA010C0160
:107F200087BEE89511244E5F5F4FF1E0A038BF0790
:107F300051F7F601A7BEE89507B600FCFDCF97BE46
:107F4000E89526C08437B1F42ED02DD0F82E2BD052
:107F50003CD0F601EF2C8F010F5F1F4F84911BD097
:107F6000EA94F801C1F70894C11CD11CFA94CF0C13
:107F7000D11C0EC0853739F428D08EE10CD085E9AC
:107F80000AD08FE07ACF813511F488E018D01DD067
:107F900080E101D065CF982F8091C00085FFFCCF94
:107FA0009093C60008958091C00087FFFCCF809118
:107FB000C00084FD01C0A8958091C6000895E0E648
:107FC000F0E098E1908380830895EDDF803219F02E
:107FD00088E0F5DFFFCF84E1DECF1F93182FE3DFCA
:107FE0001150E9F7F2DF1F91089580E0E8DFEE27F6
:047FF000FF270994CA
:027FFE00040479
:00000001FF
