:020000040000FA
:100000000C94DF000C94FF060C94D8060C940701A6
:100010000C9407010C9407010C9407010C94070140
:100020000C9407010C9407010C9407010C94070130
:100030000C9407010C9407010C9407010C94070120
:100040000C948E060C9407010C945C060C943606F6
:100050000C9407010C9407010C9407010C94070100
:100060000C9407010C94070100407A10F35A00A089
:10007000724E18090010A5D4E80000E87648170071
:1000800000E40B54020000CA9A3B000000E1F505B1
:10009000000080969800000040420F000000A086FB
:1000A00001000000102700000000E803000000002D
:1000B0006400000000000A000000000001000000D1
:1000C00000002C76D888DC674F0823DFC1DFAE59EB
:1000D000E1B1B796E5E3E453C63AE651997696E87E
:1000E000E6C28426EB898C9B62ED407C6FFCEFBC02
:1000F0009C9F40F2BAA56FA5F490055A2AF75C932D
:100100006B6CF9676DC11BFCE0E40D47FEF520E662
:10011000B500D0ED902E0300943577050080841E45
:10012000080000204E0A000000C80C333333330FA0
:10013000986E12831141EF8D2114893BE65516CF3D
:10014000FEE6DB18D1844B381BF77C1D901DA4BB49
:10015000E424203284725E228100C9F124ECA1E5FE
:100160003D2700000000240027002A0000000000B6
:10017000250028002B000000000023002600290095
:10018000040404040404040402020202020203033D
:100190000303030301020408102040800102040845
:1001A00010200102040810200000000800020100D5
:1001B00000030407000000000000000026071124CF
:1001C0001FBECFEFD8E0DEBFCDBF22E0A2E1B2E09C
:1001D00001C01D92AB3CB207E1F712E0A0E0B1E034
:1001E000EAE6F5E202C005900D92A231B107D9F717
:1001F00010E0CFEDD0E004C02197FE010E949810DE
:10020000CE3DD107C9F70E9459070C94B3120C9444
:1002100000000895AF92BF92CF92DF92EF92FF92CB
:100220000F931F93CF93DF936C017B018B01040F1E
:10023000151FEB015E01AE18BF08C017D10759F0BA
:100240006991D601ED91FC910190F081E02DC601FC
:100250000995892B79F7C501DF91CF911F910F91F6
:10026000FF90EF90DF90CF90BF90AF900895FC018A
:10027000448155816081718188E292E00C940A0189
:10028000FC01538D448D252F30E0842F90E0821B9C
:10029000930B541710F0CF96089501970895FC0121
:1002A000918D828D981761F0A28DAE0FBF2FB11D79
:1002B0005D968C91928D9F5F9F73928F90E00895D1
:1002C0008FEF9FEF0895FC01918D828D981731F08B
:1002D000828DE80FF11D858D90E008958FEF9FEFDF
:1002E0000895FC01918D228D892F90E0805C9F4FB5
:1002F000821B91098F739927089588E292E00E94EA
:10030000710121E0892B09F420E0822F089580E01B
:1003100090E0892B29F00E947D0181110C9400004E
:100320000895FC01A48DA80FB92FB11DA35ABF4F8A
:100330002C91848D90E001968F739927848FA689E4
:10034000B7892C93A089B1898C91837080648C9338
:10035000938D848D981306C00288F389E02D8081E7
:100360008F7D80830895EF92FF920F931F93CF9319
:10037000DF93EC0181E0888F9B8D8C8D98131AC0E0
:10038000E889F989808185FF15C09FB7F894EE89C7
:10039000FF896083E889F989808183708064808324
:1003A0009FBF81E090E0DF91CF911F910F91FF906F
:1003B000EF900895F62E0B8D10E00F5F1F4F0F7317
:1003C0001127E02E8C8D8E110CC00FB607FCFACFD2
:1003D000E889F989808185FFF5CFCE010E949101DE
:1003E000F1CFEB8DEC0FFD2FF11DE35AFF4FF082A3
:1003F0009FB7F8940B8FEA89FB8980818062CFCF09
:10040000CF93DF93EC01888D8823B9F0AA89BB894B
:10041000E889F9898C9185FD03C0808186FD0DC036
:100420000FB607FCF7CF8C9185FFF2CF808185FF57
:10043000EDCFCE010E949101E9CFDF91CF910895D8
:10044000833081F028F4813099F08230A9F008954A
:100450008730A9F08830C9F08430B1F480918000F1
:100460008F7D03C0809180008F77809380000895F6
:1004700084B58F7784BD089584B58F7DFBCF80913F
:10048000B0008F778093B00008958091B0008F7D89
:10049000F9CFCF93DF93282F30E0F901E855FE4FD5
:1004A0008491F901EC56FE4FD491F901E058FE4FCA
:1004B000C491CC23A1F081110E942002EC2FF0E026
:1004C000EE0FFF1FEA58FE4FA591B491EC91ED237A
:1004D00081E090E009F480E0DF91CF91089580E021
:1004E00090E0FACF1F93CF93DF93282F30E0F901EC
:1004F000E855FE4F8491F901EC56FE4FD491F90175
:10050000E058FE4FC491CC23A9F0162F81110E9410
:100510002002EC2FF0E0EE0FFF1FE459FE4FA591F3
:10052000B4918FB7F894EC91111108C0D095DE23E7
:10053000DC938FBFDF91CF911F910895DE2BF8CF11
:10054000CF93DF9390E0FC01EC56FE4F249180584E
:100550009E4FFC0184918823D1F090E0880F991F71
:10056000FC01EE59FE4FA591B491FC01E459FE4FF8
:10057000C591D491623071F49FB7F8943C91822F69
:10058000809583238C93E8812E2B28839FBFDF9156
:10059000CF9108958FB7F894EC912E2B2C938FBFA9
:1005A000F6CF1F93CF93DF93182FEB0161E00E94EA
:1005B000A002209739F460E0812FDF91CF911F9145
:1005C0000C947202CF3FD10511F461E0F5CFE12F19
:1005D000F0E0E855FE4FE491E33031F140F4E130D2
:1005E000B1F0E230E1F0C038D1057CF7E4CFE7307C
:1005F00029F1E83059F1E430B1F780918000806250
:1006000080938000D0938B00C0938A0004C084B58F
:10061000806884BDC7BDDF91CF911F91089584B5D7
:10062000806284BDC8BDF7CF8091800080688093D0
:100630008000D0938900C0938800EDCF8091B000F6
:1006400080688093B000C093B300E5CF8091B00084
:1006500080628093B000C093B400DDCF3FB7F894C0
:100660008091170290911802A0911902B0911A027C
:1006700026B5A89B05C02F3F19F00196A11DB11DFD
:100680003FBFBA2FA92F982F8827BC01CD01620F39
:10069000711D811D911D42E0660F771F881F991FF4
:1006A0004A95D1F708952FB7F8946091130270918D
:1006B000140280911502909116022FBF08950F9396
:1006C0001F930E9453036093300270933102809312
:1006D00032029093330288E292E00E944F0197FF2A
:1006E0001DC00E94530300913002109131022091ED
:1006F000320230913302601B710B820B930B00911D
:100700002C0210912D0220912E0230912F026017A1
:10071000710782079307F8F28FEF9FEF1F910F91F8
:100720000895089560E089E00E94720260E08AE026
:100730000C94720242E050E06EE171E088E292E0D7
:100740000C940A01CF93DF930E943701EC010E94C1
:100750009A038C0F9D1FDF91CF910895CF93DF9364
:10076000FC0101900020E9F73197AF01481B590BBC
:10077000BC0188E292E00E940A01EC010E949A0307
:100780008C0F9D1FDF91CF910895CF93DF93EB01E5
:100790008130910581F08330910599F0892BA9F47E
:1007A00070E060E08AE00E94D102BE0189E0DF9142
:1007B000CF910C94D1028AE00E94D10270E060E0F7
:1007C000F5CFDF91CF910C94920381E291E0DF911C
:1007D000CF910C94AE0380910001811106C085E396
:1007E00091E00E94AE030C949203109200010895D0
:1007F000CF93DF93DC0114962D913C911597232B19
:1008000079F0FB01CD91DC9160817181CE010E9474
:100810009912009729F08C1B9D0BDF91CF910895C1
:100820008FEF9FEFFACFCF93DF93EC01888199810F
:10083000009711F00E943A11198218821D821C82C1
:100840001B821A82DF91CF910895FC0180819181F2
:10085000009711F00C943A1108950F931F93CF93C2
:10086000DF938C01EB01FC01808191810097E1F025
:100870006881798161157105A9F0428153812C81CC
:100880003D814217530770F00E9492128C819D8126
:10089000F801958384831D821C82DF91CF911F9183
:1008A0000F9108950E943A1188819981F8019183EE
:1008B00080838A819B81938382838C819D819583B0
:1008C0008483198218821B821A82E5CF0F931F93AB
:1008D000CF93DF93EC0188819981009759F02A81A9
:1008E0003B812617370730F081E0DF91CF911F91D0
:1008F0000F9108958B016F5F7F4F0E94C311009786
:1009000059F0998388831B830A832C813D81232B93
:1009100059F7FC011082E8CF80E0E7CFEF92FF9219
:100920000F931F93CF93DF936115710541F480E01E
:10093000DF91CF911F910F91FF90EF900895411596
:100940005105B1F07B01EC010C811D81040F151FD5
:10095000B8010E946604882351F3288139818C8173
:100960009D81B701820F931F0E9492121D830C83F9
:1009700081E0DECFCF93DF93EC01FB014481558111
:10098000608171810E948E04811103C0CE010E949A
:100990001304CE01DF91CF910895EF92FF920F9350
:1009A0001F93CF93DF93EC017B018A01BA010E9470
:1009B000660481110BC0CE010E941304CE01DF91A9
:1009C000CF911F910F91FF90EF9008951D830C839D
:1009D000B701888199810E949212F0CFFB010190AA
:1009E0000020E9F73197AF01461B570B0C94CD045B
:1009F0000F931F93CF93DF93CDB7DEB762970FB6F8
:100A0000F894DEBF0FBECDBF8C01CB01F80111827F
:100A1000108213821282158214824AE0BE016F5F37
:100A20007F4F0E94E00BBE016F5F7F4FC8010E94A5
:100A3000EE0462960FB6F894DEBF0FBECDBFDF9115
:100A4000CF911F910F910895EF92FF920F931F93F3
:100A5000CF93DF93CDB7DEB7A1970FB6F894DEBF83
:100A60000FBECDBF7C01CB01BA01F701118210820C
:100A700013821282158214828E010F5F1F4F22E0B3
:100A800044E00E949B0B009789F0BC01C7010E94C3
:100A9000EE04A1960FB6F894DEBF0FBECDBFDF9176
:100AA000CF911F910F91FF90EF900895C7010E9481
:100AB0001304EFCFFC01118210821382128215827F
:100AC0001482FB0101900020E9F73197AF01461B2A
:100AD000570B0C94CD04CF93DF93CDB7DEB72C9793
:100AE0000FB6F894DEBF0FBECDBF80911B028111FF
:100AF00006C08091200290912102892B71F580918E
:100B0000200290912102029744F560912002709199
:100B10002102CE0107960E94F80467E471E0CE013D
:100B200001960E945A05BE01695F7F4FCE01019672
:100B30000E94BA040E94A203CE0101960E942504DD
:100B4000CE0107960E9425048091200290912102F7
:100B5000019690932102809320022C960FB6F89470
:100B6000DEBF0FBECDBFDF91CF910895CF92DF9250
:100B7000EF92FF920F931F93CF93DF93CDB7DEB722
:100B80002C970FB6F894DEBF0FBECDBFFC012481B9
:100B90003581232BD1F18A017B01C080D18067E5AB
:100BA00071E0C6010E948912892BF1F5609126023D
:100BB000709127026F3F710544F56E0D7F1D709394
:100BC000270260932602C8010E94C5036091260295
:100BD00070912702CE0107960E94F80469E571E042
:100BE000CE0101960E945A05BE01695F7F4FCE017A
:100BF00001960E94BA040E94A203CE0101960E94AF
:100C00002504CE0107960E9425042C960FB6F89471
:100C1000DEBF0FBECDBFDF91CF911F910F91FF902F
:100C2000EF90DF90CF90089566E671E0C6010E94D4
:100C30008912892B51F760912602709127021616AE
:100C400017061CF76E197F0970932702609326021E
:100C5000C8010E94C5036091260270912702CE014F
:100C600007960E94F80468E671E0BACF1F920F92CF
:100C70000FB60F9211242F933F934F935F936F936F
:100C80007F938F939F93AF93BF93EF93FF9388E2EC
:100C900092E00E949101FF91EF91BF91AF919F91DE
:100CA0008F917F916F915F914F913F912F910F9015
:100CB0000FBE0F901F9018951F920F920FB60F92B4
:100CC00011242F938F939F93EF93FF93E09138021A
:100CD000F09139028081E0913E02F0913F0282FD65
:100CE0001BC09081809141028F5F8F7320914202DF
:100CF000821741F0E0914102F0E0E85DFD4F958FF1
:100D000080934102FF91EF919F918F912F910F90CE
:100D10000FBE0F901F9018958081F4CF1F920F92F5
:100D20000FB60F9211242F933F938F939F93AF93FE
:100D3000BF938091130290911402A0911502B0917B
:100D400016023091120223E0230F2D3758F5019639
:100D5000A11DB11D209312028093130290931402DF
:100D6000A0931502B0931602809117029091180279
:100D7000A0911902B0911A020196A11DB11D809394
:100D8000170290931802A0931902B0931A02BF9110
:100D9000AF919F918F913F912F910F900FBE0F9028
:100DA0001F90189526E8230F0296A11DB11DD2CFE2
:100DB0001F920F920FB60F9211242F933F934F93D0
:100DC0005F936F937F938F939F93AF93BF93EF93B3
:100DD000FF93E0910301F09104010995FF91EF91D8
:100DE000BF91AF919F918F917F916F915F914F9143
:100DF0003F912F910F900FBE0F901F9018951F924B
:100E00000F920FB60F9211242F933F934F935F933E
:100E10006F937F938F939F93AF93BF93EF93FF93C2
:100E2000E0910101F09102010995FF91EF91BF91CD
:100E3000AF919F918F917F916F915F914F913F9172
:100E40002F910F900FBE0F901F901895E8E2F2E0DF
:100E50001382128288EE93E0A0E0B0E08483958351
:100E6000A683B78380E191E09183808385EC90E055
:100E70009587848784EC90E09787868780EC90E064
:100E8000918B808B81EC90E0938B828B82EC90E055
:100E9000958B848B86EC90E0978B868B118E128ECF
:100EA000138E148E8CEA9DE09093C6028093C50247
:100EB0000895CF93DF93CDB7DEB76A970FB6F89456
:100EC000DEBF0FBECDBF789484B5826084BD84B58B
:100ED000816084BD85B5826085BD85B5816085BD35
:100EE00080916E00816080936E00109281008091ED
:100EF0008100826080938100809181008160809375
:100F00008100809180008160809380008091B10099
:100F100084608093B1008091B00081608093B000C4
:100F200080917A00846080937A0080917A00826058
:100F300080937A0080917A00816080937A0080911A
:100F40007A00806880937A001092C100E0913802A4
:100F5000F091390282E08083E0913402F091350211
:100F60001082E0913602F09137028FEC808310926C
:100F70004002E0913C02F0913D0286E08083E091E6
:100F80003A02F0913B02808180618083E0913A02D5
:100F9000F0913B02808188608083E0913A02F09179
:100FA0003B02808180688083E0913A02F0913B02AD
:100FB00080818F7D808361E089E00E94A00261E0F2
:100FC0008AE00E94A00262E087E00E94A00262E044
:100FD00085E00E94A00262E084E00E94A00262E03C
:100FE00083E00E94A00262E082E00E94A00260E032
:100FF00089E00E94720260E08AE00E947202209101
:10100000C5023091C60249E9429FC001439F900D3D
:1010100011246FEF70E082302FEF92070CF486C03E
:101020000E947010072E000C880B990B0E946C0E0A
:1010300020E030E040E05FE30E94570F0E9435104F
:101040007093230260932202CE0101960E94F8045D
:1010500065E771E0CE0107960E945A05BE016F5FF9
:101060007F4FCE0107960E94BA040E94A203CE01D0
:1010700007960E942504CE0101960E9425048BEE5E
:1010800093E0909304018093030180916900837F32
:10109000846080936900E99A8BE695E09093020161
:1010A00080930101809169008C7F81608093690049
:1010B000E89A20E0422E20E0522E33243394809090
:1010C000260290902702A0902402B090250260E2B0
:1010D00071E0CE0143960E945A0560E271E0CE01B4
:1010E0000D960E945A0560E271E0CE0107960E94BB
:1010F0005A0588E292E00E94710118161906CCF593
:1011000060E271E0CE0101960E945A050E945F03E1
:1011100097FD1BC0898F1A8E41E050E0BE01675ECB
:101120007F4FCE0101960E948E04F0CF0E94701076
:10113000072E000C880B990B0E946C0E20E030E00B
:1011400040E05FE30E94560F79CFBE016F5F7F4F93
:10115000CE0107960E942D04CE0101960E9425041F
:101160004B855C856F817885CE010D960E948E043B
:10117000C0CFCE0107960E942504BE01635F7F4F5A
:10118000CE0143960E942D04CE010D960E942504A7
:1011900063E871E0CE0101960E945A05BE016F5FBF
:1011A0007F4FCE0143960E94F8038C01CE01019639
:1011B0000E9425040F3F1F4F09F49FC00E94920315
:1011C00065E871E0CE0101960E945A05BE016D5E90
:1011D0007F4FCE0101960E94BA040E943701CE01D2
:1011E00001960E9425048FE891E00E94AE03CE0193
:1011F00043960E9425040E942E034B015C0198E255
:10120000C92ED12CE12CF12C0E942E0368197909EA
:101210008A099B09683E734081059105A8F321E086
:10122000C21AD108E108F10888EE880E83E0981E02
:10123000A11CB11CC114D104E104F10429F784E01C
:101240000E944902892B09F074C1609126027091B5
:1012500027028091240290912502892B09F05EC11A
:1012600081E090E090932502809324020E94C503C0
:1012700085EB91E00E94AE030091220210912302BF
:101280008091200290912102019709F079C180910B
:101290000501882309F474C10E9453030E946A0E59
:1012A000AB01BC0140931C0250931D0260931E02CF
:1012B00070931F02CE0101960E9424056BEF71E02E
:1012C000CE0107960E945A05BE016F5F7F4FCE0187
:1012D00007960E94BA040E94A203CE0107960E94BC
:1012E0002504CE0101960E94250430921B02109223
:1012F0000501EE24EA94FE2CC1C161EA71E0CE0141
:1013000001960E945A05BE016F5F7F4FCE01439642
:101310000E94F8038C01CE0101960E9425040F3F24
:101320001007D1F0B401C5010E94C50365E871E062
:10133000CE0101960E945A05BE016D5E7F4FCE011F
:1013400001960E94BA040E943701CE0101960E94C4
:10135000250483EA91E049CF61EB71E0CE0101966B
:101360000E945A05BE016F5F7F4FCE0143960E94D7
:10137000F8037C01CE0101960E942504EF20E09441
:1013800009F435CF63EB71E0CE0107960E945A0550
:101390001E861D86188A1F861A8A198A6B897C897F
:1013A0006115710531F04F89588DCE010D960E945F
:1013B000CD04E988FA88E114F10461F0CD84DE847B
:1013C0006F817885C6010E949912009719F08C01EF
:1013D0000C191D090F5F1F4FE016F10628F09E2D16
:1013E0008F2D7801092F182F60E271E0CE01019650
:1013F0000E945A05C988DA88EC14FD04D8F40C154B
:101400001D0508F46801ED85FE85EC0DFD1D1081BC
:1014100010826D857E856E0D7F1DCE010196611552
:101420007105C1F10E94EE048D859E85C80ED91EFE
:10143000F6011083C980DA80C114D10431F00D8126
:101440001E8176010115110549F589819A81C12C0A
:10145000D12C7601009719F00E94B90B6B01CE01D7
:1014600001960E942504CE010D960E942504CE010E
:1014700007960E942504A114B10409F445C0AA945A
:10148000AB2809F0B4CEB4018AE00E94D10270E02A
:1014900060E040C00E941304C7CF73013701FFEF23
:1014A0006F1A7F0AF7018081082E000C990B0E94A9
:1014B000510E892B91F7015011090C0D1D1DF801DA
:1014C0008081082E000C990B0E94510E892B31F05F
:1014D0000E151F0518F001501109F1CF0F5F1F4FB6
:1014E000A8014E195F095E834D83CE14DF0420F4FA
:1014F000B701C6010E948012E981FA818D819E8127
:10150000E80FF91F1082A1CF70E060E08AE00E942E
:10151000D102B60189E00E94D10269CE1092250263
:101520001092240290E080E00E94C5038AED91E0D1
:10153000A1CE87E00E944902009124021091250269
:1015400067E571E0892B61F085E00E944902892BF3
:1015500009F092CE009124021091250266E671E016
:10156000CE0101960E945A05A80163E370E0CE0106
:1015700001960E94B605CE0101960E9425047CCEFC
:101580008091200290912102029709F0B2CE0E9430
:101590005303C0901C02D0901D02E0901E02F090F8
:1015A0001F020E946A0EA70196010E94560F20E0BA
:1015B00030E0A9010E946B1018160CF0A1C00E9427
:1015C00053030E946A0EA70196010E94560FAB01B9
:1015D000BC0140931C0250931D0260931E02709345
:1015E0001F02CE0101960E9424056BEF71E0CE012F
:1015F00007960E945A05BE016F5F7F4FCE01079686
:101600000E94BA040E94A203CE0107960E942504FC
:10161000CE0101960E942504109221021092200210
:1016200010921B023092050120E030E04AE754E4BA
:1016300060911C0270911D0280911E0290911F0208
:101640000E94C30F9B01AC0160E070E080E792E470
:101650000E94C30F6B017C0120E030E0A9010E94D1
:101660006B1020E030E040E05FE387FD55C0C7012C
:10167000B6010E94570F0E9435107B01B701CE01C1
:1016800001960E94F80467E072E0CE0107960E947E
:101690005A05BE016F5F7F4FCE0107960E94BA04C4
:1016A0000E94A203CE0107960E942504CE01019656
:1016B0000E942504F7FC18C0E016F10694F500918D
:1016C00024021091250267E571E0CE0101960E9487
:1016D0005A05A80163E370E0CE0101960E94B605A9
:1016E000CE0101960E9425044114510409F4E7CC6F
:1016F0000E947D01882309F4E2CC0E940000DFCC27
:101700000E9453030E946A0EA70196010E94560F81
:10171000AB01BC0170585DCFC701B6010E94560FE6
:10172000AACF0E151F0504F700912402109125027F
:1017300066E671E0CACFEF920F931F93CF93DF93CA
:10174000E80134E047FD34E1042E000C550B57FF4F
:1017500003C0519541955109E32E022F242FAE016C
:101760000E941A0CCE01DF91CF911F910F91EF9043
:1017700008951F93FC0199278827BC01E8941191D3
:101780001032E9F3193010F01E30C8F31B3251F05B
:101790001D3249F4689406C00E94EB0B610F711D65
:1017A000811D911D119110531A30B0F33EF49095A4
:1017B0008095709561957F4F8F4F9F4F1F91089532
:1017C000BB274A3031F4992322F4BDE290958195EC
:1017D0009F4F0C94010C592F482F372F262F660F3F
:1017E000771F881F991F660F771F881F991F620F29
:1017F000731F841F951F660F771F881F991F0895F9
:10180000BB27FB015527AA27880F991FAA1FA417DA
:1018100010F0A41B83955051B9F7A05DAA3308F0CE
:10182000A95DA193009779F7B111B1931192CB0102
:101830000C945A0EA9E0B0E0E0E2FCE00C94250F15
:101840006A01F22EB02E102FFBE3AF2EA01608F483
:101850001BE31F5F012F27E0AE014F5F5F4F0E9428
:10186000790DBC018981982F9970913009F43FC09E
:101870009BE2E1FC04C09E2D9170E0FC3AC05E2D1D
:101880005071E82FE87083FF46C084E0911101C0D9
:1018900083E0EF2DE81B8F1508F0E0E0D6018E2FD6
:1018A00020E2552351F1992329F0D6019C93C601DA
:1018B00001966C0196012D5F3F4FE2FE24C08EE43D
:1018C000D6018C9391E411969C93119712968C9368
:1018D000D9018E2F90E281111BC0E20FF32FF11D71
:1018E00010828EEF9FEF2996ECE00C94410F9DE261
:1018F000C6CF90E2C4CF2D9381508111FCCFCE0E84
:10190000D11CE0E0D0CF8EE6D6018C9391E6DBCF00
:101910009D938150E0CF482F447082FF3DC084E00A
:10192000911101C083E08F1510F4EF2DE81BD60153
:101930008E2F20E2552309F1992329F0D6019C939B
:10194000C60101966C0196012D5F3F4FE2FE1BC060
:1019500089E4D6018C938EE411968C93119786E4DA
:1019600012968C93D9018E2F90E2882309F4B5CF7B
:101970009D938150FACF2D9381508111FCCFCE0ED3
:10198000D11CE0E0D9CF89E6D6018C938EE6119682
:101990008C93119786E6E4CF9B0177FF02C030E07D
:1019A00020E0A1E0B0E0911102C0B0E0A0E0F901B8
:1019B0003196AE0FBF1F8B2C912CBB2009F461C058
:1019C0005401EFEFAE1ABE0AAA0DBB1DFA161B0694
:1019D00019F014F04F2D4A1B511188C0E3FC59C077
:1019E0007601A42FB0E2A1114FC0C40ED11C9923DF
:1019F00009F45BC040E0D6011196F60190836D01B9
:101A0000552309F448C0012F060F9A81582F5071B1
:101A100084FF03C0913309F4015010160CF047C045
:101A2000093008F008E0EEE2FE2E5B01A01AB108D2
:101A300085019194819491082F3F320729F4D601B2
:101A4000FC92F60131966F016217730794F1021749
:101A500013077CF5DB01A21BB30BAA24A394B12CC2
:101A6000AC0EBD1EAA0DBB1D11968C9121503109E3
:101A7000D601119628153905F4F0F60180836D0121
:101A8000DBCFB12CA12CA0CFF701B1937F01A150E6
:101A9000AACF9111B0CFD601942F50E302C05D932D
:101AA00091509111FCCFC40ED11C40E0ACCF01E0AD
:101AB000BACF80E3DBCF6217730731F4963388F433
:101AC000953311F4552369F0F6018083FD01842FCD
:101AD00090E2811108C0A40FB11D1C9290E080E03B
:101AE00002CF81E3F1CF91938150F3CF911183CF56
:101AF0008ACF283008F027E03327DA01990F311D0B
:101B000087FD916000966105710539F432602E5FA2
:101B10003D9330E32A95E1F708959F3F30F08038F8
:101B20007105610509F03C5F3C5F3D93913008F021
:101B30008068911DDF93CF931F930F93FF92EF92D5
:101B4000192F987F9695E92F96959695E90FFF277F
:101B5000EE53FF4F99273327EE24FF24A701E70117
:101B600005900894079428F4360FE71EF81E491FC5
:101B7000511D660F771F881F991F0694A1F70590C6
:101B8000079428F4E70EF81E491F561FC11D770F52
:101B9000881F991F661F0694A1F70590079428F4E3
:101BA000F80E491F561FC71FD11D880F991F661FAA
:101BB000771F0694A1F70590079420F4490F561F4C
:101BC000C71FD81F990F661F771F881F0694A9F794
:101BD00084911095177041F0D695C7955795479504
:101BE000F794E7941A95C1F7E8E6F0E06894159049
:101BF000159135916591959105907FE27395E11866
:101C0000F10A430B560BC90BD009C0F7E10CF11ECA
:101C1000431F561FC91FD01D7EF4703311F48A95DF
:101C2000E6CFE894015030F0080F0AF400270217BD
:101C300008F4202F2395022F7A3328F079E37D933F
:101C40002A95E9F710C07D932A9589F60694979511
:101C50006795379517951794E118F10A430B560BC2
:101C6000C90BD00998F023957E9173957A3308F0CB
:101C700070E37C932013B8F77E9170617D9330F010
:101C8000839571E37D9370E32A95E1F71124EF903A
:101C9000FF900F911F91CF91DF91992787FD90952C
:101CA000089591110C94CB0E803219F08950855013
:101CB000C8F70895DC01FC01672F71917723E1F7E4
:101CC000329704C07C916D9370836291AE17BF0709
:101CD000C8F30895E89409C097FB3EF49095809569
:101CE000709561957F4F8F4F9F4F9923A9F0F92FE2
:101CF00096E9BB279395F695879577956795B79560
:101D0000F111F8CFFAF4BB0F11F460FF1BC06F5F45
:101D10007F4F8F4F9F4F16C0882311F096E911C057
:101D2000772321F09EE8872F762F05C0662371F078
:101D300096E8862F70E060E02AF09A95660F771F8C
:101D4000881FDAF7880F9695879597F90895990F68
:101D50000008550FAA0BE0E8FEEF16161706E80775
:101D6000F907C0F012161306E407F50798F0621B96
:101D7000730B840B950B39F40A2661F0232B242B6B
:101D8000252B21F408950A2609F4A140A6958FEF8A
:101D9000811D811D089599278827089597F99F67C8
:101DA00080E870E060E008959FEF80EC08950024E3
:101DB0000A941616170618060906089500240A94B0
:101DC00012161306140605060895092E0394000C36
:101DD00011F4882352F0BB0F40F4BF2B11F460FFC5
:101DE00004C06F5F7F4F8F4F9F4F089557FD9058EE
:101DF000440F551F59F05F3F71F04795880F97FBCF
:101E0000991F61F09F3F79F0879508951216130688
:101E10001406551FF2CF4695F1DF08C016161706B7
:101E20001806991FF1CF86957105610508940895EC
:101E3000E894BB2766277727CB0197F908952F925F
:101E40003F924F925F926F927F928F929F92AF924A
:101E5000BF92CF92DF92EF92FF920F931F93CF9397
:101E6000DF93CDB7DEB7CA1BDB0B0FB6F894DEBF2E
:101E70000FBECDBF09942A88398848885F846E8454
:101E80007D848C849B84AA84B984C884DF80EE809E
:101E9000FD800C811B81AA81B981CE0FD11D0FB6A7
:101EA000F894DEBF0FBECDBFED0108955058BB279B
:101EB000AA270E946E0F0C94E50E0E94D70E38F0F0
:101EC0000E94DE0E20F039F49F3F19F426F40C94A2
:101ED000D40E0EF4E095E7FB0C94CE0EE92F0E9491
:101EE000F60E58F3BA17620773078407950720F0B8
:101EF00079F4A6F50C94180F0EF4E0950B2EBA2F7A
:101F0000A02D0B01B90190010C01CA01A0011124FF
:101F1000FF27591B99F0593F50F4503E68F11A16AB
:101F2000F040A22F232F342F4427585FF3CF46953C
:101F300037952795A795F0405395C9F77EF41F165E
:101F4000BA0B620B730B840BBAF09150A1F0FF0F28
:101F5000BB1F661F771F881FC2F70EC0BA0F621F14
:101F6000731F841F48F4879577956795B795F79504
:101F70009E3F08F0B0CF9395880F08F09927EE0F99
:101F80009795879508950E94D70F0C94E50E0E94AF
:101F9000DE0E58F00E94D70E40F029F45F3F29F082
:101FA0000C94CE0E51110C94190F0C94D40E0E9467
:101FB000F60E68F39923B1F3552391F3951B550B56
:101FC000BB27AA2762177307840738F09F5F5F4F0C
:101FD000220F331F441FAA1FA9F335D00E2E3AF04B
:101FE000E0E832D091505040E695001CCAF72BD063
:101FF000FE2F29D0660F771F881FBB1F26173707B4
:102000004807AB07B0E809F0BB0B802DBF01FF27E5
:1020100093585F4F3AF09E3F510578F00C94CE0EE6
:102020000C94190F5F3FE4F3983ED4F386957795AF
:102030006795B795F7959F5FC9F7880F911D96959E
:10204000879597F90895E1E0660F771F881FBB1FFA
:10205000621773078407BA0720F0621B730B840BA7
:10206000BA0BEE1F88F7E09508950E943C10689423
:10207000B1110C94190F08950E94FE0E88F09F571D
:1020800098F0B92F9927B751B0F0E1F0660F771F9C
:10209000881F991F1AF0BA95C9F714C0B13091F092
:1020A0000E94180FB1E008950C94180F672F782F35
:1020B0008827B85F39F0B93FCCF386957795679557
:1020C000B395D9F73EF490958095709561957F4FC3
:1020D0008F4F9F4F08950E94A70E08F48FEF089529
:1020E00097FB072E16F4009407D077FD09D00E94C5
:1020F000841007FC05D03EF4909581959F4F08957C
:10210000709561957F4F0895AA1BBB1B51E107C0D5
:10211000AA1FBB1FA617B70710F0A61BB70B881F77
:10212000991F5A95A9F780959095BC01CD01089506
:10213000EE0FFF1F0590F491E02D09940F931F936C
:10214000CF93DF938230910510F482E090E0E0912C
:10215000C902F091CA0230E020E0B0E0A0E0309780
:1021600099F42115310509F44AC0281B390B243094
:102170003105D8F58A819B816115710589F1FB01D3
:1021800093838283FE0111C04081518102811381BA
:1021900048175907E0F04817590799F4109761F06C
:1021A00012960C93129713961C933296CF01DF91DF
:1021B000CF911F910F9108950093C9021093CA0205
:1021C000F4CF2115310551F04217530738F0A9011A
:1021D000DB019A01BD01DF01F801C1CFEF01F9CFA9
:1021E0009093CA028093C902CDCFFE01E20FF31F84
:1021F000819391932250310939832883D7CF20913D
:10220000C7023091C802232B41F42091080130917C
:1022100009013093C8022093C70220910601309132
:1022200007012115310541F42DB73EB740910A0150
:1022300050910B01241B350BE091C702F091C802AD
:10224000E217F307A0F42E1B3F0B2817390778F08D
:10225000AC014E5F5F4F2417350748F04E0F5F1FEC
:102260005093C8024093C702819391939FCFF0E0AF
:10227000E0E09CCFCF93DF930097E9F0FC01329729
:1022800013821282A091C902B091CA02ED0130E01E
:1022900020E01097A1F420813181820F931F2091BB
:1022A000C7023091C8022817390709F061C0F093BE
:1022B000C802E093C702DF91CF910895EA01CE17DB
:1022C000DF07E8F54A815B819E0141155105B1F7B1
:1022D000E901FB83EA8349915991C40FD51FEC179B
:1022E000FD0761F4808191810296840F951FE901B9
:1022F00099838883828193819B838A83F0E0E0E0E5
:1023000012968D919C9113970097B9F52D913C9160
:102310001197CD010296820F931F2091C702309131
:10232000C8022817390739F6309751F51092CA02BA
:102330001092C902B093C802A093C702BCCFD38346
:10234000C28340815181840F951FC817D90761F45A
:102350004E5F5F4F88819981480F591F5183408399
:102360008A819B81938382832115310509F0B0CF47
:10237000F093CA02E093C9029ECFFD01DC01C0CFF9
:1023800013821282D7CFB0E0A0E0E9ECF1E10C9427
:10239000210F8C01009751F4CB010E949E108C01FB
:1023A000C801CDB7DEB7E0E10C943D0FFC01E60FAC
:1023B000F71F9C0122503109E217F30708F49DC072
:1023C000D901CD91DC911197C617D70798F0C53088
:1023D000D10530F3CE0104978617970708F3C61B83
:1023E000D70B2297C193D1936D937C93CF010E9419
:1023F0003A11D6CF5B01AC1ABD0A4C018C0E9D1E62
:10240000A091C902B091CA02512C412CF12CE12CAF
:10241000109731F58091C7029091C80288159905EF
:1024200009F05CC04616570608F058C080910601B6
:1024300090910701009741F48DB79EB740910A0132
:1024400050910B01841B950BE817F90708F055C054
:10245000F093C802E093C702F90171836083A0CFB3
:102460008D919C91119712966C90129713967C9077
:102470001397A815B90559F56C0142E0C40ED11C9B
:10248000CA14DB0420F1AC014A195B09DA01129687
:10249000159780F06282738251834083D9016D93D6
:1024A0007C93E114F10471F0D7011396FC93EE9341
:1024B000129776CF22968C0F9D1FF901918380830E
:1024C000F301EFCFF093CA02E093C90269CF481637
:1024D000590608F42C017D01D3019ACFCB010E944B
:1024E0009E107C01009749F0AE01B8010E94801255
:1024F000C8010E943A11870153CF10E000E050CF8D
:10250000FB01DC0102C001900D9241505040D8F710
:102510000895FB01DC018D91019080190110D9F320
:10252000990B0895FB01DC0101900D920020E1F769
:102530000895FB0151915523A9F0BF01DC014D9194
:1025400045174111E1F759F4CD010190002049F000
:102550004D9140154111C9F3FB014111EFCF81E0CD
:1025600090E001970895F894FFCF01910391030142
:102570000000CB02800000000000B3010A0140010E
:10258000000271014F0163010D0A006F70C3A7C300
:10259000A36F20696E6573697374656E746500500E
:1025A0006172616E646F206D6F76696D656E746FB8
:1025B0000070756C7365204C616EC3A761646F3ADF
:1025C000002B002B56656C6F63696461203D200011
:1025D0002D002D56656C6F63696461203D200052AB
:1025E000504D5F546172676574203D200073004355
:1025F0006F6D616E646F3A20003E3E287329207330
:10260000746F70206D61742E2E2E0072003E3E2875
:1026100072292072756E206D61740076002C006D39
:102620006F746F7220676972616E646F206E6F20C5
:1026300073656E7469646F20616E7469686F72612E
:1026400072696F004D6F746F7220676972616E649A
:102650006F206E6F2073656E7469646F20686F728F
:102660006172696F00726F7461746554696D653A67
:0C26700000524D505F417475616C3A00DF
:107E0000112484B714BE81FFF0D085E080938100F7
:107E100082E08093C00088E18093C10086E0809377
:107E2000C20080E18093C4008EE0C9D0259A86E02C
:107E300020E33CEF91E0309385002093840096BBD3
:107E4000B09BFECF1D9AA8958150A9F7CC24DD24C4
:107E500088248394B5E0AB2EA1E19A2EF3E0BF2EE7
:107E6000A2D0813461F49FD0082FAFD0023811F036
:107E7000013811F484E001C083E08DD089C08234E0
:107E800011F484E103C0853419F485E0A6D080C0E4
:107E9000853579F488D0E82EFF2485D0082F10E0AE
:107EA000102F00270E291F29000F111F8ED06801E7
:107EB0006FC0863521F484E090D080E0DECF843638
:107EC00009F040C070D06FD0082F6DD080E0C81688
:107ED00080E7D80618F4F601B7BEE895C0E0D1E017
:107EE00062D089930C17E1F7F0E0CF16F0E7DF06D8
:107EF00018F0F601B7BEE89568D007B600FCFDCFD4
:107F0000A601A0E0B1E02C9130E011968C91119780
:107F100090E0982F8827822B932B1296FA010C0160
:107F200087BEE89511244E5F5F4FF1E0A038BF0790
:107F300051F7F601A7BEE89507B600FCFDCF97BE46
:107F4000E89526C08437B1F42ED02DD0F82E2BD052
:107F50003CD0F601EF2C8F010F5F1F4F84911BD097
:107F6000EA94F801C1F70894C11CD11CFA94CF0C13
:107F7000D11C0EC0853739F428D08EE10CD085E9AC
:107F80000AD08FE07ACF813511F488E018D01DD067
:107F900080E101D065CF982F8091C00085FFFCCF94
:107FA0009093C60008958091C00087FFFCCF809118
:107FB000C00084FD01C0A8958091C6000895E0E648
:107FC000F0E098E1908380830895EDDF803219F02E
:107FD00088E0F5DFFFCF84E1DECF1F93182FE3DFCA
:107FE0001150E9F7F2DF1F91089580E0E8DFEE27F6
:047FF000FF270994CA
:027FFE00040479
:00000001FF
